{
  "_format": "hh-sol-artifact-1",
  "contractName": "NFTMarketplace",
  "sourceName": "contracts/NFTMarketplace.sol",
  "abi": [
    {
      "inputs": [],
      "stateMutability": "nonpayable",
      "type": "constructor"
    },
    {
      "anonymous": false,
      "inputs": [
        {
          "indexed": true,
          "internalType": "address",
          "name": "owner",
          "type": "address"
        },
        {
          "indexed": true,
          "internalType": "address",
          "name": "approved",
          "type": "address"
        },
        {
          "indexed": true,
          "internalType": "uint256",
          "name": "tokenId",
          "type": "uint256"
        }
      ],
      "name": "Approval",
      "type": "event"
    },
    {
      "anonymous": false,
      "inputs": [
        {
          "indexed": true,
          "internalType": "address",
          "name": "owner",
          "type": "address"
        },
        {
          "indexed": true,
          "internalType": "address",
          "name": "operator",
          "type": "address"
        },
        {
          "indexed": false,
          "internalType": "bool",
          "name": "approved",
          "type": "bool"
        }
      ],
      "name": "ApprovalForAll",
      "type": "event"
    },
    {
      "anonymous": false,
      "inputs": [
        {
          "indexed": true,
          "internalType": "uint256",
          "name": "tokenId",
          "type": "uint256"
        },
        {
          "indexed": false,
          "internalType": "address",
          "name": "owner",
          "type": "address"
        }
      ],
      "name": "NftItemCreated",
      "type": "event"
    },
    {
      "anonymous": false,
      "inputs": [
        {
          "indexed": true,
          "internalType": "uint256",
          "name": "tokenId",
          "type": "uint256"
        },
        {
          "indexed": false,
          "internalType": "address",
          "name": "owner",
          "type": "address"
        },
        {
          "indexed": false,
          "internalType": "uint256",
          "name": "price",
          "type": "uint256"
        }
      ],
      "name": "NftItemListed",
      "type": "event"
    },
    {
      "anonymous": false,
      "inputs": [
        {
          "indexed": true,
          "internalType": "address",
          "name": "from",
          "type": "address"
        },
        {
          "indexed": true,
          "internalType": "address",
          "name": "to",
          "type": "address"
        },
        {
          "indexed": true,
          "internalType": "uint256",
          "name": "tokenId",
          "type": "uint256"
        }
      ],
      "name": "Transfer",
      "type": "event"
    },
    {
      "inputs": [
        {
          "internalType": "address",
          "name": "to",
          "type": "address"
        },
        {
          "internalType": "uint256",
          "name": "tokenId",
          "type": "uint256"
        }
      ],
      "name": "approve",
      "outputs": [],
      "stateMutability": "nonpayable",
      "type": "function"
    },
    {
      "inputs": [
        {
          "internalType": "address",
          "name": "owner",
          "type": "address"
        }
      ],
      "name": "balanceOf",
      "outputs": [
        {
          "internalType": "uint256",
          "name": "",
          "type": "uint256"
        }
      ],
      "stateMutability": "view",
      "type": "function"
    },
    {
      "inputs": [
        {
          "internalType": "uint256",
          "name": "tokenId",
          "type": "uint256"
        }
      ],
      "name": "buyNftItem",
      "outputs": [],
      "stateMutability": "payable",
      "type": "function"
    },
    {
      "inputs": [],
      "name": "getAllNFTItem",
      "outputs": [
        {
          "components": [
            {
              "internalType": "uint256",
              "name": "tokenId",
              "type": "uint256"
            },
            {
              "internalType": "address payable",
              "name": "owner",
              "type": "address"
            },
            {
              "internalType": "uint256",
              "name": "price",
              "type": "uint256"
            },
            {
              "internalType": "bool",
              "name": "isListed",
              "type": "bool"
            }
          ],
          "internalType": "struct NFTMarketplace.NftItem[]",
          "name": "",
          "type": "tuple[]"
        }
      ],
      "stateMutability": "view",
      "type": "function"
    },
    {
      "inputs": [
        {
          "internalType": "uint256",
          "name": "tokenId",
          "type": "uint256"
        }
      ],
      "name": "getApproved",
      "outputs": [
        {
          "internalType": "address",
          "name": "",
          "type": "address"
        }
      ],
      "stateMutability": "view",
      "type": "function"
    },
    {
      "inputs": [],
      "name": "getListingFee",
      "outputs": [
        {
          "internalType": "uint256",
          "name": "",
          "type": "uint256"
        }
      ],
      "stateMutability": "view",
      "type": "function"
    },
    {
      "inputs": [],
      "name": "getMyNFT",
      "outputs": [
        {
          "components": [
            {
              "internalType": "uint256",
              "name": "tokenId",
              "type": "uint256"
            },
            {
              "internalType": "address payable",
              "name": "owner",
              "type": "address"
            },
            {
              "internalType": "uint256",
              "name": "price",
              "type": "uint256"
            },
            {
              "internalType": "bool",
              "name": "isListed",
              "type": "bool"
            }
          ],
          "internalType": "struct NFTMarketplace.NftItem[]",
          "name": "",
          "type": "tuple[]"
        }
      ],
      "stateMutability": "view",
      "type": "function"
    },
    {
      "inputs": [
        {
          "internalType": "uint256",
          "name": "tokenId",
          "type": "uint256"
        }
      ],
      "name": "getNFTItem",
      "outputs": [
        {
          "components": [
            {
              "internalType": "uint256",
              "name": "tokenId",
              "type": "uint256"
            },
            {
              "internalType": "address payable",
              "name": "owner",
              "type": "address"
            },
            {
              "internalType": "uint256",
              "name": "price",
              "type": "uint256"
            },
            {
              "internalType": "bool",
              "name": "isListed",
              "type": "bool"
            }
          ],
          "internalType": "struct NFTMarketplace.NftItem",
          "name": "",
          "type": "tuple"
        }
      ],
      "stateMutability": "view",
      "type": "function"
    },
    {
      "inputs": [],
      "name": "getTotalSupply",
      "outputs": [
        {
          "internalType": "uint256",
          "name": "",
          "type": "uint256"
        }
      ],
      "stateMutability": "view",
      "type": "function"
    },
    {
      "inputs": [
        {
          "internalType": "address",
          "name": "owner",
          "type": "address"
        },
        {
          "internalType": "address",
          "name": "operator",
          "type": "address"
        }
      ],
      "name": "isApprovedForAll",
      "outputs": [
        {
          "internalType": "bool",
          "name": "",
          "type": "bool"
        }
      ],
      "stateMutability": "view",
      "type": "function"
    },
    {
      "inputs": [
        {
          "internalType": "uint256",
          "name": "tokenId",
          "type": "uint256"
        },
        {
          "internalType": "uint256",
          "name": "price",
          "type": "uint256"
        }
      ],
      "name": "listNftItem",
      "outputs": [],
      "stateMutability": "payable",
      "type": "function"
    },
    {
      "inputs": [
        {
          "internalType": "string",
          "name": "tokenURI",
          "type": "string"
        }
      ],
      "name": "mintToken",
      "outputs": [
        {
          "internalType": "uint256",
          "name": "",
          "type": "uint256"
        }
      ],
      "stateMutability": "nonpayable",
      "type": "function"
    },
    {
      "inputs": [],
      "name": "name",
      "outputs": [
        {
          "internalType": "string",
          "name": "",
          "type": "string"
        }
      ],
      "stateMutability": "view",
      "type": "function"
    },
    {
      "inputs": [
        {
          "internalType": "uint256",
          "name": "tokenId",
          "type": "uint256"
        }
      ],
      "name": "ownerOf",
      "outputs": [
        {
          "internalType": "address",
          "name": "",
          "type": "address"
        }
      ],
      "stateMutability": "view",
      "type": "function"
    },
    {
      "inputs": [
        {
          "internalType": "address",
          "name": "from",
          "type": "address"
        },
        {
          "internalType": "address",
          "name": "to",
          "type": "address"
        },
        {
          "internalType": "uint256",
          "name": "tokenId",
          "type": "uint256"
        }
      ],
      "name": "safeTransferFrom",
      "outputs": [],
      "stateMutability": "nonpayable",
      "type": "function"
    },
    {
      "inputs": [
        {
          "internalType": "address",
          "name": "from",
          "type": "address"
        },
        {
          "internalType": "address",
          "name": "to",
          "type": "address"
        },
        {
          "internalType": "uint256",
          "name": "tokenId",
          "type": "uint256"
        },
        {
          "internalType": "bytes",
          "name": "data",
          "type": "bytes"
        }
      ],
      "name": "safeTransferFrom",
      "outputs": [],
      "stateMutability": "nonpayable",
      "type": "function"
    },
    {
      "inputs": [
        {
          "internalType": "address",
          "name": "operator",
          "type": "address"
        },
        {
          "internalType": "bool",
          "name": "approved",
          "type": "bool"
        }
      ],
      "name": "setApprovalForAll",
      "outputs": [],
      "stateMutability": "nonpayable",
      "type": "function"
    },
    {
      "inputs": [
        {
          "internalType": "bytes4",
          "name": "interfaceId",
          "type": "bytes4"
        }
      ],
      "name": "supportsInterface",
      "outputs": [
        {
          "internalType": "bool",
          "name": "",
          "type": "bool"
        }
      ],
      "stateMutability": "view",
      "type": "function"
    },
    {
      "inputs": [],
      "name": "symbol",
      "outputs": [
        {
          "internalType": "string",
          "name": "",
          "type": "string"
        }
      ],
      "stateMutability": "view",
      "type": "function"
    },
    {
      "inputs": [
        {
          "internalType": "uint256",
          "name": "tokenId",
          "type": "uint256"
        }
      ],
      "name": "tokenURI",
      "outputs": [
        {
          "internalType": "string",
          "name": "",
          "type": "string"
        }
      ],
      "stateMutability": "view",
      "type": "function"
    },
    {
      "inputs": [
        {
          "internalType": "address",
          "name": "from",
          "type": "address"
        },
        {
          "internalType": "address",
          "name": "to",
          "type": "address"
        },
        {
          "internalType": "uint256",
          "name": "tokenId",
          "type": "uint256"
        }
      ],
      "name": "transferFrom",
      "outputs": [],
      "stateMutability": "nonpayable",
      "type": "function"
    },
    {
      "inputs": [
        {
          "internalType": "uint256",
          "name": "tokenId",
          "type": "uint256"
        }
      ],
      "name": "unlistNftItem",
      "outputs": [],
      "stateMutability": "nonpayable",
      "type": "function"
    },
    {
      "inputs": [
        {
          "internalType": "uint256",
          "name": "tokenId",
          "type": "uint256"
        },
        {
          "internalType": "uint256",
          "name": "price",
          "type": "uint256"
        }
      ],
      "name": "updateItemPrice",
      "outputs": [],
      "stateMutability": "nonpayable",
      "type": "function"
    },
    {
      "inputs": [
        {
          "internalType": "uint256",
          "name": "_listingFee",
          "type": "uint256"
        }
      ],
      "name": "updateListingFee",
      "outputs": [],
      "stateMutability": "nonpayable",
      "type": "function"
    }
  ],
  "bytecode": "0x60806040526605543df729c0006009553480156200001c57600080fd5b506040518060400160405280601381526020017f4e4654204d657461766572736520546f6b656e000000000000000000000000008152506040518060400160405280600581526020017f4d594e465400000000000000000000000000000000000000000000000000000081525081600090816200009a919062000355565b508060019081620000ac919062000355565b5050503373ffffffffffffffffffffffffffffffffffffffff16600a60009054906101000a905050506200043c565b600081519050919050565b7f4e487b7100000000000000000000000000000000000000000000000000000000600052604160045260246000fd5b7f4e487b7100000000000000000000000000000000000000000000000000000000600052602260045260246000fd5b600060028204905060018216806200015d57607f821691505b60208210810362000173576200017262000115565b5b50919050565b60008190508160005260206000209050919050565b60006020601f8301049050919050565b600082821b905092915050565b600060088302620001dd7fffffffffffffffffffffffffffffffffffffffffffffffffffffffffffffffff826200019e565b620001e986836200019e565b95508019841693508086168417925050509392505050565b6000819050919050565b6000819050919050565b600062000236620002306200022a8462000201565b6200020b565b62000201565b9050919050565b6000819050919050565b620002528362000215565b6200026a62000261826200023d565b848454620001ab565b825550505050565b600090565b6200028162000272565b6200028e81848462000247565b505050565b5b81811015620002b657620002aa60008262000277565b60018101905062000294565b5050565b601f8211156200030557620002cf8162000179565b620002da846200018e565b81016020851015620002ea578190505b62000302620002f9856200018e565b83018262000293565b50505b505050565b600082821c905092915050565b60006200032a600019846008026200030a565b1980831691505092915050565b600062000345838362000317565b9150826002028217905092915050565b6200036082620000db565b67ffffffffffffffff8111156200037c576200037b620000e6565b5b62000388825462000144565b62000395828285620002ba565b600060209050601f831160018114620003cd5760008415620003b8578287015190505b620003c4858262000337565b86555062000434565b601f198416620003dd8662000179565b60005b828110156200040757848901518255600182019150602085019450602081019050620003e0565b8683101562000427578489015162000423601f89168262000317565b8355505b6001600288020188555050505b505050505050565b6144e7806200044c6000396000f3fe60806040526004361061014b5760003560e01c80638cc0f321116100b6578063c4e41b221161006f578063c4e41b2214610498578063c87b56dd146104c3578063cad7d03314610500578063d8bb62231461052b578063e985e9c514610554578063f79d91ae146105915761014b565b80638cc0f321146103a957806395d89b41146103d4578063a22cb465146103ff578063b88d4fde14610428578063b8fe6abe14610451578063bf4a9af31461047c5761014b565b806333eba49a1161010857806333eba49a1461027057806342842e0e146102ad57806354e872c8146102d65780636352211e146102f25780636a3ceff91461032f57806370a082311461036c5761014b565b806301ffc9a71461015057806306fdde031461018d578063081812fc146101b8578063095ea7b3146101f557806323b872dd1461021e5780632769b96b14610247575b600080fd5b34801561015c57600080fd5b5061017760048036038101906101729190612b4a565b6105ba565b6040516101849190612b92565b60405180910390f35b34801561019957600080fd5b506101a261069c565b6040516101af9190612c3d565b60405180910390f35b3480156101c457600080fd5b506101df60048036038101906101da9190612c95565b61072e565b6040516101ec9190612d03565b60405180910390f35b34801561020157600080fd5b5061021c60048036038101906102179190612d4a565b610774565b005b34801561022a57600080fd5b5061024560048036038101906102409190612d8a565b61088b565b005b34801561025357600080fd5b5061026e60048036038101906102699190612ddd565b6108eb565b005b34801561027c57600080fd5b5061029760048036038101906102929190612f52565b6109e7565b6040516102a49190612faa565b60405180910390f35b3480156102b957600080fd5b506102d460048036038101906102cf9190612d8a565b610aca565b005b6102f060048036038101906102eb9190612ddd565b610aea565b005b3480156102fe57600080fd5b5061031960048036038101906103149190612c95565b610d4c565b6040516103269190612d03565b60405180910390f35b34801561033b57600080fd5b5061035660048036038101906103519190612c95565b610dd2565b6040516103639190613059565b60405180910390f35b34801561037857600080fd5b50610393600480360381019061038e9190613074565b610ed0565b6040516103a09190612faa565b60405180910390f35b3480156103b557600080fd5b506103be610f87565b6040516103cb91906131a5565b60405180910390f35b3480156103e057600080fd5b506103e9611124565b6040516103f69190612c3d565b60405180910390f35b34801561040b57600080fd5b50610426600480360381019061042191906131f3565b6111b6565b005b34801561043457600080fd5b5061044f600480360381019061044a91906132d4565b6111cc565b005b34801561045d57600080fd5b5061046661122e565b6040516104739190612faa565b60405180910390f35b61049660048036038101906104919190612c95565b611238565b005b3480156104a457600080fd5b506104ad61142f565b6040516104ba9190612faa565b60405180910390f35b3480156104cf57600080fd5b506104ea60048036038101906104e59190612c95565b611440565b6040516104f79190612c3d565b60405180910390f35b34801561050c57600080fd5b50610515611552565b60405161052291906131a5565b60405180910390f35b34801561053757600080fd5b50610552600480360381019061054d9190612c95565b61172e565b005b34801561056057600080fd5b5061057b60048036038101906105769190613357565b61185a565b6040516105889190612b92565b60405180910390f35b34801561059d57600080fd5b506105b860048036038101906105b39190612c95565b6118ee565b005b60007f80ac58cd000000000000000000000000000000000000000000000000000000007bffffffffffffffffffffffffffffffffffffffffffffffffffffffff1916827bffffffffffffffffffffffffffffffffffffffffffffffffffffffff1916148061068557507f5b5e139f000000000000000000000000000000000000000000000000000000007bffffffffffffffffffffffffffffffffffffffffffffffffffffffff1916827bffffffffffffffffffffffffffffffffffffffffffffffffffffffff1916145b806106955750610694826119cd565b5b9050919050565b6060600080546106ab906133c6565b80601f01602080910402602001604051908101604052809291908181526020018280546106d7906133c6565b80156107245780601f106106f957610100808354040283529160200191610724565b820191906000526020600020905b81548152906001019060200180831161070757829003601f168201915b5050505050905090565b600061073982611a37565b6004600083815260200190815260200160002060009054906101000a900473ffffffffffffffffffffffffffffffffffffffff169050919050565b600061077f82610d4c565b90508073ffffffffffffffffffffffffffffffffffffffff168373ffffffffffffffffffffffffffffffffffffffff16036107ef576040517f08c379a00000000000000000000000000000000000000000000000000000000081526004016107e690613469565b60405180910390fd5b8073ffffffffffffffffffffffffffffffffffffffff1661080e611a82565b73ffffffffffffffffffffffffffffffffffffffff16148061083d575061083c81610837611a82565b61185a565b5b61087c576040517f08c379a0000000000000000000000000000000000000000000000000000000008152600401610873906134fb565b60405180910390fd5b6108868383611a8a565b505050565b61089c610896611a82565b82611b43565b6108db576040517f08c379a00000000000000000000000000000000000000000000000000000000081526004016108d29061358d565b60405180910390fd5b6108e6838383611bd8565b505050565b806000811161092f576040517f08c379a00000000000000000000000000000000000000000000000000000000081526004016109269061361f565b60405180910390fd5b6000600c600085815260200190815260200160002090503373ffffffffffffffffffffffffffffffffffffffff168160010160009054906101000a900473ffffffffffffffffffffffffffffffffffffffff1673ffffffffffffffffffffffffffffffffffffffff16146109d8576040517f08c379a00000000000000000000000000000000000000000000000000000000081526004016109cf906136b1565b60405180910390fd5b82816002018190555050505050565b6000600b826040516109f9919061370d565b908152602001604051809103902060009054906101000a900460ff1615610a55576040517f08c379a0000000000000000000000000000000000000000000000000000000008152600401610a4c90613770565b60405180910390fd5b610a5f6007611ed1565b6000610a6b6007611ee7565b9050610a773382611ef5565b610a818184612112565b6001600b84604051610a93919061370d565b908152602001604051809103902060006101000a81548160ff021916908315150217905550610ac18161217f565b80915050919050565b610ae5838383604051806020016040528060008152506111cc565b505050565b8060008111610b2e576040517f08c379a0000000000000000000000000000000000000000000000000000000008152600401610b259061361f565b60405180910390fd5b6009543414610b72576040517f08c379a0000000000000000000000000000000000000000000000000000000008152600401610b6990613802565b60405180910390fd5b6000600c600085815260200190815260200160002090503373ffffffffffffffffffffffffffffffffffffffff168160010160009054906101000a900473ffffffffffffffffffffffffffffffffffffffff1673ffffffffffffffffffffffffffffffffffffffff1614610c1b576040517f08c379a0000000000000000000000000000000000000000000000000000000008152600401610c12906136b1565b60405180910390fd5b600015158160030160009054906101000a900460ff16151514610c73576040517f08c379a0000000000000000000000000000000000000000000000000000000008152600401610c6a9061386e565b60405180910390fd5b82816002018190555060018160030160006101000a81548160ff021916908315150217905550600a60009054906101000a900473ffffffffffffffffffffffffffffffffffffffff1673ffffffffffffffffffffffffffffffffffffffff166108fc349081150290604051600060405180830381858888f19350505050158015610d01573d6000803e3d6000fd5b50610d0c6008611ed1565b837f2d0b07406646b5adfda45c694983867c52e3ce31d9e136feb83b9f7cc59bdbef3385604051610d3e92919061388e565b60405180910390a250505050565b600080610d5883612286565b9050600073ffffffffffffffffffffffffffffffffffffffff168173ffffffffffffffffffffffffffffffffffffffff1603610dc9576040517f08c379a0000000000000000000000000000000000000000000000000000000008152600401610dc090613903565b60405180910390fd5b80915050919050565b610dda612a9e565b610de46007611ee7565b821115610e26576040517f08c379a0000000000000000000000000000000000000000000000000000000008152600401610e1d9061396f565b60405180910390fd5b600c6000838152602001908152602001600020604051806080016040529081600082015481526020016001820160009054906101000a900473ffffffffffffffffffffffffffffffffffffffff1673ffffffffffffffffffffffffffffffffffffffff1673ffffffffffffffffffffffffffffffffffffffff168152602001600282015481526020016003820160009054906101000a900460ff1615151515815250509050919050565b60008073ffffffffffffffffffffffffffffffffffffffff168273ffffffffffffffffffffffffffffffffffffffff1603610f40576040517f08c379a0000000000000000000000000000000000000000000000000000000008152600401610f3790613a01565b60405180910390fd5b600360008373ffffffffffffffffffffffffffffffffffffffff1673ffffffffffffffffffffffffffffffffffffffff168152602001908152602001600020549050919050565b60606000610f956007611ee7565b9050600080610fa46008611ee7565b67ffffffffffffffff811115610fbd57610fbc612e27565b5b604051908082528060200260200182016040528015610ff657816020015b610fe3612a9e565b815260200190600190039081610fdb5790505b5090506000600190505b83811161111a5760011515600c600083815260200190815260200160002060030160009054906101000a900460ff1615150361110757600c6000828152602001908152602001600020604051806080016040529081600082015481526020016001820160009054906101000a900473ffffffffffffffffffffffffffffffffffffffff1673ffffffffffffffffffffffffffffffffffffffff1673ffffffffffffffffffffffffffffffffffffffff168152602001600282015481526020016003820160009054906101000a900460ff1615151515815250508284815181106110ec576110eb613a21565b5b60200260200101819052506001836111049190613a7f565b92505b808061111290613ab3565b915050611000565b5080935050505090565b606060018054611133906133c6565b80601f016020809104026020016040519081016040528092919081815260200182805461115f906133c6565b80156111ac5780601f10611181576101008083540402835291602001916111ac565b820191906000526020600020905b81548152906001019060200180831161118f57829003601f168201915b5050505050905090565b6111c86111c1611a82565b83836122c3565b5050565b6111dd6111d7611a82565b83611b43565b61121c576040517f08c379a00000000000000000000000000000000000000000000000000000000081526004016112139061358d565b60405180910390fd5b6112288484848461242f565b50505050565b6000600954905090565b6000600c6000838152602001908152602001600020905080600201543414611295576040517f08c379a000000000000000000000000000000000000000000000000000000000815260040161128c90613b47565b60405180910390fd5b8060010160009054906101000a900473ffffffffffffffffffffffffffffffffffffffff1673ffffffffffffffffffffffffffffffffffffffff163373ffffffffffffffffffffffffffffffffffffffff1603611327576040517f08c379a000000000000000000000000000000000000000000000000000000000815260040161131e90613bb3565b60405180910390fd5b6113568160010160009054906101000a900473ffffffffffffffffffffffffffffffffffffffff163384611bd8565b8060010160009054906101000a900473ffffffffffffffffffffffffffffffffffffffff1673ffffffffffffffffffffffffffffffffffffffff166108fc349081150290604051600060405180830381858888f193505050501580156113c0573d6000803e3d6000fd5b506113cb600861248b565b338160010160006101000a81548173ffffffffffffffffffffffffffffffffffffffff021916908373ffffffffffffffffffffffffffffffffffffffff16021790555060008160030160006101000a81548160ff0219169083151502179055505050565b600061143b6007611ee7565b905090565b606061144b82611a37565b600060066000848152602001908152602001600020805461146b906133c6565b80601f0160208091040260200160405190810160405280929190818152602001828054611497906133c6565b80156114e45780601f106114b9576101008083540402835291602001916114e4565b820191906000526020600020905b8154815290600101906020018083116114c757829003601f168201915b5050505050905060006114f56124e7565b9050600081510361150a57819250505061154d565b60008251111561153f578082604051602001611527929190613bd3565b6040516020818303038152906040529250505061154d565b611548846124fe565b925050505b919050565b606060006115606007611ee7565b9050600061156d33610ed0565b90506000808267ffffffffffffffff81111561158c5761158b612e27565b5b6040519080825280602002602001820160405280156115c557816020015b6115b2612a9e565b8152602001906001900390816115aa5790505b5090506000600190505b848111611723573373ffffffffffffffffffffffffffffffffffffffff16600c600083815260200190815260200160002060010160009054906101000a900473ffffffffffffffffffffffffffffffffffffffff1673ffffffffffffffffffffffffffffffffffffffff160361171057600c6000828152602001908152602001600020604051806080016040529081600082015481526020016001820160009054906101000a900473ffffffffffffffffffffffffffffffffffffffff1673ffffffffffffffffffffffffffffffffffffffff1673ffffffffffffffffffffffffffffffffffffffff168152602001600282015481526020016003820160009054906101000a900460ff1615151515815250508284815181106116f5576116f4613a21565b5b602002602001018190525060018361170d9190613a7f565b92505b808061171b90613ab3565b9150506115cf565b508094505050505090565b6000600c600083815260200190815260200160002090503373ffffffffffffffffffffffffffffffffffffffff168160010160009054906101000a900473ffffffffffffffffffffffffffffffffffffffff1673ffffffffffffffffffffffffffffffffffffffff16146117d7576040517f08c379a00000000000000000000000000000000000000000000000000000000081526004016117ce906136b1565b60405180910390fd5b600115158160030160009054906101000a900460ff1615151461182f576040517f08c379a000000000000000000000000000000000000000000000000000000000815260040161182690613c43565b60405180910390fd5b60008160030160006101000a81548160ff021916908315150217905550611856600861248b565b5050565b6000600560008473ffffffffffffffffffffffffffffffffffffffff1673ffffffffffffffffffffffffffffffffffffffff16815260200190815260200160002060008373ffffffffffffffffffffffffffffffffffffffff1673ffffffffffffffffffffffffffffffffffffffff16815260200190815260200160002060009054906101000a900460ff16905092915050565b600a60009054906101000a900473ffffffffffffffffffffffffffffffffffffffff1673ffffffffffffffffffffffffffffffffffffffff163373ffffffffffffffffffffffffffffffffffffffff161461197e576040517f08c379a000000000000000000000000000000000000000000000000000000000815260040161197590613cd5565b60405180910390fd5b80600081116119c2576040517f08c379a00000000000000000000000000000000000000000000000000000000081526004016119b99061361f565b60405180910390fd5b816009819055505050565b60007f01ffc9a7000000000000000000000000000000000000000000000000000000007bffffffffffffffffffffffffffffffffffffffffffffffffffffffff1916827bffffffffffffffffffffffffffffffffffffffffffffffffffffffff1916149050919050565b611a4081612566565b611a7f576040517f08c379a0000000000000000000000000000000000000000000000000000000008152600401611a7690613903565b60405180910390fd5b50565b600033905090565b816004600083815260200190815260200160002060006101000a81548173ffffffffffffffffffffffffffffffffffffffff021916908373ffffffffffffffffffffffffffffffffffffffff160217905550808273ffffffffffffffffffffffffffffffffffffffff16611afd83610d4c565b73ffffffffffffffffffffffffffffffffffffffff167f8c5be1e5ebec7d5bd14f71427d1e84f3dd0314c0f7b2291e5b200ac8c7c3b92560405160405180910390a45050565b600080611b4f83610d4c565b90508073ffffffffffffffffffffffffffffffffffffffff168473ffffffffffffffffffffffffffffffffffffffff161480611b915750611b90818561185a565b5b80611bcf57508373ffffffffffffffffffffffffffffffffffffffff16611bb78461072e565b73ffffffffffffffffffffffffffffffffffffffff16145b91505092915050565b8273ffffffffffffffffffffffffffffffffffffffff16611bf882610d4c565b73ffffffffffffffffffffffffffffffffffffffff1614611c4e576040517f08c379a0000000000000000000000000000000000000000000000000000000008152600401611c4590613d67565b60405180910390fd5b600073ffffffffffffffffffffffffffffffffffffffff168273ffffffffffffffffffffffffffffffffffffffff1603611cbd576040517f08c379a0000000000000000000000000000000000000000000000000000000008152600401611cb490613df9565b60405180910390fd5b611cca83838360016125a7565b8273ffffffffffffffffffffffffffffffffffffffff16611cea82610d4c565b73ffffffffffffffffffffffffffffffffffffffff1614611d40576040517f08c379a0000000000000000000000000000000000000000000000000000000008152600401611d3790613d67565b60405180910390fd5b6004600082815260200190815260200160002060006101000a81549073ffffffffffffffffffffffffffffffffffffffff02191690556001600360008573ffffffffffffffffffffffffffffffffffffffff1673ffffffffffffffffffffffffffffffffffffffff168152602001908152602001600020600082825403925050819055506001600360008473ffffffffffffffffffffffffffffffffffffffff1673ffffffffffffffffffffffffffffffffffffffff16815260200190815260200160002060008282540192505081905550816002600083815260200190815260200160002060006101000a81548173ffffffffffffffffffffffffffffffffffffffff021916908373ffffffffffffffffffffffffffffffffffffffff160217905550808273ffffffffffffffffffffffffffffffffffffffff168473ffffffffffffffffffffffffffffffffffffffff167fddf252ad1be2c89b69c2b068fc378daa952ba7f163c4a11628f55a4df523b3ef60405160405180910390a4611ecc83838360016126cd565b505050565b6001816000016000828254019250508190555050565b600081600001549050919050565b600073ffffffffffffffffffffffffffffffffffffffff168273ffffffffffffffffffffffffffffffffffffffff1603611f64576040517f08c379a0000000000000000000000000000000000000000000000000000000008152600401611f5b90613e65565b60405180910390fd5b611f6d81612566565b15611fad576040517f08c379a0000000000000000000000000000000000000000000000000000000008152600401611fa490613ed1565b60405180910390fd5b611fbb6000838360016125a7565b611fc481612566565b15612004576040517f08c379a0000000000000000000000000000000000000000000000000000000008152600401611ffb90613ed1565b60405180910390fd5b6001600360008473ffffffffffffffffffffffffffffffffffffffff1673ffffffffffffffffffffffffffffffffffffffff16815260200190815260200160002060008282540192505081905550816002600083815260200190815260200160002060006101000a81548173ffffffffffffffffffffffffffffffffffffffff021916908373ffffffffffffffffffffffffffffffffffffffff160217905550808273ffffffffffffffffffffffffffffffffffffffff16600073ffffffffffffffffffffffffffffffffffffffff167fddf252ad1be2c89b69c2b068fc378daa952ba7f163c4a11628f55a4df523b3ef60405160405180910390a461210e6000838360016126cd565b5050565b61211b82612566565b61215a576040517f08c379a000000000000000000000000000000000000000000000000000000000815260040161215190613f63565b60405180910390fd5b8060066000848152602001908152602001600020908161217a919061412f565b505050565b60405180608001604052808281526020013373ffffffffffffffffffffffffffffffffffffffff1681526020016000815260200160001515815250600c60008381526020019081526020016000206000820151816000015560208201518160010160006101000a81548173ffffffffffffffffffffffffffffffffffffffff021916908373ffffffffffffffffffffffffffffffffffffffff1602179055506040820151816002015560608201518160030160006101000a81548160ff021916908315150217905550905050807f93beb01ee4f5d2f89d0a0d55db47459601413c9ef0b552599f3ed68f27f82c793360405161227b9190612d03565b60405180910390a250565b60006002600083815260200190815260200160002060009054906101000a900473ffffffffffffffffffffffffffffffffffffffff169050919050565b8173ffffffffffffffffffffffffffffffffffffffff168373ffffffffffffffffffffffffffffffffffffffff1603612331576040517f08c379a00000000000000000000000000000000000000000000000000000000081526004016123289061424d565b60405180910390fd5b80600560008573ffffffffffffffffffffffffffffffffffffffff1673ffffffffffffffffffffffffffffffffffffffff16815260200190815260200160002060008473ffffffffffffffffffffffffffffffffffffffff1673ffffffffffffffffffffffffffffffffffffffff16815260200190815260200160002060006101000a81548160ff0219169083151502179055508173ffffffffffffffffffffffffffffffffffffffff168373ffffffffffffffffffffffffffffffffffffffff167f17307eab39ab6107e8899845ad3d59bd9653f200f220920489ca2b5937696c31836040516124229190612b92565b60405180910390a3505050565b61243a848484611bd8565b612446848484846126d3565b612485576040517f08c379a000000000000000000000000000000000000000000000000000000000815260040161247c906142df565b60405180910390fd5b50505050565b600081600001549050600081116124d7576040517f08c379a00000000000000000000000000000000000000000000000000000000081526004016124ce9061434b565b60405180910390fd5b6001810382600001819055505050565b606060405180602001604052806000815250905090565b606061250982611a37565b60006125136124e7565b90506000815111612533576040518060200160405280600081525061255e565b8061253d8461285a565b60405160200161254e929190613bd3565b6040516020818303038152906040525b915050919050565b60008073ffffffffffffffffffffffffffffffffffffffff1661258883612286565b73ffffffffffffffffffffffffffffffffffffffff1614159050919050565b60018111156126c757600073ffffffffffffffffffffffffffffffffffffffff168473ffffffffffffffffffffffffffffffffffffffff161461263b5780600360008673ffffffffffffffffffffffffffffffffffffffff1673ffffffffffffffffffffffffffffffffffffffff1681526020019081526020016000206000828254612633919061436b565b925050819055505b600073ffffffffffffffffffffffffffffffffffffffff168373ffffffffffffffffffffffffffffffffffffffff16146126c65780600360008573ffffffffffffffffffffffffffffffffffffffff1673ffffffffffffffffffffffffffffffffffffffff16815260200190815260200160002060008282546126be9190613a7f565b925050819055505b5b50505050565b50505050565b60006126f48473ffffffffffffffffffffffffffffffffffffffff16612928565b1561284d578373ffffffffffffffffffffffffffffffffffffffff1663150b7a0261271d611a82565b8786866040518563ffffffff1660e01b815260040161273f94939291906143f4565b6020604051808303816000875af192505050801561277b57506040513d601f19601f820116820180604052508101906127789190614455565b60015b6127fd573d80600081146127ab576040519150601f19603f3d011682016040523d82523d6000602084013e6127b0565b606091505b5060008151036127f5576040517f08c379a00000000000000000000000000000000000000000000000000000000081526004016127ec906142df565b60405180910390fd5b805181602001fd5b63150b7a0260e01b7bffffffffffffffffffffffffffffffffffffffffffffffffffffffff1916817bffffffffffffffffffffffffffffffffffffffffffffffffffffffff191614915050612852565b600190505b949350505050565b6060600060016128698461294b565b01905060008167ffffffffffffffff81111561288857612887612e27565b5b6040519080825280601f01601f1916602001820160405280156128ba5781602001600182028036833780820191505090505b509050600082602001820190505b60011561291d578080600190039150507f3031323334353637383961626364656600000000000000000000000000000000600a86061a8153600a858161291157612910614482565b5b049450600085036128c8575b819350505050919050565b6000808273ffffffffffffffffffffffffffffffffffffffff163b119050919050565b600080600090507a184f03e93ff9f4daa797ed6e38ed64bf6a1f01000000000000000083106129a9577a184f03e93ff9f4daa797ed6e38ed64bf6a1f010000000000000000838161299f5761299e614482565b5b0492506040810190505b6d04ee2d6d415b85acef810000000083106129e6576d04ee2d6d415b85acef810000000083816129dc576129db614482565b5b0492506020810190505b662386f26fc100008310612a1557662386f26fc100008381612a0b57612a0a614482565b5b0492506010810190505b6305f5e1008310612a3e576305f5e1008381612a3457612a33614482565b5b0492506008810190505b6127108310612a63576127108381612a5957612a58614482565b5b0492506004810190505b60648310612a865760648381612a7c57612a7b614482565b5b0492506002810190505b600a8310612a95576001810190505b80915050919050565b604051806080016040528060008152602001600073ffffffffffffffffffffffffffffffffffffffff168152602001600081526020016000151581525090565b6000604051905090565b600080fd5b600080fd5b60007fffffffff0000000000000000000000000000000000000000000000000000000082169050919050565b612b2781612af2565b8114612b3257600080fd5b50565b600081359050612b4481612b1e565b92915050565b600060208284031215612b6057612b5f612ae8565b5b6000612b6e84828501612b35565b91505092915050565b60008115159050919050565b612b8c81612b77565b82525050565b6000602082019050612ba76000830184612b83565b92915050565b600081519050919050565b600082825260208201905092915050565b60005b83811015612be7578082015181840152602081019050612bcc565b60008484015250505050565b6000601f19601f8301169050919050565b6000612c0f82612bad565b612c198185612bb8565b9350612c29818560208601612bc9565b612c3281612bf3565b840191505092915050565b60006020820190508181036000830152612c578184612c04565b905092915050565b6000819050919050565b612c7281612c5f565b8114612c7d57600080fd5b50565b600081359050612c8f81612c69565b92915050565b600060208284031215612cab57612caa612ae8565b5b6000612cb984828501612c80565b91505092915050565b600073ffffffffffffffffffffffffffffffffffffffff82169050919050565b6000612ced82612cc2565b9050919050565b612cfd81612ce2565b82525050565b6000602082019050612d186000830184612cf4565b92915050565b612d2781612ce2565b8114612d3257600080fd5b50565b600081359050612d4481612d1e565b92915050565b60008060408385031215612d6157612d60612ae8565b5b6000612d6f85828601612d35565b9250506020612d8085828601612c80565b9150509250929050565b600080600060608486031215612da357612da2612ae8565b5b6000612db186828701612d35565b9350506020612dc286828701612d35565b9250506040612dd386828701612c80565b9150509250925092565b60008060408385031215612df457612df3612ae8565b5b6000612e0285828601612c80565b9250506020612e1385828601612c80565b9150509250929050565b600080fd5b600080fd5b7f4e487b7100000000000000000000000000000000000000000000000000000000600052604160045260246000fd5b612e5f82612bf3565b810181811067ffffffffffffffff82111715612e7e57612e7d612e27565b5b80604052505050565b6000612e91612ade565b9050612e9d8282612e56565b919050565b600067ffffffffffffffff821115612ebd57612ebc612e27565b5b612ec682612bf3565b9050602081019050919050565b82818337600083830152505050565b6000612ef5612ef084612ea2565b612e87565b905082815260208101848484011115612f1157612f10612e22565b5b612f1c848285612ed3565b509392505050565b600082601f830112612f3957612f38612e1d565b5b8135612f49848260208601612ee2565b91505092915050565b600060208284031215612f6857612f67612ae8565b5b600082013567ffffffffffffffff811115612f8657612f85612aed565b5b612f9284828501612f24565b91505092915050565b612fa481612c5f565b82525050565b6000602082019050612fbf6000830184612f9b565b92915050565b612fce81612c5f565b82525050565b6000612fdf82612cc2565b9050919050565b612fef81612fd4565b82525050565b612ffe81612b77565b82525050565b60808201600082015161301a6000850182612fc5565b50602082015161302d6020850182612fe6565b5060408201516130406040850182612fc5565b5060608201516130536060850182612ff5565b50505050565b600060808201905061306e6000830184613004565b92915050565b60006020828403121561308a57613089612ae8565b5b600061309884828501612d35565b91505092915050565b600081519050919050565b600082825260208201905092915050565b6000819050602082019050919050565b6080820160008201516130e36000850182612fc5565b5060208201516130f66020850182612fe6565b5060408201516131096040850182612fc5565b50606082015161311c6060850182612ff5565b50505050565b600061312e83836130cd565b60808301905092915050565b6000602082019050919050565b6000613152826130a1565b61315c81856130ac565b9350613167836130bd565b8060005b8381101561319857815161317f8882613122565b975061318a8361313a565b92505060018101905061316b565b5085935050505092915050565b600060208201905081810360008301526131bf8184613147565b905092915050565b6131d081612b77565b81146131db57600080fd5b50565b6000813590506131ed816131c7565b92915050565b6000806040838503121561320a57613209612ae8565b5b600061321885828601612d35565b9250506020613229858286016131de565b9150509250929050565b600067ffffffffffffffff82111561324e5761324d612e27565b5b61325782612bf3565b9050602081019050919050565b600061327761327284613233565b612e87565b90508281526020810184848401111561329357613292612e22565b5b61329e848285612ed3565b509392505050565b600082601f8301126132bb576132ba612e1d565b5b81356132cb848260208601613264565b91505092915050565b600080600080608085870312156132ee576132ed612ae8565b5b60006132fc87828801612d35565b945050602061330d87828801612d35565b935050604061331e87828801612c80565b925050606085013567ffffffffffffffff81111561333f5761333e612aed565b5b61334b878288016132a6565b91505092959194509250565b6000806040838503121561336e5761336d612ae8565b5b600061337c85828601612d35565b925050602061338d85828601612d35565b9150509250929050565b7f4e487b7100000000000000000000000000000000000000000000000000000000600052602260045260246000fd5b600060028204905060018216806133de57607f821691505b6020821081036133f1576133f0613397565b5b50919050565b7f4552433732313a20617070726f76616c20746f2063757272656e74206f776e6560008201527f7200000000000000000000000000000000000000000000000000000000000000602082015250565b6000613453602183612bb8565b915061345e826133f7565b604082019050919050565b6000602082019050818103600083015261348281613446565b9050919050565b7f4552433732313a20617070726f76652063616c6c6572206973206e6f7420746f60008201527f6b656e206f776e6572206f7220617070726f76656420666f7220616c6c000000602082015250565b60006134e5603d83612bb8565b91506134f082613489565b604082019050919050565b60006020820190508181036000830152613514816134d8565b9050919050565b7f4552433732313a2063616c6c6572206973206e6f7420746f6b656e206f776e6560008201527f72206f7220617070726f76656400000000000000000000000000000000000000602082015250565b6000613577602d83612bb8565b91506135828261351b565b604082019050919050565b600060208201905081810360008301526135a68161356a565b9050919050565b7f496e7075742076616c7565206d757374206265206174206c656173742031207760008201527f6569000000000000000000000000000000000000000000000000000000000000602082015250565b6000613609602283612bb8565b9150613614826135ad565b604082019050919050565b60006020820190508181036000830152613638816135fc565b9050919050565b7f4f6e6c79204e4654206974656d206f776e65722063616e2063616c6c2074686960008201527f732066756e630000000000000000000000000000000000000000000000000000602082015250565b600061369b602683612bb8565b91506136a68261363f565b604082019050919050565b600060208201905081810360008301526136ca8161368e565b9050919050565b600081905092915050565b60006136e782612bad565b6136f181856136d1565b9350613701818560208601612bc9565b80840191505092915050565b600061371982846136dc565b915081905092915050565b7f746f6b656e555249206973206578697374730000000000000000000000000000600082015250565b600061375a601283612bb8565b915061376582613724565b602082019050919050565b600060208201905081810360008301526137898161374d565b9050919050565b7f4d616b652073757265207375626d69742076616c7565203d3d206c697374696e60008201527f6720707269636500000000000000000000000000000000000000000000000000602082015250565b60006137ec602783612bb8565b91506137f782613790565b604082019050919050565b6000602082019050818103600083015261381b816137df565b9050919050565b7f4e465420776173206c6973746564000000000000000000000000000000000000600082015250565b6000613858600e83612bb8565b915061386382613822565b602082019050919050565b600060208201905081810360008301526138878161384b565b9050919050565b60006040820190506138a36000830185612cf4565b6138b06020830184612f9b565b9392505050565b7f4552433732313a20696e76616c696420746f6b656e2049440000000000000000600082015250565b60006138ed601883612bb8565b91506138f8826138b7565b602082019050919050565b6000602082019050818103600083015261391c816138e0565b9050919050565b7f546f6b656e20696420696e76616c696400000000000000000000000000000000600082015250565b6000613959601083612bb8565b915061396482613923565b602082019050919050565b600060208201905081810360008301526139888161394c565b9050919050565b7f4552433732313a2061646472657373207a65726f206973206e6f74206120766160008201527f6c6964206f776e65720000000000000000000000000000000000000000000000602082015250565b60006139eb602983612bb8565b91506139f68261398f565b604082019050919050565b60006020820190508181036000830152613a1a816139de565b9050919050565b7f4e487b7100000000000000000000000000000000000000000000000000000000600052603260045260246000fd5b7f4e487b7100000000000000000000000000000000000000000000000000000000600052601160045260246000fd5b6000613a8a82612c5f565b9150613a9583612c5f565b9250828201905080821115613aad57613aac613a50565b5b92915050565b6000613abe82612c5f565b91507fffffffffffffffffffffffffffffffffffffffffffffffffffffffffffffffff8203613af057613aef613a50565b5b600182019050919050565b7f4d616b652073757265207375626d69742076616c7565203d3d20707269636500600082015250565b6000613b31601f83612bb8565b9150613b3c82613afb565b602082019050919050565b60006020820190508181036000830152613b6081613b24565b9050919050565b7f4d616b65207375726520627579657220213d206f776e65720000000000000000600082015250565b6000613b9d601883612bb8565b9150613ba882613b67565b602082019050919050565b60006020820190508181036000830152613bcc81613b90565b9050919050565b6000613bdf82856136dc565b9150613beb82846136dc565b91508190509392505050565b7f4e4654204974656d206973206e6f74206c697374656400000000000000000000600082015250565b6000613c2d601683612bb8565b9150613c3882613bf7565b602082019050919050565b60006020820190508181036000830152613c5c81613c20565b9050919050565b7f6f6e6c79206f776e65722063616e2063616c6c20746869732066756e6374696f60008201527f6e00000000000000000000000000000000000000000000000000000000000000602082015250565b6000613cbf602183612bb8565b9150613cca82613c63565b604082019050919050565b60006020820190508181036000830152613cee81613cb2565b9050919050565b7f4552433732313a207472616e736665722066726f6d20696e636f72726563742060008201527f6f776e6572000000000000000000000000000000000000000000000000000000602082015250565b6000613d51602583612bb8565b9150613d5c82613cf5565b604082019050919050565b60006020820190508181036000830152613d8081613d44565b9050919050565b7f4552433732313a207472616e7366657220746f20746865207a65726f2061646460008201527f7265737300000000000000000000000000000000000000000000000000000000602082015250565b6000613de3602483612bb8565b9150613dee82613d87565b604082019050919050565b60006020820190508181036000830152613e1281613dd6565b9050919050565b7f4552433732313a206d696e7420746f20746865207a65726f2061646472657373600082015250565b6000613e4f602083612bb8565b9150613e5a82613e19565b602082019050919050565b60006020820190508181036000830152613e7e81613e42565b9050919050565b7f4552433732313a20746f6b656e20616c7265616479206d696e74656400000000600082015250565b6000613ebb601c83612bb8565b9150613ec682613e85565b602082019050919050565b60006020820190508181036000830152613eea81613eae565b9050919050565b7f45524337323155524953746f726167653a2055524920736574206f66206e6f6e60008201527f6578697374656e7420746f6b656e000000000000000000000000000000000000602082015250565b6000613f4d602e83612bb8565b9150613f5882613ef1565b604082019050919050565b60006020820190508181036000830152613f7c81613f40565b9050919050565b60008190508160005260206000209050919050565b60006020601f8301049050919050565b600082821b905092915050565b600060088302613fe57fffffffffffffffffffffffffffffffffffffffffffffffffffffffffffffffff82613fa8565b613fef8683613fa8565b95508019841693508086168417925050509392505050565b6000819050919050565b600061402c61402761402284612c5f565b614007565b612c5f565b9050919050565b6000819050919050565b61404683614011565b61405a61405282614033565b848454613fb5565b825550505050565b600090565b61406f614062565b61407a81848461403d565b505050565b5b8181101561409e57614093600082614067565b600181019050614080565b5050565b601f8211156140e3576140b481613f83565b6140bd84613f98565b810160208510156140cc578190505b6140e06140d885613f98565b83018261407f565b50505b505050565b600082821c905092915050565b6000614106600019846008026140e8565b1980831691505092915050565b600061411f83836140f5565b9150826002028217905092915050565b61413882612bad565b67ffffffffffffffff81111561415157614150612e27565b5b61415b82546133c6565b6141668282856140a2565b600060209050601f8311600181146141995760008415614187578287015190505b6141918582614113565b8655506141f9565b601f1984166141a786613f83565b60005b828110156141cf578489015182556001820191506020850194506020810190506141aa565b868310156141ec57848901516141e8601f8916826140f5565b8355505b6001600288020188555050505b505050505050565b7f4552433732313a20617070726f766520746f2063616c6c657200000000000000600082015250565b6000614237601983612bb8565b915061424282614201565b602082019050919050565b600060208201905081810360008301526142668161422a565b9050919050565b7f4552433732313a207472616e7366657220746f206e6f6e20455243373231526560008201527f63656976657220696d706c656d656e7465720000000000000000000000000000602082015250565b60006142c9603283612bb8565b91506142d48261426d565b604082019050919050565b600060208201905081810360008301526142f8816142bc565b9050919050565b7f436f756e7465723a2064656372656d656e74206f766572666c6f770000000000600082015250565b6000614335601b83612bb8565b9150614340826142ff565b602082019050919050565b6000602082019050818103600083015261436481614328565b9050919050565b600061437682612c5f565b915061438183612c5f565b925082820390508181111561439957614398613a50565b5b92915050565b600081519050919050565b600082825260208201905092915050565b60006143c68261439f565b6143d081856143aa565b93506143e0818560208601612bc9565b6143e981612bf3565b840191505092915050565b60006080820190506144096000830187612cf4565b6144166020830186612cf4565b6144236040830185612f9b565b818103606083015261443581846143bb565b905095945050505050565b60008151905061444f81612b1e565b92915050565b60006020828403121561446b5761446a612ae8565b5b600061447984828501614440565b91505092915050565b7f4e487b7100000000000000000000000000000000000000000000000000000000600052601260045260246000fdfea26469706673582212208b023d7af2344deb0072ee09802f82ac4de71ec08b509aa6a36f843ae5a6ae9c64736f6c63430008110033",
  "linkReferences": {},
  "deployedLinkReferences": {}
}