{
  "_format": "hh-sol-artifact-1",
  "contractName": "NFTMarketplace",
  "sourceName": "contracts/NFTMarketplace.sol",
  "abi": [
    {
      "inputs": [],
      "stateMutability": "nonpayable",
      "type": "constructor"
    },
    {
      "anonymous": false,
      "inputs": [
        {
          "indexed": true,
          "internalType": "address",
          "name": "owner",
          "type": "address"
        },
        {
          "indexed": true,
          "internalType": "address",
          "name": "approved",
          "type": "address"
        },
        {
          "indexed": true,
          "internalType": "uint256",
          "name": "tokenId",
          "type": "uint256"
        }
      ],
      "name": "Approval",
      "type": "event"
    },
    {
      "anonymous": false,
      "inputs": [
        {
          "indexed": true,
          "internalType": "address",
          "name": "owner",
          "type": "address"
        },
        {
          "indexed": true,
          "internalType": "address",
          "name": "operator",
          "type": "address"
        },
        {
          "indexed": false,
          "internalType": "bool",
          "name": "approved",
          "type": "bool"
        }
      ],
      "name": "ApprovalForAll",
      "type": "event"
    },
    {
      "anonymous": false,
      "inputs": [
        {
          "indexed": true,
          "internalType": "uint256",
          "name": "tokenId",
          "type": "uint256"
        },
        {
          "indexed": false,
          "internalType": "address",
          "name": "owner",
          "type": "address"
        },
        {
          "indexed": false,
          "internalType": "uint256",
          "name": "price",
          "type": "uint256"
        }
      ],
      "name": "NftItemCreated",
      "type": "event"
    },
    {
      "anonymous": false,
      "inputs": [
        {
          "indexed": true,
          "internalType": "uint256",
          "name": "tokenId",
          "type": "uint256"
        },
        {
          "indexed": false,
          "internalType": "address",
          "name": "owner",
          "type": "address"
        }
      ],
      "name": "NftItemListed",
      "type": "event"
    },
    {
      "anonymous": false,
      "inputs": [
        {
          "indexed": true,
          "internalType": "address",
          "name": "from",
          "type": "address"
        },
        {
          "indexed": true,
          "internalType": "address",
          "name": "to",
          "type": "address"
        },
        {
          "indexed": true,
          "internalType": "uint256",
          "name": "tokenId",
          "type": "uint256"
        }
      ],
      "name": "Transfer",
      "type": "event"
    },
    {
      "inputs": [
        {
          "internalType": "address",
          "name": "to",
          "type": "address"
        },
        {
          "internalType": "uint256",
          "name": "tokenId",
          "type": "uint256"
        }
      ],
      "name": "approve",
      "outputs": [],
      "stateMutability": "nonpayable",
      "type": "function"
    },
    {
      "inputs": [
        {
          "internalType": "address",
          "name": "owner",
          "type": "address"
        }
      ],
      "name": "balanceOf",
      "outputs": [
        {
          "internalType": "uint256",
          "name": "",
          "type": "uint256"
        }
      ],
      "stateMutability": "view",
      "type": "function"
    },
    {
      "inputs": [
        {
          "internalType": "uint256",
          "name": "tokenId",
          "type": "uint256"
        }
      ],
      "name": "buyNftItem",
      "outputs": [],
      "stateMutability": "payable",
      "type": "function"
    },
    {
      "inputs": [],
      "name": "getAllNFTItem",
      "outputs": [
        {
          "components": [
            {
              "internalType": "uint256",
              "name": "tokenId",
              "type": "uint256"
            },
            {
              "internalType": "address payable",
              "name": "owner",
              "type": "address"
            },
            {
              "internalType": "uint256",
              "name": "price",
              "type": "uint256"
            },
            {
              "internalType": "bool",
              "name": "isListed",
              "type": "bool"
            }
          ],
          "internalType": "struct NFTMarketplace.NftItem[]",
          "name": "",
          "type": "tuple[]"
        }
      ],
      "stateMutability": "view",
      "type": "function"
    },
    {
      "inputs": [
        {
          "internalType": "uint256",
          "name": "tokenId",
          "type": "uint256"
        }
      ],
      "name": "getApproved",
      "outputs": [
        {
          "internalType": "address",
          "name": "",
          "type": "address"
        }
      ],
      "stateMutability": "view",
      "type": "function"
    },
    {
      "inputs": [],
      "name": "getListingFee",
      "outputs": [
        {
          "internalType": "uint256",
          "name": "",
          "type": "uint256"
        }
      ],
      "stateMutability": "view",
      "type": "function"
    },
    {
      "inputs": [],
      "name": "getMyNFT",
      "outputs": [
        {
          "components": [
            {
              "internalType": "uint256",
              "name": "tokenId",
              "type": "uint256"
            },
            {
              "internalType": "address payable",
              "name": "owner",
              "type": "address"
            },
            {
              "internalType": "uint256",
              "name": "price",
              "type": "uint256"
            },
            {
              "internalType": "bool",
              "name": "isListed",
              "type": "bool"
            }
          ],
          "internalType": "struct NFTMarketplace.NftItem[]",
          "name": "",
          "type": "tuple[]"
        }
      ],
      "stateMutability": "view",
      "type": "function"
    },
    {
      "inputs": [
        {
          "internalType": "uint256",
          "name": "tokenId",
          "type": "uint256"
        }
      ],
      "name": "getNFTItem",
      "outputs": [
        {
          "components": [
            {
              "internalType": "uint256",
              "name": "tokenId",
              "type": "uint256"
            },
            {
              "internalType": "address payable",
              "name": "owner",
              "type": "address"
            },
            {
              "internalType": "uint256",
              "name": "price",
              "type": "uint256"
            },
            {
              "internalType": "bool",
              "name": "isListed",
              "type": "bool"
            }
          ],
          "internalType": "struct NFTMarketplace.NftItem",
          "name": "",
          "type": "tuple"
        }
      ],
      "stateMutability": "view",
      "type": "function"
    },
    {
      "inputs": [],
      "name": "getTotalSupply",
      "outputs": [
        {
          "internalType": "uint256",
          "name": "",
          "type": "uint256"
        }
      ],
      "stateMutability": "view",
      "type": "function"
    },
    {
      "inputs": [
        {
          "internalType": "address",
          "name": "owner",
          "type": "address"
        },
        {
          "internalType": "address",
          "name": "operator",
          "type": "address"
        }
      ],
      "name": "isApprovedForAll",
      "outputs": [
        {
          "internalType": "bool",
          "name": "",
          "type": "bool"
        }
      ],
      "stateMutability": "view",
      "type": "function"
    },
    {
      "inputs": [
        {
          "internalType": "uint256",
          "name": "tokenId",
          "type": "uint256"
        }
      ],
      "name": "listNftItem",
      "outputs": [],
      "stateMutability": "payable",
      "type": "function"
    },
    {
      "inputs": [
        {
          "internalType": "string",
          "name": "tokenURI",
          "type": "string"
        },
        {
          "internalType": "uint256",
          "name": "price",
          "type": "uint256"
        }
      ],
      "name": "mintToken",
      "outputs": [
        {
          "internalType": "uint256",
          "name": "",
          "type": "uint256"
        }
      ],
      "stateMutability": "nonpayable",
      "type": "function"
    },
    {
      "inputs": [],
      "name": "name",
      "outputs": [
        {
          "internalType": "string",
          "name": "",
          "type": "string"
        }
      ],
      "stateMutability": "view",
      "type": "function"
    },
    {
      "inputs": [
        {
          "internalType": "uint256",
          "name": "tokenId",
          "type": "uint256"
        }
      ],
      "name": "ownerOf",
      "outputs": [
        {
          "internalType": "address",
          "name": "",
          "type": "address"
        }
      ],
      "stateMutability": "view",
      "type": "function"
    },
    {
      "inputs": [
        {
          "internalType": "address",
          "name": "from",
          "type": "address"
        },
        {
          "internalType": "address",
          "name": "to",
          "type": "address"
        },
        {
          "internalType": "uint256",
          "name": "tokenId",
          "type": "uint256"
        }
      ],
      "name": "safeTransferFrom",
      "outputs": [],
      "stateMutability": "nonpayable",
      "type": "function"
    },
    {
      "inputs": [
        {
          "internalType": "address",
          "name": "from",
          "type": "address"
        },
        {
          "internalType": "address",
          "name": "to",
          "type": "address"
        },
        {
          "internalType": "uint256",
          "name": "tokenId",
          "type": "uint256"
        },
        {
          "internalType": "bytes",
          "name": "data",
          "type": "bytes"
        }
      ],
      "name": "safeTransferFrom",
      "outputs": [],
      "stateMutability": "nonpayable",
      "type": "function"
    },
    {
      "inputs": [
        {
          "internalType": "address",
          "name": "operator",
          "type": "address"
        },
        {
          "internalType": "bool",
          "name": "approved",
          "type": "bool"
        }
      ],
      "name": "setApprovalForAll",
      "outputs": [],
      "stateMutability": "nonpayable",
      "type": "function"
    },
    {
      "inputs": [
        {
          "internalType": "bytes4",
          "name": "interfaceId",
          "type": "bytes4"
        }
      ],
      "name": "supportsInterface",
      "outputs": [
        {
          "internalType": "bool",
          "name": "",
          "type": "bool"
        }
      ],
      "stateMutability": "view",
      "type": "function"
    },
    {
      "inputs": [],
      "name": "symbol",
      "outputs": [
        {
          "internalType": "string",
          "name": "",
          "type": "string"
        }
      ],
      "stateMutability": "view",
      "type": "function"
    },
    {
      "inputs": [
        {
          "internalType": "uint256",
          "name": "tokenId",
          "type": "uint256"
        }
      ],
      "name": "tokenURI",
      "outputs": [
        {
          "internalType": "string",
          "name": "",
          "type": "string"
        }
      ],
      "stateMutability": "view",
      "type": "function"
    },
    {
      "inputs": [
        {
          "internalType": "address",
          "name": "from",
          "type": "address"
        },
        {
          "internalType": "address",
          "name": "to",
          "type": "address"
        },
        {
          "internalType": "uint256",
          "name": "tokenId",
          "type": "uint256"
        }
      ],
      "name": "transferFrom",
      "outputs": [],
      "stateMutability": "nonpayable",
      "type": "function"
    },
    {
      "inputs": [
        {
          "internalType": "uint256",
          "name": "tokenId",
          "type": "uint256"
        }
      ],
      "name": "unlistNftItem",
      "outputs": [],
      "stateMutability": "nonpayable",
      "type": "function"
    },
    {
      "inputs": [
        {
          "internalType": "uint256",
          "name": "tokenId",
          "type": "uint256"
        },
        {
          "internalType": "uint256",
          "name": "price",
          "type": "uint256"
        }
      ],
      "name": "updateItemPrice",
      "outputs": [],
      "stateMutability": "nonpayable",
      "type": "function"
    },
    {
      "inputs": [
        {
          "internalType": "uint256",
          "name": "_listingFee",
          "type": "uint256"
        }
      ],
      "name": "updateListingFee",
      "outputs": [],
      "stateMutability": "nonpayable",
      "type": "function"
    }
  ],
  "bytecode": "0x60806040526605543df729c0006009553480156200001c57600080fd5b506040518060400160405280601381526020017f4e4654204d657461766572736520546f6b656e000000000000000000000000008152506040518060400160405280600581526020017f4d594e465400000000000000000000000000000000000000000000000000000081525081600090816200009a919062000355565b508060019081620000ac919062000355565b5050503373ffffffffffffffffffffffffffffffffffffffff16600a60009054906101000a905050506200043c565b600081519050919050565b7f4e487b7100000000000000000000000000000000000000000000000000000000600052604160045260246000fd5b7f4e487b7100000000000000000000000000000000000000000000000000000000600052602260045260246000fd5b600060028204905060018216806200015d57607f821691505b60208210810362000173576200017262000115565b5b50919050565b60008190508160005260206000209050919050565b60006020601f8301049050919050565b600082821b905092915050565b600060088302620001dd7fffffffffffffffffffffffffffffffffffffffffffffffffffffffffffffffff826200019e565b620001e986836200019e565b95508019841693508086168417925050509392505050565b6000819050919050565b6000819050919050565b600062000236620002306200022a8462000201565b6200020b565b62000201565b9050919050565b6000819050919050565b620002528362000215565b6200026a62000261826200023d565b848454620001ab565b825550505050565b600090565b6200028162000272565b6200028e81848462000247565b505050565b5b81811015620002b657620002aa60008262000277565b60018101905062000294565b5050565b601f8211156200030557620002cf8162000179565b620002da846200018e565b81016020851015620002ea578190505b62000302620002f9856200018e565b83018262000293565b50505b505050565b600082821c905092915050565b60006200032a600019846008026200030a565b1980831691505092915050565b600062000345838362000317565b9150826002028217905092915050565b6200036082620000db565b67ffffffffffffffff8111156200037c576200037b620000e6565b5b62000388825462000144565b62000395828285620002ba565b600060209050601f831160018114620003cd5760008415620003b8578287015190505b620003c4858262000337565b86555062000434565b601f198416620003dd8662000179565b60005b828110156200040757848901518255600182019150602085019450602081019050620003e0565b8683101562000427578489015162000423601f89168262000317565b8355505b6001600288020188555050505b505050505050565b61454a806200044c6000396000f3fe60806040526004361061014b5760003560e01c8063a22cb465116100b6578063c4e41b221161006f578063c4e41b2214610498578063c87b56dd146104c3578063cad7d03314610500578063d8bb62231461052b578063e985e9c514610554578063f79d91ae146105915761014b565b8063a22cb465146103a6578063b06c75a5146103cf578063b88d4fde146103eb578063b8fe6abe14610414578063bf4a9af31461043f578063c046372c1461045b5761014b565b806342842e0e1161010857806342842e0e146102705780636352211e146102995780636a3ceff9146102d657806370a08231146103135780638cc0f3211461035057806395d89b411461037b5761014b565b806301ffc9a71461015057806306fdde031461018d578063081812fc146101b8578063095ea7b3146101f557806323b872dd1461021e5780632769b96b14610247575b600080fd5b34801561015c57600080fd5b5061017760048036038101906101729190612b9a565b6105ba565b6040516101849190612be2565b60405180910390f35b34801561019957600080fd5b506101a261069c565b6040516101af9190612c8d565b60405180910390f35b3480156101c457600080fd5b506101df60048036038101906101da9190612ce5565b61072e565b6040516101ec9190612d53565b60405180910390f35b34801561020157600080fd5b5061021c60048036038101906102179190612d9a565b610774565b005b34801561022a57600080fd5b5061024560048036038101906102409190612dda565b61088b565b005b34801561025357600080fd5b5061026e60048036038101906102699190612e2d565b6108eb565b005b34801561027c57600080fd5b5061029760048036038101906102929190612dda565b6109e7565b005b3480156102a557600080fd5b506102c060048036038101906102bb9190612ce5565b610a07565b6040516102cd9190612d53565b60405180910390f35b3480156102e257600080fd5b506102fd60048036038101906102f89190612ce5565b610a8d565b60405161030a9190612f01565b60405180910390f35b34801561031f57600080fd5b5061033a60048036038101906103359190612f1c565b610b8b565b6040516103479190612f58565b60405180910390f35b34801561035c57600080fd5b50610365610c42565b6040516103729190613077565b60405180910390f35b34801561038757600080fd5b50610390610ddf565b60405161039d9190612c8d565b60405180910390f35b3480156103b257600080fd5b506103cd60048036038101906103c891906130c5565b610e71565b005b6103e960048036038101906103e49190612ce5565b610e87565b005b3480156103f757600080fd5b50610412600480360381019061040d919061323a565b611098565b005b34801561042057600080fd5b506104296110fa565b6040516104369190612f58565b60405180910390f35b61045960048036038101906104549190612ce5565b611104565b005b34801561046757600080fd5b50610482600480360381019061047d919061335e565b611353565b60405161048f9190612f58565b60405180910390f35b3480156104a457600080fd5b506104ad61147d565b6040516104ba9190612f58565b60405180910390f35b3480156104cf57600080fd5b506104ea60048036038101906104e59190612ce5565b61148e565b6040516104f79190612c8d565b60405180910390f35b34801561050c57600080fd5b506105156115a0565b6040516105229190613077565b60405180910390f35b34801561053757600080fd5b50610552600480360381019061054d9190612ce5565b61177c565b005b34801561056057600080fd5b5061057b600480360381019061057691906133ba565b6118a8565b6040516105889190612be2565b60405180910390f35b34801561059d57600080fd5b506105b860048036038101906105b39190612ce5565b61193c565b005b60007f80ac58cd000000000000000000000000000000000000000000000000000000007bffffffffffffffffffffffffffffffffffffffffffffffffffffffff1916827bffffffffffffffffffffffffffffffffffffffffffffffffffffffff1916148061068557507f5b5e139f000000000000000000000000000000000000000000000000000000007bffffffffffffffffffffffffffffffffffffffffffffffffffffffff1916827bffffffffffffffffffffffffffffffffffffffffffffffffffffffff1916145b80610695575061069482611a1b565b5b9050919050565b6060600080546106ab90613429565b80601f01602080910402602001604051908101604052809291908181526020018280546106d790613429565b80156107245780601f106106f957610100808354040283529160200191610724565b820191906000526020600020905b81548152906001019060200180831161070757829003601f168201915b5050505050905090565b600061073982611a85565b6004600083815260200190815260200160002060009054906101000a900473ffffffffffffffffffffffffffffffffffffffff169050919050565b600061077f82610a07565b90508073ffffffffffffffffffffffffffffffffffffffff168373ffffffffffffffffffffffffffffffffffffffff16036107ef576040517f08c379a00000000000000000000000000000000000000000000000000000000081526004016107e6906134cc565b60405180910390fd5b8073ffffffffffffffffffffffffffffffffffffffff1661080e611ad0565b73ffffffffffffffffffffffffffffffffffffffff16148061083d575061083c81610837611ad0565b6118a8565b5b61087c576040517f08c379a00000000000000000000000000000000000000000000000000000000081526004016108739061355e565b60405180910390fd5b6108868383611ad8565b505050565b61089c610896611ad0565b82611b91565b6108db576040517f08c379a00000000000000000000000000000000000000000000000000000000081526004016108d2906135f0565b60405180910390fd5b6108e6838383611c26565b505050565b806000811161092f576040517f08c379a000000000000000000000000000000000000000000000000000000000815260040161092690613682565b60405180910390fd5b6000600c600085815260200190815260200160002090503373ffffffffffffffffffffffffffffffffffffffff168160010160009054906101000a900473ffffffffffffffffffffffffffffffffffffffff1673ffffffffffffffffffffffffffffffffffffffff16146109d8576040517f08c379a00000000000000000000000000000000000000000000000000000000081526004016109cf90613714565b60405180910390fd5b82816002018190555050505050565b610a0283838360405180602001604052806000815250611098565b505050565b600080610a1383611f1f565b9050600073ffffffffffffffffffffffffffffffffffffffff168173ffffffffffffffffffffffffffffffffffffffff1603610a84576040517f08c379a0000000000000000000000000000000000000000000000000000000008152600401610a7b90613780565b60405180910390fd5b80915050919050565b610a95612aee565b610a9f6007611f5c565b821115610ae1576040517f08c379a0000000000000000000000000000000000000000000000000000000008152600401610ad8906137ec565b60405180910390fd5b600c6000838152602001908152602001600020604051806080016040529081600082015481526020016001820160009054906101000a900473ffffffffffffffffffffffffffffffffffffffff1673ffffffffffffffffffffffffffffffffffffffff1673ffffffffffffffffffffffffffffffffffffffff168152602001600282015481526020016003820160009054906101000a900460ff1615151515815250509050919050565b60008073ffffffffffffffffffffffffffffffffffffffff168273ffffffffffffffffffffffffffffffffffffffff1603610bfb576040517f08c379a0000000000000000000000000000000000000000000000000000000008152600401610bf29061387e565b60405180910390fd5b600360008373ffffffffffffffffffffffffffffffffffffffff1673ffffffffffffffffffffffffffffffffffffffff168152602001908152602001600020549050919050565b60606000610c506007611f5c565b9050600080610c5f6008611f5c565b67ffffffffffffffff811115610c7857610c7761310f565b5b604051908082528060200260200182016040528015610cb157816020015b610c9e612aee565b815260200190600190039081610c965790505b5090506000600190505b838111610dd55760011515600c600083815260200190815260200160002060030160009054906101000a900460ff16151503610dc257600c6000828152602001908152602001600020604051806080016040529081600082015481526020016001820160009054906101000a900473ffffffffffffffffffffffffffffffffffffffff1673ffffffffffffffffffffffffffffffffffffffff1673ffffffffffffffffffffffffffffffffffffffff168152602001600282015481526020016003820160009054906101000a900460ff161515151581525050828481518110610da757610da661389e565b5b6020026020010181905250600183610dbf91906138fc565b92505b8080610dcd90613930565b915050610cbb565b5080935050505090565b606060018054610dee90613429565b80601f0160208091040260200160405190810160405280929190818152602001828054610e1a90613429565b8015610e675780601f10610e3c57610100808354040283529160200191610e67565b820191906000526020600020905b815481529060010190602001808311610e4a57829003601f168201915b5050505050905090565b610e83610e7c611ad0565b8383611f6a565b5050565b6009543414610ecb576040517f08c379a0000000000000000000000000000000000000000000000000000000008152600401610ec2906139ea565b60405180910390fd5b6000600c600083815260200190815260200160002090503373ffffffffffffffffffffffffffffffffffffffff168160010160009054906101000a900473ffffffffffffffffffffffffffffffffffffffff1673ffffffffffffffffffffffffffffffffffffffff1614610f74576040517f08c379a0000000000000000000000000000000000000000000000000000000008152600401610f6b90613714565b60405180910390fd5b600015158160030160009054906101000a900460ff16151514610fcc576040517f08c379a0000000000000000000000000000000000000000000000000000000008152600401610fc390613a56565b60405180910390fd5b60018160030160006101000a81548160ff021916908315150217905550600a60009054906101000a900473ffffffffffffffffffffffffffffffffffffffff1673ffffffffffffffffffffffffffffffffffffffff166108fc349081150290604051600060405180830381858888f19350505050158015611051573d6000803e3d6000fd5b5061105c60086120d6565b817ffc2228182130d0f674b619553d74e4857ec7c974d15f68ab1a61f5cf52eeef933360405161108c9190612d53565b60405180910390a25050565b6110a96110a3611ad0565b83611b91565b6110e8576040517f08c379a00000000000000000000000000000000000000000000000000000000081526004016110df906135f0565b60405180910390fd5b6110f4848484846120ec565b50505050565b6000600954905090565b6000600c6000838152602001908152602001600020905080600201543414611161576040517f08c379a000000000000000000000000000000000000000000000000000000000815260040161115890613ac2565b60405180910390fd5b8060010160009054906101000a900473ffffffffffffffffffffffffffffffffffffffff1673ffffffffffffffffffffffffffffffffffffffff163373ffffffffffffffffffffffffffffffffffffffff16036111f3576040517f08c379a00000000000000000000000000000000000000000000000000000000081526004016111ea90613b2e565b60405180910390fd5b600115158160030160009054906101000a900460ff1615151461124b576040517f08c379a000000000000000000000000000000000000000000000000000000000815260040161124290613b9a565b60405180910390fd5b61127a8160010160009054906101000a900473ffffffffffffffffffffffffffffffffffffffff163384611c26565b8060010160009054906101000a900473ffffffffffffffffffffffffffffffffffffffff1673ffffffffffffffffffffffffffffffffffffffff166108fc349081150290604051600060405180830381858888f193505050501580156112e4573d6000803e3d6000fd5b506112ef6008612148565b338160010160006101000a81548173ffffffffffffffffffffffffffffffffffffffff021916908373ffffffffffffffffffffffffffffffffffffffff16021790555060008160030160006101000a81548160ff0219169083151502179055505050565b60008160008111611399576040517f08c379a000000000000000000000000000000000000000000000000000000000815260040161139090613682565b60405180910390fd5b600b846040516113a99190613bf6565b908152602001604051809103902060009054906101000a900460ff1615611405576040517f08c379a00000000000000000000000000000000000000000000000000000000081526004016113fc90613c59565b60405180910390fd5b61140f60076120d6565b600061141b6007611f5c565b905061142733826121a4565b61143181866123c1565b6001600b866040516114439190613bf6565b908152602001604051809103902060006101000a81548160ff021916908315150217905550611472818561242e565b809250505092915050565b60006114896007611f5c565b905090565b606061149982611a85565b60006006600084815260200190815260200160002080546114b990613429565b80601f01602080910402602001604051908101604052809291908181526020018280546114e590613429565b80156115325780601f1061150757610100808354040283529160200191611532565b820191906000526020600020905b81548152906001019060200180831161151557829003601f168201915b505050505090506000611543612537565b9050600081510361155857819250505061159b565b60008251111561158d578082604051602001611575929190613c79565b6040516020818303038152906040529250505061159b565b6115968461254e565b925050505b919050565b606060006115ae6007611f5c565b905060006115bb33610b8b565b90506000808267ffffffffffffffff8111156115da576115d961310f565b5b60405190808252806020026020018201604052801561161357816020015b611600612aee565b8152602001906001900390816115f85790505b5090506000600190505b848111611771573373ffffffffffffffffffffffffffffffffffffffff16600c600083815260200190815260200160002060010160009054906101000a900473ffffffffffffffffffffffffffffffffffffffff1673ffffffffffffffffffffffffffffffffffffffff160361175e57600c6000828152602001908152602001600020604051806080016040529081600082015481526020016001820160009054906101000a900473ffffffffffffffffffffffffffffffffffffffff1673ffffffffffffffffffffffffffffffffffffffff1673ffffffffffffffffffffffffffffffffffffffff168152602001600282015481526020016003820160009054906101000a900460ff1615151515815250508284815181106117435761174261389e565b5b602002602001018190525060018361175b91906138fc565b92505b808061176990613930565b91505061161d565b508094505050505090565b6000600c600083815260200190815260200160002090503373ffffffffffffffffffffffffffffffffffffffff168160010160009054906101000a900473ffffffffffffffffffffffffffffffffffffffff1673ffffffffffffffffffffffffffffffffffffffff1614611825576040517f08c379a000000000000000000000000000000000000000000000000000000000815260040161181c90613714565b60405180910390fd5b600115158160030160009054906101000a900460ff1615151461187d576040517f08c379a000000000000000000000000000000000000000000000000000000000815260040161187490613b9a565b60405180910390fd5b60008160030160006101000a81548160ff0219169083151502179055506118a46008612148565b5050565b6000600560008473ffffffffffffffffffffffffffffffffffffffff1673ffffffffffffffffffffffffffffffffffffffff16815260200190815260200160002060008373ffffffffffffffffffffffffffffffffffffffff1673ffffffffffffffffffffffffffffffffffffffff16815260200190815260200160002060009054906101000a900460ff16905092915050565b600a60009054906101000a900473ffffffffffffffffffffffffffffffffffffffff1673ffffffffffffffffffffffffffffffffffffffff163373ffffffffffffffffffffffffffffffffffffffff16146119cc576040517f08c379a00000000000000000000000000000000000000000000000000000000081526004016119c390613d0f565b60405180910390fd5b8060008111611a10576040517f08c379a0000000000000000000000000000000000000000000000000000000008152600401611a0790613682565b60405180910390fd5b816009819055505050565b60007f01ffc9a7000000000000000000000000000000000000000000000000000000007bffffffffffffffffffffffffffffffffffffffffffffffffffffffff1916827bffffffffffffffffffffffffffffffffffffffffffffffffffffffff1916149050919050565b611a8e816125b6565b611acd576040517f08c379a0000000000000000000000000000000000000000000000000000000008152600401611ac490613780565b60405180910390fd5b50565b600033905090565b816004600083815260200190815260200160002060006101000a81548173ffffffffffffffffffffffffffffffffffffffff021916908373ffffffffffffffffffffffffffffffffffffffff160217905550808273ffffffffffffffffffffffffffffffffffffffff16611b4b83610a07565b73ffffffffffffffffffffffffffffffffffffffff167f8c5be1e5ebec7d5bd14f71427d1e84f3dd0314c0f7b2291e5b200ac8c7c3b92560405160405180910390a45050565b600080611b9d83610a07565b90508073ffffffffffffffffffffffffffffffffffffffff168473ffffffffffffffffffffffffffffffffffffffff161480611bdf5750611bde81856118a8565b5b80611c1d57508373ffffffffffffffffffffffffffffffffffffffff16611c058461072e565b73ffffffffffffffffffffffffffffffffffffffff16145b91505092915050565b8273ffffffffffffffffffffffffffffffffffffffff16611c4682610a07565b73ffffffffffffffffffffffffffffffffffffffff1614611c9c576040517f08c379a0000000000000000000000000000000000000000000000000000000008152600401611c9390613da1565b60405180910390fd5b600073ffffffffffffffffffffffffffffffffffffffff168273ffffffffffffffffffffffffffffffffffffffff1603611d0b576040517f08c379a0000000000000000000000000000000000000000000000000000000008152600401611d0290613e33565b60405180910390fd5b611d1883838360016125f7565b8273ffffffffffffffffffffffffffffffffffffffff16611d3882610a07565b73ffffffffffffffffffffffffffffffffffffffff1614611d8e576040517f08c379a0000000000000000000000000000000000000000000000000000000008152600401611d8590613da1565b60405180910390fd5b6004600082815260200190815260200160002060006101000a81549073ffffffffffffffffffffffffffffffffffffffff02191690556001600360008573ffffffffffffffffffffffffffffffffffffffff1673ffffffffffffffffffffffffffffffffffffffff168152602001908152602001600020600082825403925050819055506001600360008473ffffffffffffffffffffffffffffffffffffffff1673ffffffffffffffffffffffffffffffffffffffff16815260200190815260200160002060008282540192505081905550816002600083815260200190815260200160002060006101000a81548173ffffffffffffffffffffffffffffffffffffffff021916908373ffffffffffffffffffffffffffffffffffffffff160217905550808273ffffffffffffffffffffffffffffffffffffffff168473ffffffffffffffffffffffffffffffffffffffff167fddf252ad1be2c89b69c2b068fc378daa952ba7f163c4a11628f55a4df523b3ef60405160405180910390a4611f1a838383600161271d565b505050565b60006002600083815260200190815260200160002060009054906101000a900473ffffffffffffffffffffffffffffffffffffffff169050919050565b600081600001549050919050565b8173ffffffffffffffffffffffffffffffffffffffff168373ffffffffffffffffffffffffffffffffffffffff1603611fd8576040517f08c379a0000000000000000000000000000000000000000000000000000000008152600401611fcf90613e9f565b60405180910390fd5b80600560008573ffffffffffffffffffffffffffffffffffffffff1673ffffffffffffffffffffffffffffffffffffffff16815260200190815260200160002060008473ffffffffffffffffffffffffffffffffffffffff1673ffffffffffffffffffffffffffffffffffffffff16815260200190815260200160002060006101000a81548160ff0219169083151502179055508173ffffffffffffffffffffffffffffffffffffffff168373ffffffffffffffffffffffffffffffffffffffff167f17307eab39ab6107e8899845ad3d59bd9653f200f220920489ca2b5937696c31836040516120c99190612be2565b60405180910390a3505050565b6001816000016000828254019250508190555050565b6120f7848484611c26565b61210384848484612723565b612142576040517f08c379a000000000000000000000000000000000000000000000000000000000815260040161213990613f31565b60405180910390fd5b50505050565b60008160000154905060008111612194576040517f08c379a000000000000000000000000000000000000000000000000000000000815260040161218b90613f9d565b60405180910390fd5b6001810382600001819055505050565b600073ffffffffffffffffffffffffffffffffffffffff168273ffffffffffffffffffffffffffffffffffffffff1603612213576040517f08c379a000000000000000000000000000000000000000000000000000000000815260040161220a90614009565b60405180910390fd5b61221c816125b6565b1561225c576040517f08c379a000000000000000000000000000000000000000000000000000000000815260040161225390614075565b60405180910390fd5b61226a6000838360016125f7565b612273816125b6565b156122b3576040517f08c379a00000000000000000000000000000000000000000000000000000000081526004016122aa90614075565b60405180910390fd5b6001600360008473ffffffffffffffffffffffffffffffffffffffff1673ffffffffffffffffffffffffffffffffffffffff16815260200190815260200160002060008282540192505081905550816002600083815260200190815260200160002060006101000a81548173ffffffffffffffffffffffffffffffffffffffff021916908373ffffffffffffffffffffffffffffffffffffffff160217905550808273ffffffffffffffffffffffffffffffffffffffff16600073ffffffffffffffffffffffffffffffffffffffff167fddf252ad1be2c89b69c2b068fc378daa952ba7f163c4a11628f55a4df523b3ef60405160405180910390a46123bd60008383600161271d565b5050565b6123ca826125b6565b612409576040517f08c379a000000000000000000000000000000000000000000000000000000000815260040161240090614107565b60405180910390fd5b8060066000848152602001908152602001600020908161242991906142d3565b505050565b60405180608001604052808381526020013373ffffffffffffffffffffffffffffffffffffffff16815260200182815260200160001515815250600c60008481526020019081526020016000206000820151816000015560208201518160010160006101000a81548173ffffffffffffffffffffffffffffffffffffffff021916908373ffffffffffffffffffffffffffffffffffffffff1602179055506040820151816002015560608201518160030160006101000a81548160ff021916908315150217905550905050817f514c24c8ee4b93da490be3290ea196fe2c3ef098756574c5f1593cdc39d5e48a338360405161252b9291906143a5565b60405180910390a25050565b606060405180602001604052806000815250905090565b606061255982611a85565b6000612563612537565b9050600081511161258357604051806020016040528060008152506125ae565b8061258d846128aa565b60405160200161259e929190613c79565b6040516020818303038152906040525b915050919050565b60008073ffffffffffffffffffffffffffffffffffffffff166125d883611f1f565b73ffffffffffffffffffffffffffffffffffffffff1614159050919050565b600181111561271757600073ffffffffffffffffffffffffffffffffffffffff168473ffffffffffffffffffffffffffffffffffffffff161461268b5780600360008673ffffffffffffffffffffffffffffffffffffffff1673ffffffffffffffffffffffffffffffffffffffff168152602001908152602001600020600082825461268391906143ce565b925050819055505b600073ffffffffffffffffffffffffffffffffffffffff168373ffffffffffffffffffffffffffffffffffffffff16146127165780600360008573ffffffffffffffffffffffffffffffffffffffff1673ffffffffffffffffffffffffffffffffffffffff168152602001908152602001600020600082825461270e91906138fc565b925050819055505b5b50505050565b50505050565b60006127448473ffffffffffffffffffffffffffffffffffffffff16612978565b1561289d578373ffffffffffffffffffffffffffffffffffffffff1663150b7a0261276d611ad0565b8786866040518563ffffffff1660e01b815260040161278f9493929190614457565b6020604051808303816000875af19250505080156127cb57506040513d601f19601f820116820180604052508101906127c891906144b8565b60015b61284d573d80600081146127fb576040519150601f19603f3d011682016040523d82523d6000602084013e612800565b606091505b506000815103612845576040517f08c379a000000000000000000000000000000000000000000000000000000000815260040161283c90613f31565b60405180910390fd5b805181602001fd5b63150b7a0260e01b7bffffffffffffffffffffffffffffffffffffffffffffffffffffffff1916817bffffffffffffffffffffffffffffffffffffffffffffffffffffffff1916149150506128a2565b600190505b949350505050565b6060600060016128b98461299b565b01905060008167ffffffffffffffff8111156128d8576128d761310f565b5b6040519080825280601f01601f19166020018201604052801561290a5781602001600182028036833780820191505090505b509050600082602001820190505b60011561296d578080600190039150507f3031323334353637383961626364656600000000000000000000000000000000600a86061a8153600a8581612961576129606144e5565b5b04945060008503612918575b819350505050919050565b6000808273ffffffffffffffffffffffffffffffffffffffff163b119050919050565b600080600090507a184f03e93ff9f4daa797ed6e38ed64bf6a1f01000000000000000083106129f9577a184f03e93ff9f4daa797ed6e38ed64bf6a1f01000000000000000083816129ef576129ee6144e5565b5b0492506040810190505b6d04ee2d6d415b85acef81000000008310612a36576d04ee2d6d415b85acef81000000008381612a2c57612a2b6144e5565b5b0492506020810190505b662386f26fc100008310612a6557662386f26fc100008381612a5b57612a5a6144e5565b5b0492506010810190505b6305f5e1008310612a8e576305f5e1008381612a8457612a836144e5565b5b0492506008810190505b6127108310612ab3576127108381612aa957612aa86144e5565b5b0492506004810190505b60648310612ad65760648381612acc57612acb6144e5565b5b0492506002810190505b600a8310612ae5576001810190505b80915050919050565b604051806080016040528060008152602001600073ffffffffffffffffffffffffffffffffffffffff168152602001600081526020016000151581525090565b6000604051905090565b600080fd5b600080fd5b60007fffffffff0000000000000000000000000000000000000000000000000000000082169050919050565b612b7781612b42565b8114612b8257600080fd5b50565b600081359050612b9481612b6e565b92915050565b600060208284031215612bb057612baf612b38565b5b6000612bbe84828501612b85565b91505092915050565b60008115159050919050565b612bdc81612bc7565b82525050565b6000602082019050612bf76000830184612bd3565b92915050565b600081519050919050565b600082825260208201905092915050565b60005b83811015612c37578082015181840152602081019050612c1c565b60008484015250505050565b6000601f19601f8301169050919050565b6000612c5f82612bfd565b612c698185612c08565b9350612c79818560208601612c19565b612c8281612c43565b840191505092915050565b60006020820190508181036000830152612ca78184612c54565b905092915050565b6000819050919050565b612cc281612caf565b8114612ccd57600080fd5b50565b600081359050612cdf81612cb9565b92915050565b600060208284031215612cfb57612cfa612b38565b5b6000612d0984828501612cd0565b91505092915050565b600073ffffffffffffffffffffffffffffffffffffffff82169050919050565b6000612d3d82612d12565b9050919050565b612d4d81612d32565b82525050565b6000602082019050612d686000830184612d44565b92915050565b612d7781612d32565b8114612d8257600080fd5b50565b600081359050612d9481612d6e565b92915050565b60008060408385031215612db157612db0612b38565b5b6000612dbf85828601612d85565b9250506020612dd085828601612cd0565b9150509250929050565b600080600060608486031215612df357612df2612b38565b5b6000612e0186828701612d85565b9350506020612e1286828701612d85565b9250506040612e2386828701612cd0565b9150509250925092565b60008060408385031215612e4457612e43612b38565b5b6000612e5285828601612cd0565b9250506020612e6385828601612cd0565b9150509250929050565b612e7681612caf565b82525050565b6000612e8782612d12565b9050919050565b612e9781612e7c565b82525050565b612ea681612bc7565b82525050565b608082016000820151612ec26000850182612e6d565b506020820151612ed56020850182612e8e565b506040820151612ee86040850182612e6d565b506060820151612efb6060850182612e9d565b50505050565b6000608082019050612f166000830184612eac565b92915050565b600060208284031215612f3257612f31612b38565b5b6000612f4084828501612d85565b91505092915050565b612f5281612caf565b82525050565b6000602082019050612f6d6000830184612f49565b92915050565b600081519050919050565b600082825260208201905092915050565b6000819050602082019050919050565b608082016000820151612fb56000850182612e6d565b506020820151612fc86020850182612e8e565b506040820151612fdb6040850182612e6d565b506060820151612fee6060850182612e9d565b50505050565b60006130008383612f9f565b60808301905092915050565b6000602082019050919050565b600061302482612f73565b61302e8185612f7e565b935061303983612f8f565b8060005b8381101561306a5781516130518882612ff4565b975061305c8361300c565b92505060018101905061303d565b5085935050505092915050565b600060208201905081810360008301526130918184613019565b905092915050565b6130a281612bc7565b81146130ad57600080fd5b50565b6000813590506130bf81613099565b92915050565b600080604083850312156130dc576130db612b38565b5b60006130ea85828601612d85565b92505060206130fb858286016130b0565b9150509250929050565b600080fd5b600080fd5b7f4e487b7100000000000000000000000000000000000000000000000000000000600052604160045260246000fd5b61314782612c43565b810181811067ffffffffffffffff821117156131665761316561310f565b5b80604052505050565b6000613179612b2e565b9050613185828261313e565b919050565b600067ffffffffffffffff8211156131a5576131a461310f565b5b6131ae82612c43565b9050602081019050919050565b82818337600083830152505050565b60006131dd6131d88461318a565b61316f565b9050828152602081018484840111156131f9576131f861310a565b5b6132048482856131bb565b509392505050565b600082601f83011261322157613220613105565b5b81356132318482602086016131ca565b91505092915050565b6000806000806080858703121561325457613253612b38565b5b600061326287828801612d85565b945050602061327387828801612d85565b935050604061328487828801612cd0565b925050606085013567ffffffffffffffff8111156132a5576132a4612b3d565b5b6132b18782880161320c565b91505092959194509250565b600067ffffffffffffffff8211156132d8576132d761310f565b5b6132e182612c43565b9050602081019050919050565b60006133016132fc846132bd565b61316f565b90508281526020810184848401111561331d5761331c61310a565b5b6133288482856131bb565b509392505050565b600082601f83011261334557613344613105565b5b81356133558482602086016132ee565b91505092915050565b6000806040838503121561337557613374612b38565b5b600083013567ffffffffffffffff81111561339357613392612b3d565b5b61339f85828601613330565b92505060206133b085828601612cd0565b9150509250929050565b600080604083850312156133d1576133d0612b38565b5b60006133df85828601612d85565b92505060206133f085828601612d85565b9150509250929050565b7f4e487b7100000000000000000000000000000000000000000000000000000000600052602260045260246000fd5b6000600282049050600182168061344157607f821691505b602082108103613454576134536133fa565b5b50919050565b7f4552433732313a20617070726f76616c20746f2063757272656e74206f776e6560008201527f7200000000000000000000000000000000000000000000000000000000000000602082015250565b60006134b6602183612c08565b91506134c18261345a565b604082019050919050565b600060208201905081810360008301526134e5816134a9565b9050919050565b7f4552433732313a20617070726f76652063616c6c6572206973206e6f7420746f60008201527f6b656e206f776e6572206f7220617070726f76656420666f7220616c6c000000602082015250565b6000613548603d83612c08565b9150613553826134ec565b604082019050919050565b600060208201905081810360008301526135778161353b565b9050919050565b7f4552433732313a2063616c6c6572206973206e6f7420746f6b656e206f776e6560008201527f72206f7220617070726f76656400000000000000000000000000000000000000602082015250565b60006135da602d83612c08565b91506135e58261357e565b604082019050919050565b60006020820190508181036000830152613609816135cd565b9050919050565b7f496e7075742076616c7565206d757374206265206174206c656173742031207760008201527f6569000000000000000000000000000000000000000000000000000000000000602082015250565b600061366c602283612c08565b915061367782613610565b604082019050919050565b6000602082019050818103600083015261369b8161365f565b9050919050565b7f4f6e6c79204e4654206974656d206f776e65722063616e2063616c6c2074686960008201527f732066756e630000000000000000000000000000000000000000000000000000602082015250565b60006136fe602683612c08565b9150613709826136a2565b604082019050919050565b6000602082019050818103600083015261372d816136f1565b9050919050565b7f4552433732313a20696e76616c696420746f6b656e2049440000000000000000600082015250565b600061376a601883612c08565b915061377582613734565b602082019050919050565b600060208201905081810360008301526137998161375d565b9050919050565b7f546f6b656e20696420696e76616c696400000000000000000000000000000000600082015250565b60006137d6601083612c08565b91506137e1826137a0565b602082019050919050565b60006020820190508181036000830152613805816137c9565b9050919050565b7f4552433732313a2061646472657373207a65726f206973206e6f74206120766160008201527f6c6964206f776e65720000000000000000000000000000000000000000000000602082015250565b6000613868602983612c08565b91506138738261380c565b604082019050919050565b600060208201905081810360008301526138978161385b565b9050919050565b7f4e487b7100000000000000000000000000000000000000000000000000000000600052603260045260246000fd5b7f4e487b7100000000000000000000000000000000000000000000000000000000600052601160045260246000fd5b600061390782612caf565b915061391283612caf565b925082820190508082111561392a576139296138cd565b5b92915050565b600061393b82612caf565b91507fffffffffffffffffffffffffffffffffffffffffffffffffffffffffffffffff820361396d5761396c6138cd565b5b600182019050919050565b7f4d616b652073757265207375626d69742076616c7565203d3d206c697374696e60008201527f6720707269636500000000000000000000000000000000000000000000000000602082015250565b60006139d4602783612c08565b91506139df82613978565b604082019050919050565b60006020820190508181036000830152613a03816139c7565b9050919050565b7f4e465420776173206c6973746564000000000000000000000000000000000000600082015250565b6000613a40600e83612c08565b9150613a4b82613a0a565b602082019050919050565b60006020820190508181036000830152613a6f81613a33565b9050919050565b7f4d616b652073757265207375626d69742076616c7565203d3d20707269636500600082015250565b6000613aac601f83612c08565b9150613ab782613a76565b602082019050919050565b60006020820190508181036000830152613adb81613a9f565b9050919050565b7f4d616b65207375726520627579657220213d206f776e65720000000000000000600082015250565b6000613b18601883612c08565b9150613b2382613ae2565b602082019050919050565b60006020820190508181036000830152613b4781613b0b565b9050919050565b7f4e4654204974656d206973206e6f74206c697374696e67000000000000000000600082015250565b6000613b84601783612c08565b9150613b8f82613b4e565b602082019050919050565b60006020820190508181036000830152613bb381613b77565b9050919050565b600081905092915050565b6000613bd082612bfd565b613bda8185613bba565b9350613bea818560208601612c19565b80840191505092915050565b6000613c028284613bc5565b915081905092915050565b7f746f6b656e555249206973206578697374730000000000000000000000000000600082015250565b6000613c43601283612c08565b9150613c4e82613c0d565b602082019050919050565b60006020820190508181036000830152613c7281613c36565b9050919050565b6000613c858285613bc5565b9150613c918284613bc5565b91508190509392505050565b7f6f6e6c79206f776e65722063616e2063616c6c20746869732066756e6374696f60008201527f6e00000000000000000000000000000000000000000000000000000000000000602082015250565b6000613cf9602183612c08565b9150613d0482613c9d565b604082019050919050565b60006020820190508181036000830152613d2881613cec565b9050919050565b7f4552433732313a207472616e736665722066726f6d20696e636f72726563742060008201527f6f776e6572000000000000000000000000000000000000000000000000000000602082015250565b6000613d8b602583612c08565b9150613d9682613d2f565b604082019050919050565b60006020820190508181036000830152613dba81613d7e565b9050919050565b7f4552433732313a207472616e7366657220746f20746865207a65726f2061646460008201527f7265737300000000000000000000000000000000000000000000000000000000602082015250565b6000613e1d602483612c08565b9150613e2882613dc1565b604082019050919050565b60006020820190508181036000830152613e4c81613e10565b9050919050565b7f4552433732313a20617070726f766520746f2063616c6c657200000000000000600082015250565b6000613e89601983612c08565b9150613e9482613e53565b602082019050919050565b60006020820190508181036000830152613eb881613e7c565b9050919050565b7f4552433732313a207472616e7366657220746f206e6f6e20455243373231526560008201527f63656976657220696d706c656d656e7465720000000000000000000000000000602082015250565b6000613f1b603283612c08565b9150613f2682613ebf565b604082019050919050565b60006020820190508181036000830152613f4a81613f0e565b9050919050565b7f436f756e7465723a2064656372656d656e74206f766572666c6f770000000000600082015250565b6000613f87601b83612c08565b9150613f9282613f51565b602082019050919050565b60006020820190508181036000830152613fb681613f7a565b9050919050565b7f4552433732313a206d696e7420746f20746865207a65726f2061646472657373600082015250565b6000613ff3602083612c08565b9150613ffe82613fbd565b602082019050919050565b6000602082019050818103600083015261402281613fe6565b9050919050565b7f4552433732313a20746f6b656e20616c7265616479206d696e74656400000000600082015250565b600061405f601c83612c08565b915061406a82614029565b602082019050919050565b6000602082019050818103600083015261408e81614052565b9050919050565b7f45524337323155524953746f726167653a2055524920736574206f66206e6f6e60008201527f6578697374656e7420746f6b656e000000000000000000000000000000000000602082015250565b60006140f1602e83612c08565b91506140fc82614095565b604082019050919050565b60006020820190508181036000830152614120816140e4565b9050919050565b60008190508160005260206000209050919050565b60006020601f8301049050919050565b600082821b905092915050565b6000600883026141897fffffffffffffffffffffffffffffffffffffffffffffffffffffffffffffffff8261414c565b614193868361414c565b95508019841693508086168417925050509392505050565b6000819050919050565b60006141d06141cb6141c684612caf565b6141ab565b612caf565b9050919050565b6000819050919050565b6141ea836141b5565b6141fe6141f6826141d7565b848454614159565b825550505050565b600090565b614213614206565b61421e8184846141e1565b505050565b5b818110156142425761423760008261420b565b600181019050614224565b5050565b601f8211156142875761425881614127565b6142618461413c565b81016020851015614270578190505b61428461427c8561413c565b830182614223565b50505b505050565b600082821c905092915050565b60006142aa6000198460080261428c565b1980831691505092915050565b60006142c38383614299565b9150826002028217905092915050565b6142dc82612bfd565b67ffffffffffffffff8111156142f5576142f461310f565b5b6142ff8254613429565b61430a828285614246565b600060209050601f83116001811461433d576000841561432b578287015190505b61433585826142b7565b86555061439d565b601f19841661434b86614127565b60005b828110156143735784890151825560018201915060208501945060208101905061434e565b86831015614390578489015161438c601f891682614299565b8355505b6001600288020188555050505b505050505050565b60006040820190506143ba6000830185612d44565b6143c76020830184612f49565b9392505050565b60006143d982612caf565b91506143e483612caf565b92508282039050818111156143fc576143fb6138cd565b5b92915050565b600081519050919050565b600082825260208201905092915050565b600061442982614402565b614433818561440d565b9350614443818560208601612c19565b61444c81612c43565b840191505092915050565b600060808201905061446c6000830187612d44565b6144796020830186612d44565b6144866040830185612f49565b8181036060830152614498818461441e565b905095945050505050565b6000815190506144b281612b6e565b92915050565b6000602082840312156144ce576144cd612b38565b5b60006144dc848285016144a3565b91505092915050565b7f4e487b7100000000000000000000000000000000000000000000000000000000600052601260045260246000fdfea2646970667358221220ca1636dd4dae191f3cd064c590b545d5979af6c3e87bbbdf243377546accf48264736f6c63430008110033",
  "linkReferences": {},
  "deployedLinkReferences": {}
}