{
  "_format": "hh-sol-artifact-1",
  "contractName": "NFTMarketplace",
  "sourceName": "contracts/NFTMarketplace.sol",
  "abi": [
    {
      "inputs": [],
      "stateMutability": "nonpayable",
      "type": "constructor"
    },
    {
      "anonymous": false,
      "inputs": [
        {
          "indexed": true,
          "internalType": "address",
          "name": "owner",
          "type": "address"
        },
        {
          "indexed": true,
          "internalType": "address",
          "name": "approved",
          "type": "address"
        },
        {
          "indexed": true,
          "internalType": "uint256",
          "name": "tokenId",
          "type": "uint256"
        }
      ],
      "name": "Approval",
      "type": "event"
    },
    {
      "anonymous": false,
      "inputs": [
        {
          "indexed": true,
          "internalType": "address",
          "name": "owner",
          "type": "address"
        },
        {
          "indexed": true,
          "internalType": "address",
          "name": "operator",
          "type": "address"
        },
        {
          "indexed": false,
          "internalType": "bool",
          "name": "approved",
          "type": "bool"
        }
      ],
      "name": "ApprovalForAll",
      "type": "event"
    },
    {
      "anonymous": false,
      "inputs": [
        {
          "indexed": true,
          "internalType": "uint256",
          "name": "tokenId",
          "type": "uint256"
        },
        {
          "indexed": false,
          "internalType": "address",
          "name": "owner",
          "type": "address"
        }
      ],
      "name": "NftItemCreated",
      "type": "event"
    },
    {
      "anonymous": false,
      "inputs": [
        {
          "indexed": true,
          "internalType": "uint256",
          "name": "tokenId",
          "type": "uint256"
        },
        {
          "indexed": false,
          "internalType": "address",
          "name": "owner",
          "type": "address"
        },
        {
          "indexed": false,
          "internalType": "uint256",
          "name": "price",
          "type": "uint256"
        }
      ],
      "name": "NftItemListed",
      "type": "event"
    },
    {
      "anonymous": false,
      "inputs": [
        {
          "indexed": true,
          "internalType": "uint256",
          "name": "tokenId",
          "type": "uint256"
        },
        {
          "indexed": false,
          "internalType": "address",
          "name": "seller",
          "type": "address"
        },
        {
          "indexed": false,
          "internalType": "address",
          "name": "buyer",
          "type": "address"
        },
        {
          "indexed": false,
          "internalType": "uint256",
          "name": "price",
          "type": "uint256"
        }
      ],
      "name": "NftItemSold",
      "type": "event"
    },
    {
      "anonymous": false,
      "inputs": [
        {
          "indexed": true,
          "internalType": "uint256",
          "name": "tokenId",
          "type": "uint256"
        },
        {
          "indexed": false,
          "internalType": "address",
          "name": "seller",
          "type": "address"
        }
      ],
      "name": "NftItemUnlisted",
      "type": "event"
    },
    {
      "anonymous": false,
      "inputs": [
        {
          "indexed": true,
          "internalType": "uint256",
          "name": "tokenId",
          "type": "uint256"
        },
        {
          "indexed": false,
          "internalType": "address",
          "name": "seller",
          "type": "address"
        },
        {
          "indexed": false,
          "internalType": "uint256",
          "name": "price",
          "type": "uint256"
        }
      ],
      "name": "NftItemUpdatePrice",
      "type": "event"
    },
    {
      "anonymous": false,
      "inputs": [
        {
          "indexed": true,
          "internalType": "address",
          "name": "previousOwner",
          "type": "address"
        },
        {
          "indexed": true,
          "internalType": "address",
          "name": "newOwner",
          "type": "address"
        }
      ],
      "name": "OwnershipTransferred",
      "type": "event"
    },
    {
      "anonymous": false,
      "inputs": [
        {
          "indexed": true,
          "internalType": "address",
          "name": "from",
          "type": "address"
        },
        {
          "indexed": true,
          "internalType": "address",
          "name": "to",
          "type": "address"
        },
        {
          "indexed": true,
          "internalType": "uint256",
          "name": "tokenId",
          "type": "uint256"
        }
      ],
      "name": "Transfer",
      "type": "event"
    },
    {
      "inputs": [
        {
          "internalType": "address",
          "name": "to",
          "type": "address"
        },
        {
          "internalType": "uint256",
          "name": "tokenId",
          "type": "uint256"
        }
      ],
      "name": "approve",
      "outputs": [],
      "stateMutability": "nonpayable",
      "type": "function"
    },
    {
      "inputs": [
        {
          "internalType": "address",
          "name": "owner",
          "type": "address"
        }
      ],
      "name": "balanceOf",
      "outputs": [
        {
          "internalType": "uint256",
          "name": "",
          "type": "uint256"
        }
      ],
      "stateMutability": "view",
      "type": "function"
    },
    {
      "inputs": [
        {
          "internalType": "uint256",
          "name": "tokenId",
          "type": "uint256"
        }
      ],
      "name": "buyNftItem",
      "outputs": [],
      "stateMutability": "payable",
      "type": "function"
    },
    {
      "inputs": [],
      "name": "getAllNFTItem",
      "outputs": [
        {
          "components": [
            {
              "internalType": "uint256",
              "name": "tokenId",
              "type": "uint256"
            },
            {
              "internalType": "address",
              "name": "owner",
              "type": "address"
            },
            {
              "internalType": "address",
              "name": "seller",
              "type": "address"
            },
            {
              "internalType": "uint256",
              "name": "price",
              "type": "uint256"
            }
          ],
          "internalType": "struct NFTMarketplace.NftItem[]",
          "name": "",
          "type": "tuple[]"
        }
      ],
      "stateMutability": "view",
      "type": "function"
    },
    {
      "inputs": [
        {
          "internalType": "uint256",
          "name": "tokenId",
          "type": "uint256"
        }
      ],
      "name": "getApproved",
      "outputs": [
        {
          "internalType": "address",
          "name": "",
          "type": "address"
        }
      ],
      "stateMutability": "view",
      "type": "function"
    },
    {
      "inputs": [],
      "name": "getListingFee",
      "outputs": [
        {
          "internalType": "uint256",
          "name": "",
          "type": "uint256"
        }
      ],
      "stateMutability": "view",
      "type": "function"
    },
    {
      "inputs": [],
      "name": "getMyNFT",
      "outputs": [
        {
          "components": [
            {
              "internalType": "uint256",
              "name": "tokenId",
              "type": "uint256"
            },
            {
              "internalType": "address",
              "name": "owner",
              "type": "address"
            },
            {
              "internalType": "address",
              "name": "seller",
              "type": "address"
            },
            {
              "internalType": "uint256",
              "name": "price",
              "type": "uint256"
            }
          ],
          "internalType": "struct NFTMarketplace.NftItem[]",
          "name": "",
          "type": "tuple[]"
        }
      ],
      "stateMutability": "view",
      "type": "function"
    },
    {
      "inputs": [
        {
          "internalType": "uint256",
          "name": "tokenId",
          "type": "uint256"
        }
      ],
      "name": "getNFTItem",
      "outputs": [
        {
          "components": [
            {
              "internalType": "uint256",
              "name": "tokenId",
              "type": "uint256"
            },
            {
              "internalType": "address",
              "name": "owner",
              "type": "address"
            },
            {
              "internalType": "address",
              "name": "seller",
              "type": "address"
            },
            {
              "internalType": "uint256",
              "name": "price",
              "type": "uint256"
            }
          ],
          "internalType": "struct NFTMarketplace.NftItem",
          "name": "",
          "type": "tuple"
        }
      ],
      "stateMutability": "view",
      "type": "function"
    },
    {
      "inputs": [],
      "name": "getTotalSupply",
      "outputs": [
        {
          "internalType": "uint256",
          "name": "",
          "type": "uint256"
        }
      ],
      "stateMutability": "view",
      "type": "function"
    },
    {
      "inputs": [
        {
          "internalType": "address",
          "name": "owner",
          "type": "address"
        },
        {
          "internalType": "address",
          "name": "operator",
          "type": "address"
        }
      ],
      "name": "isApprovedForAll",
      "outputs": [
        {
          "internalType": "bool",
          "name": "",
          "type": "bool"
        }
      ],
      "stateMutability": "view",
      "type": "function"
    },
    {
      "inputs": [
        {
          "internalType": "uint256",
          "name": "tokenId",
          "type": "uint256"
        },
        {
          "internalType": "uint256",
          "name": "price",
          "type": "uint256"
        }
      ],
      "name": "listNftItem",
      "outputs": [],
      "stateMutability": "payable",
      "type": "function"
    },
    {
      "inputs": [
        {
          "internalType": "string",
          "name": "tokenURI",
          "type": "string"
        }
      ],
      "name": "mintToken",
      "outputs": [
        {
          "internalType": "uint256",
          "name": "",
          "type": "uint256"
        }
      ],
      "stateMutability": "nonpayable",
      "type": "function"
    },
    {
      "inputs": [],
      "name": "name",
      "outputs": [
        {
          "internalType": "string",
          "name": "",
          "type": "string"
        }
      ],
      "stateMutability": "view",
      "type": "function"
    },
    {
      "inputs": [],
      "name": "owner",
      "outputs": [
        {
          "internalType": "address",
          "name": "",
          "type": "address"
        }
      ],
      "stateMutability": "view",
      "type": "function"
    },
    {
      "inputs": [
        {
          "internalType": "uint256",
          "name": "tokenId",
          "type": "uint256"
        }
      ],
      "name": "ownerOf",
      "outputs": [
        {
          "internalType": "address",
          "name": "",
          "type": "address"
        }
      ],
      "stateMutability": "view",
      "type": "function"
    },
    {
      "inputs": [],
      "name": "renounceOwnership",
      "outputs": [],
      "stateMutability": "nonpayable",
      "type": "function"
    },
    {
      "inputs": [
        {
          "internalType": "address",
          "name": "from",
          "type": "address"
        },
        {
          "internalType": "address",
          "name": "to",
          "type": "address"
        },
        {
          "internalType": "uint256",
          "name": "tokenId",
          "type": "uint256"
        }
      ],
      "name": "safeTransferFrom",
      "outputs": [],
      "stateMutability": "nonpayable",
      "type": "function"
    },
    {
      "inputs": [
        {
          "internalType": "address",
          "name": "from",
          "type": "address"
        },
        {
          "internalType": "address",
          "name": "to",
          "type": "address"
        },
        {
          "internalType": "uint256",
          "name": "tokenId",
          "type": "uint256"
        },
        {
          "internalType": "bytes",
          "name": "data",
          "type": "bytes"
        }
      ],
      "name": "safeTransferFrom",
      "outputs": [],
      "stateMutability": "nonpayable",
      "type": "function"
    },
    {
      "inputs": [
        {
          "internalType": "address",
          "name": "operator",
          "type": "address"
        },
        {
          "internalType": "bool",
          "name": "approved",
          "type": "bool"
        }
      ],
      "name": "setApprovalForAll",
      "outputs": [],
      "stateMutability": "nonpayable",
      "type": "function"
    },
    {
      "inputs": [
        {
          "internalType": "bytes4",
          "name": "interfaceId",
          "type": "bytes4"
        }
      ],
      "name": "supportsInterface",
      "outputs": [
        {
          "internalType": "bool",
          "name": "",
          "type": "bool"
        }
      ],
      "stateMutability": "view",
      "type": "function"
    },
    {
      "inputs": [],
      "name": "symbol",
      "outputs": [
        {
          "internalType": "string",
          "name": "",
          "type": "string"
        }
      ],
      "stateMutability": "view",
      "type": "function"
    },
    {
      "inputs": [
        {
          "internalType": "uint256",
          "name": "tokenId",
          "type": "uint256"
        }
      ],
      "name": "tokenURI",
      "outputs": [
        {
          "internalType": "string",
          "name": "",
          "type": "string"
        }
      ],
      "stateMutability": "view",
      "type": "function"
    },
    {
      "inputs": [
        {
          "internalType": "address",
          "name": "from",
          "type": "address"
        },
        {
          "internalType": "address",
          "name": "to",
          "type": "address"
        },
        {
          "internalType": "uint256",
          "name": "tokenId",
          "type": "uint256"
        }
      ],
      "name": "transferFrom",
      "outputs": [],
      "stateMutability": "nonpayable",
      "type": "function"
    },
    {
      "inputs": [
        {
          "internalType": "address",
          "name": "newOwner",
          "type": "address"
        }
      ],
      "name": "transferOwnership",
      "outputs": [],
      "stateMutability": "nonpayable",
      "type": "function"
    },
    {
      "inputs": [
        {
          "internalType": "uint256",
          "name": "tokenId",
          "type": "uint256"
        }
      ],
      "name": "unlistNftItem",
      "outputs": [],
      "stateMutability": "nonpayable",
      "type": "function"
    },
    {
      "inputs": [
        {
          "internalType": "uint256",
          "name": "tokenId",
          "type": "uint256"
        },
        {
          "internalType": "uint256",
          "name": "price",
          "type": "uint256"
        }
      ],
      "name": "updateItemPrice",
      "outputs": [],
      "stateMutability": "nonpayable",
      "type": "function"
    },
    {
      "inputs": [
        {
          "internalType": "uint256",
          "name": "_listingFee",
          "type": "uint256"
        }
      ],
      "name": "updateListingFee",
      "outputs": [],
      "stateMutability": "nonpayable",
      "type": "function"
    },
    {
      "inputs": [
        {
          "internalType": "uint256",
          "name": "amount",
          "type": "uint256"
        }
      ],
      "name": "withdrawFunds",
      "outputs": [],
      "stateMutability": "nonpayable",
      "type": "function"
    }
  ],
  "bytecode": "0x60806040526605543df729c0006009553480156200001c57600080fd5b506040518060400160405280601381526020017f4e4654204d657461766572736520546f6b656e000000000000000000000000008152506040518060400160405280600581526020017f4d594e465400000000000000000000000000000000000000000000000000000081525081600090816200009a91906200041d565b508060019081620000ac91906200041d565b505050620000cf620000c3620000d560201b60201c565b620000dd60201b60201c565b62000504565b600033905090565b6000600760009054906101000a900473ffffffffffffffffffffffffffffffffffffffff16905081600760006101000a81548173ffffffffffffffffffffffffffffffffffffffff021916908373ffffffffffffffffffffffffffffffffffffffff1602179055508173ffffffffffffffffffffffffffffffffffffffff168173ffffffffffffffffffffffffffffffffffffffff167f8be0079c531659141344cd1fd0a4f28419497f9722a3daafe3b4186f6b6457e060405160405180910390a35050565b600081519050919050565b7f4e487b7100000000000000000000000000000000000000000000000000000000600052604160045260246000fd5b7f4e487b7100000000000000000000000000000000000000000000000000000000600052602260045260246000fd5b600060028204905060018216806200022557607f821691505b6020821081036200023b576200023a620001dd565b5b50919050565b60008190508160005260206000209050919050565b60006020601f8301049050919050565b600082821b905092915050565b600060088302620002a57fffffffffffffffffffffffffffffffffffffffffffffffffffffffffffffffff8262000266565b620002b1868362000266565b95508019841693508086168417925050509392505050565b6000819050919050565b6000819050919050565b6000620002fe620002f8620002f284620002c9565b620002d3565b620002c9565b9050919050565b6000819050919050565b6200031a83620002dd565b62000332620003298262000305565b84845462000273565b825550505050565b600090565b620003496200033a565b620003568184846200030f565b505050565b5b818110156200037e57620003726000826200033f565b6001810190506200035c565b5050565b601f821115620003cd57620003978162000241565b620003a28462000256565b81016020851015620003b2578190505b620003ca620003c18562000256565b8301826200035b565b50505b505050565b600082821c905092915050565b6000620003f260001984600802620003d2565b1980831691505092915050565b60006200040d8383620003df565b9150826002028217905092915050565b6200042882620001a3565b67ffffffffffffffff811115620004445762000443620001ae565b5b6200045082546200020c565b6200045d82828562000382565b600060209050601f83116001811462000495576000841562000480578287015190505b6200048c8582620003ff565b865550620004fc565b601f198416620004a58662000241565b60005b82811015620004cf57848901518255600182019150602085019450602081019050620004a8565b86831015620004ef5784890151620004eb601f891682620003df565b8355505b6001600288020188555050505b505050505050565b614d4f80620005146000396000f3fe6080604052600436106101b75760003560e01c80638cc0f321116100ec578063c4e41b221161008a578063d8bb622311610064578063d8bb622314610602578063e985e9c51461062b578063f2fde38b14610668578063f79d91ae14610691576101b7565b8063c4e41b221461056f578063c87b56dd1461059a578063cad7d033146105d7576101b7565b8063a22cb465116100c6578063a22cb465146104d6578063b88d4fde146104ff578063b8fe6abe14610528578063bf4a9af314610553576101b7565b80638cc0f321146104555780638da5cb5b1461048057806395d89b41146104ab576101b7565b806333eba49a116101595780636352211e116101335780636352211e146103875780636a3ceff9146103c457806370a0823114610401578063715018a61461043e576101b7565b806333eba49a1461030557806342842e0e1461034257806354e872c81461036b576101b7565b8063095ea7b311610195578063095ea7b314610261578063155dd5ee1461028a57806323b872dd146102b35780632769b96b146102dc576101b7565b806301ffc9a7146101bc57806306fdde03146101f9578063081812fc14610224575b600080fd5b3480156101c857600080fd5b506101e360048036038101906101de919061328e565b6106ba565b6040516101f091906132d6565b60405180910390f35b34801561020557600080fd5b5061020e61079c565b60405161021b9190613381565b60405180910390f35b34801561023057600080fd5b5061024b600480360381019061024691906133d9565b61082e565b6040516102589190613447565b60405180910390f35b34801561026d57600080fd5b506102886004803603810190610283919061348e565b610874565b005b34801561029657600080fd5b506102b160048036038101906102ac91906133d9565b61098b565b005b3480156102bf57600080fd5b506102da60048036038101906102d591906134ce565b610a32565b005b3480156102e857600080fd5b5061030360048036038101906102fe9190613521565b610a92565b005b34801561031157600080fd5b5061032c600480360381019061032791906135c6565b610bc8565b6040516103399190613622565b60405180910390f35b34801561034e57600080fd5b50610369600480360381019061036491906134ce565b610cf4565b005b61038560048036038101906103809190613521565b610d14565b005b34801561039357600080fd5b506103ae60048036038101906103a991906133d9565b610fb2565b6040516103bb9190613447565b60405180910390f35b3480156103d057600080fd5b506103eb60048036038101906103e691906133d9565b611038565b6040516103f891906136b0565b60405180910390f35b34801561040d57600080fd5b50610428600480360381019061042391906136cb565b611171565b6040516104359190613622565b60405180910390f35b34801561044a57600080fd5b50610453611228565b005b34801561046157600080fd5b5061046a61123c565b60405161047791906137fc565b60405180910390f35b34801561048c57600080fd5b50610495611453565b6040516104a29190613447565b60405180910390f35b3480156104b757600080fd5b506104c061147d565b6040516104cd9190613381565b60405180910390f35b3480156104e257600080fd5b506104fd60048036038101906104f8919061384a565b61150f565b005b34801561050b57600080fd5b50610526600480360381019061052191906139ba565b611525565b005b34801561053457600080fd5b5061053d611587565b60405161054a9190613622565b60405180910390f35b61056d600480360381019061056891906133d9565b611591565b005b34801561057b57600080fd5b506105846118b0565b6040516105919190613622565b60405180910390f35b3480156105a657600080fd5b506105c160048036038101906105bc91906133d9565b6118c1565b6040516105ce9190613381565b60405180910390f35b3480156105e357600080fd5b506105ec6119d3565b6040516105f991906137fc565b60405180910390f35b34801561060e57600080fd5b50610629600480360381019061062491906133d9565b611bea565b005b34801561063757600080fd5b50610652600480360381019061064d9190613a3d565b611df3565b60405161065f91906132d6565b60405180910390f35b34801561067457600080fd5b5061068f600480360381019061068a91906136cb565b611e87565b005b34801561069d57600080fd5b506106b860048036038101906106b391906133d9565b611f0a565b005b60007f80ac58cd000000000000000000000000000000000000000000000000000000007bffffffffffffffffffffffffffffffffffffffffffffffffffffffff1916827bffffffffffffffffffffffffffffffffffffffffffffffffffffffff1916148061078557507f5b5e139f000000000000000000000000000000000000000000000000000000007bffffffffffffffffffffffffffffffffffffffffffffffffffffffff1916827bffffffffffffffffffffffffffffffffffffffffffffffffffffffff1916145b80610795575061079482611f61565b5b9050919050565b6060600080546107ab90613aac565b80601f01602080910402602001604051908101604052809291908181526020018280546107d790613aac565b80156108245780601f106107f957610100808354040283529160200191610824565b820191906000526020600020905b81548152906001019060200180831161080757829003601f168201915b5050505050905090565b600061083982611fcb565b6004600083815260200190815260200160002060009054906101000a900473ffffffffffffffffffffffffffffffffffffffff169050919050565b600061087f82610fb2565b90508073ffffffffffffffffffffffffffffffffffffffff168373ffffffffffffffffffffffffffffffffffffffff16036108ef576040517f08c379a00000000000000000000000000000000000000000000000000000000081526004016108e690613b4f565b60405180910390fd5b8073ffffffffffffffffffffffffffffffffffffffff1661090e612016565b73ffffffffffffffffffffffffffffffffffffffff16148061093d575061093c81610937612016565b611df3565b5b61097c576040517f08c379a000000000000000000000000000000000000000000000000000000000815260040161097390613be1565b60405180910390fd5b610986838361201e565b505050565b6109936120d7565b60004790508082106109da576040517f08c379a00000000000000000000000000000000000000000000000000000000081526004016109d190613c4d565b60405180910390fd5b60006109e4611453565b90508073ffffffffffffffffffffffffffffffffffffffff166108fc849081150290604051600060405180830381858888f19350505050158015610a2c573d6000803e3d6000fd5b50505050565b610a43610a3d612016565b82612155565b610a82576040517f08c379a0000000000000000000000000000000000000000000000000000000008152600401610a7990613cdf565b60405180910390fd5b610a8d8383836121ea565b505050565b8060008111610ad6576040517f08c379a0000000000000000000000000000000000000000000000000000000008152600401610acd90613d71565b60405180910390fd5b6000600b600085815260200190815260200160002090503373ffffffffffffffffffffffffffffffffffffffff168160020160009054906101000a900473ffffffffffffffffffffffffffffffffffffffff1673ffffffffffffffffffffffffffffffffffffffff1614610b7f576040517f08c379a0000000000000000000000000000000000000000000000000000000008152600401610b7690613e03565b60405180910390fd5b828160030181905550837fdc102d7305d6f43261ab7f3e49a4bc451fdf68b255f7af5b51d68eabe2b7f9fa3385604051610bba929190613e23565b60405180910390a250505050565b6000600a8383604051610bdc929190613e7c565b908152602001604051809103902060009054906101000a900460ff1615610c38576040517f08c379a0000000000000000000000000000000000000000000000000000000008152600401610c2f90613ee1565b60405180910390fd5b610c4260086124e3565b6000610c4e60086124f9565b9050610c5a3382612507565b610ca88185858080601f016020809104026020016040519081016040528093929190818152602001838380828437600081840152601f19601f82011690508083019250505050505050612525565b6001600a8585604051610cbc929190613e7c565b908152602001604051809103902060006101000a81548160ff021916908315150217905550610cea81612592565b8091505092915050565b610d0f83838360405180602001604052806000815250611525565b505050565b8060008111610d58576040517f08c379a0000000000000000000000000000000000000000000000000000000008152600401610d4f90613d71565b60405180910390fd5b6009543414610d9c576040517f08c379a0000000000000000000000000000000000000000000000000000000008152600401610d9390613f73565b60405180910390fd5b6000600b600085815260200190815260200160002090503373ffffffffffffffffffffffffffffffffffffffff168160010160009054906101000a900473ffffffffffffffffffffffffffffffffffffffff1673ffffffffffffffffffffffffffffffffffffffff1614610e45576040517f08c379a0000000000000000000000000000000000000000000000000000000008152600401610e3c90614005565b60405180910390fd5b600073ffffffffffffffffffffffffffffffffffffffff168160020160009054906101000a900473ffffffffffffffffffffffffffffffffffffffff1673ffffffffffffffffffffffffffffffffffffffff1614610ed8576040517f08c379a0000000000000000000000000000000000000000000000000000000008152600401610ecf90614071565b60405180910390fd5b828160030181905550338160020160006101000a81548173ffffffffffffffffffffffffffffffffffffffff021916908373ffffffffffffffffffffffffffffffffffffffff160217905550308160010160006101000a81548173ffffffffffffffffffffffffffffffffffffffff021916908373ffffffffffffffffffffffffffffffffffffffff160217905550610f72333086610a32565b837f2d0b07406646b5adfda45c694983867c52e3ce31d9e136feb83b9f7cc59bdbef3385604051610fa4929190613e23565b60405180910390a250505050565b600080610fbe836126d4565b9050600073ffffffffffffffffffffffffffffffffffffffff168173ffffffffffffffffffffffffffffffffffffffff160361102f576040517f08c379a0000000000000000000000000000000000000000000000000000000008152600401611026906140dd565b60405180910390fd5b80915050919050565b6110406131ce565b61104a60086124f9565b82111561108c576040517f08c379a000000000000000000000000000000000000000000000000000000000815260040161108390614149565b60405180910390fd5b600b6000838152602001908152602001600020604051806080016040529081600082015481526020016001820160009054906101000a900473ffffffffffffffffffffffffffffffffffffffff1673ffffffffffffffffffffffffffffffffffffffff1673ffffffffffffffffffffffffffffffffffffffff1681526020016002820160009054906101000a900473ffffffffffffffffffffffffffffffffffffffff1673ffffffffffffffffffffffffffffffffffffffff1673ffffffffffffffffffffffffffffffffffffffff1681526020016003820154815250509050919050565b60008073ffffffffffffffffffffffffffffffffffffffff168273ffffffffffffffffffffffffffffffffffffffff16036111e1576040517f08c379a00000000000000000000000000000000000000000000000000000000081526004016111d8906141db565b60405180910390fd5b600360008373ffffffffffffffffffffffffffffffffffffffff1673ffffffffffffffffffffffffffffffffffffffff168152602001908152602001600020549050919050565b6112306120d7565b61123a6000612711565b565b6060600061124a60086124f9565b9050600061125730611171565b90506000808267ffffffffffffffff8111156112765761127561388f565b5b6040519080825280602002602001820160405280156112af57816020015b61129c6131ce565b8152602001906001900390816112945790505b5090506000600190505b848111611448573073ffffffffffffffffffffffffffffffffffffffff16600b600083815260200190815260200160002060010160009054906101000a900473ffffffffffffffffffffffffffffffffffffffff1673ffffffffffffffffffffffffffffffffffffffff160361143557600b6000828152602001908152602001600020604051806080016040529081600082015481526020016001820160009054906101000a900473ffffffffffffffffffffffffffffffffffffffff1673ffffffffffffffffffffffffffffffffffffffff1673ffffffffffffffffffffffffffffffffffffffff1681526020016002820160009054906101000a900473ffffffffffffffffffffffffffffffffffffffff1673ffffffffffffffffffffffffffffffffffffffff1673ffffffffffffffffffffffffffffffffffffffff16815260200160038201548152505082848151811061141a576114196141fb565b5b60200260200101819052506001836114329190614259565b92505b80806114409061428d565b9150506112b9565b508094505050505090565b6000600760009054906101000a900473ffffffffffffffffffffffffffffffffffffffff16905090565b60606001805461148c90613aac565b80601f01602080910402602001604051908101604052809291908181526020018280546114b890613aac565b80156115055780601f106114da57610100808354040283529160200191611505565b820191906000526020600020905b8154815290600101906020018083116114e857829003601f168201915b5050505050905090565b61152161151a612016565b83836127d7565b5050565b611536611530612016565b83612155565b611575576040517f08c379a000000000000000000000000000000000000000000000000000000000815260040161156c90613cdf565b60405180910390fd5b61158184848484612943565b50505050565b6000600954905090565b6000600b600083815260200190815260200160002090503073ffffffffffffffffffffffffffffffffffffffff168160010160009054906101000a900473ffffffffffffffffffffffffffffffffffffffff1673ffffffffffffffffffffffffffffffffffffffff161461163a576040517f08c379a000000000000000000000000000000000000000000000000000000000815260040161163190614321565b60405180910390fd5b3073ffffffffffffffffffffffffffffffffffffffff163373ffffffffffffffffffffffffffffffffffffffff16141580156116c657508060020160009054906101000a900473ffffffffffffffffffffffffffffffffffffffff1673ffffffffffffffffffffffffffffffffffffffff163373ffffffffffffffffffffffffffffffffffffffff1614155b611705576040517f08c379a00000000000000000000000000000000000000000000000000000000081526004016116fc906143b3565b60405180910390fd5b8060030154341461174b576040517f08c379a00000000000000000000000000000000000000000000000000000000081526004016117429061441f565b60405180910390fd5b6117563033846121ea565b8060020160009054906101000a900473ffffffffffffffffffffffffffffffffffffffff1673ffffffffffffffffffffffffffffffffffffffff166108fc349081150290604051600060405180830381858888f193505050501580156117c0573d6000803e3d6000fd5b50817f2d73dd92d35e94355b9cede301254b0005743570b2b2ff7bd6c3a2071c8446f18260020160009054906101000a900473ffffffffffffffffffffffffffffffffffffffff1633846003015460405161181d9392919061443f565b60405180910390a2338160010160006101000a81548173ffffffffffffffffffffffffffffffffffffffff021916908373ffffffffffffffffffffffffffffffffffffffff16021790555060008160020160006101000a81548173ffffffffffffffffffffffffffffffffffffffff021916908373ffffffffffffffffffffffffffffffffffffffff1602179055505050565b60006118bc60086124f9565b905090565b60606118cc82611fcb565b60006006600084815260200190815260200160002080546118ec90613aac565b80601f016020809104026020016040519081016040528092919081815260200182805461191890613aac565b80156119655780601f1061193a57610100808354040283529160200191611965565b820191906000526020600020905b81548152906001019060200180831161194857829003601f168201915b50505050509050600061197661299f565b9050600081510361198b5781925050506119ce565b6000825111156119c05780826040516020016119a89291906144a7565b604051602081830303815290604052925050506119ce565b6119c9846129b6565b925050505b919050565b606060006119e160086124f9565b905060006119ee33611171565b90506000808267ffffffffffffffff811115611a0d57611a0c61388f565b5b604051908082528060200260200182016040528015611a4657816020015b611a336131ce565b815260200190600190039081611a2b5790505b5090506000600190505b848111611bdf573373ffffffffffffffffffffffffffffffffffffffff16600b600083815260200190815260200160002060010160009054906101000a900473ffffffffffffffffffffffffffffffffffffffff1673ffffffffffffffffffffffffffffffffffffffff1603611bcc57600b6000828152602001908152602001600020604051806080016040529081600082015481526020016001820160009054906101000a900473ffffffffffffffffffffffffffffffffffffffff1673ffffffffffffffffffffffffffffffffffffffff1673ffffffffffffffffffffffffffffffffffffffff1681526020016002820160009054906101000a900473ffffffffffffffffffffffffffffffffffffffff1673ffffffffffffffffffffffffffffffffffffffff1673ffffffffffffffffffffffffffffffffffffffff168152602001600382015481525050828481518110611bb157611bb06141fb565b5b6020026020010181905250600183611bc99190614259565b92505b8080611bd79061428d565b915050611a50565b508094505050505090565b6000600b600083815260200190815260200160002090503373ffffffffffffffffffffffffffffffffffffffff168160020160009054906101000a900473ffffffffffffffffffffffffffffffffffffffff1673ffffffffffffffffffffffffffffffffffffffff1614611c93576040517f08c379a0000000000000000000000000000000000000000000000000000000008152600401611c8a90613e03565b60405180910390fd5b3073ffffffffffffffffffffffffffffffffffffffff168160010160009054906101000a900473ffffffffffffffffffffffffffffffffffffffff1673ffffffffffffffffffffffffffffffffffffffff1614611d25576040517f08c379a0000000000000000000000000000000000000000000000000000000008152600401611d1c90614321565b60405180910390fd5b338160010160006101000a81548173ffffffffffffffffffffffffffffffffffffffff021916908373ffffffffffffffffffffffffffffffffffffffff16021790555060008160020160006101000a81548173ffffffffffffffffffffffffffffffffffffffff021916908373ffffffffffffffffffffffffffffffffffffffff160217905550611db73033846121ea565b817fb97032b600d39f783b6f5068e583b806e0c63ccf30ef5e9e90f7c4ff87d14bc233604051611de79190613447565b60405180910390a25050565b6000600560008473ffffffffffffffffffffffffffffffffffffffff1673ffffffffffffffffffffffffffffffffffffffff16815260200190815260200160002060008373ffffffffffffffffffffffffffffffffffffffff1673ffffffffffffffffffffffffffffffffffffffff16815260200190815260200160002060009054906101000a900460ff16905092915050565b611e8f6120d7565b600073ffffffffffffffffffffffffffffffffffffffff168173ffffffffffffffffffffffffffffffffffffffff1603611efe576040517f08c379a0000000000000000000000000000000000000000000000000000000008152600401611ef59061453d565b60405180910390fd5b611f0781612711565b50565b611f126120d7565b8060008111611f56576040517f08c379a0000000000000000000000000000000000000000000000000000000008152600401611f4d90613d71565b60405180910390fd5b816009819055505050565b60007f01ffc9a7000000000000000000000000000000000000000000000000000000007bffffffffffffffffffffffffffffffffffffffffffffffffffffffff1916827bffffffffffffffffffffffffffffffffffffffffffffffffffffffff1916149050919050565b611fd481612a1e565b612013576040517f08c379a000000000000000000000000000000000000000000000000000000000815260040161200a906140dd565b60405180910390fd5b50565b600033905090565b816004600083815260200190815260200160002060006101000a81548173ffffffffffffffffffffffffffffffffffffffff021916908373ffffffffffffffffffffffffffffffffffffffff160217905550808273ffffffffffffffffffffffffffffffffffffffff1661209183610fb2565b73ffffffffffffffffffffffffffffffffffffffff167f8c5be1e5ebec7d5bd14f71427d1e84f3dd0314c0f7b2291e5b200ac8c7c3b92560405160405180910390a45050565b6120df612016565b73ffffffffffffffffffffffffffffffffffffffff166120fd611453565b73ffffffffffffffffffffffffffffffffffffffff1614612153576040517f08c379a000000000000000000000000000000000000000000000000000000000815260040161214a906145a9565b60405180910390fd5b565b60008061216183610fb2565b90508073ffffffffffffffffffffffffffffffffffffffff168473ffffffffffffffffffffffffffffffffffffffff1614806121a357506121a28185611df3565b5b806121e157508373ffffffffffffffffffffffffffffffffffffffff166121c98461082e565b73ffffffffffffffffffffffffffffffffffffffff16145b91505092915050565b8273ffffffffffffffffffffffffffffffffffffffff1661220a82610fb2565b73ffffffffffffffffffffffffffffffffffffffff1614612260576040517f08c379a00000000000000000000000000000000000000000000000000000000081526004016122579061463b565b60405180910390fd5b600073ffffffffffffffffffffffffffffffffffffffff168273ffffffffffffffffffffffffffffffffffffffff16036122cf576040517f08c379a00000000000000000000000000000000000000000000000000000000081526004016122c6906146cd565b60405180910390fd5b6122dc8383836001612a5f565b8273ffffffffffffffffffffffffffffffffffffffff166122fc82610fb2565b73ffffffffffffffffffffffffffffffffffffffff1614612352576040517f08c379a00000000000000000000000000000000000000000000000000000000081526004016123499061463b565b60405180910390fd5b6004600082815260200190815260200160002060006101000a81549073ffffffffffffffffffffffffffffffffffffffff02191690556001600360008573ffffffffffffffffffffffffffffffffffffffff1673ffffffffffffffffffffffffffffffffffffffff168152602001908152602001600020600082825403925050819055506001600360008473ffffffffffffffffffffffffffffffffffffffff1673ffffffffffffffffffffffffffffffffffffffff16815260200190815260200160002060008282540192505081905550816002600083815260200190815260200160002060006101000a81548173ffffffffffffffffffffffffffffffffffffffff021916908373ffffffffffffffffffffffffffffffffffffffff160217905550808273ffffffffffffffffffffffffffffffffffffffff168473ffffffffffffffffffffffffffffffffffffffff167fddf252ad1be2c89b69c2b068fc378daa952ba7f163c4a11628f55a4df523b3ef60405160405180910390a46124de8383836001612b85565b505050565b6001816000016000828254019250508190555050565b600081600001549050919050565b612521828260405180602001604052806000815250612b8b565b5050565b61252e82612a1e565b61256d576040517f08c379a00000000000000000000000000000000000000000000000000000000081526004016125649061475f565b60405180910390fd5b8060066000848152602001908152602001600020908161258d919061492b565b505050565b60405180608001604052808281526020013373ffffffffffffffffffffffffffffffffffffffff168152602001600073ffffffffffffffffffffffffffffffffffffffff1681526020016000815250600b60008381526020019081526020016000206000820151816000015560208201518160010160006101000a81548173ffffffffffffffffffffffffffffffffffffffff021916908373ffffffffffffffffffffffffffffffffffffffff16021790555060408201518160020160006101000a81548173ffffffffffffffffffffffffffffffffffffffff021916908373ffffffffffffffffffffffffffffffffffffffff16021790555060608201518160030155905050807f93beb01ee4f5d2f89d0a0d55db47459601413c9ef0b552599f3ed68f27f82c79336040516126c99190613447565b60405180910390a250565b60006002600083815260200190815260200160002060009054906101000a900473ffffffffffffffffffffffffffffffffffffffff169050919050565b6000600760009054906101000a900473ffffffffffffffffffffffffffffffffffffffff16905081600760006101000a81548173ffffffffffffffffffffffffffffffffffffffff021916908373ffffffffffffffffffffffffffffffffffffffff1602179055508173ffffffffffffffffffffffffffffffffffffffff168173ffffffffffffffffffffffffffffffffffffffff167f8be0079c531659141344cd1fd0a4f28419497f9722a3daafe3b4186f6b6457e060405160405180910390a35050565b8173ffffffffffffffffffffffffffffffffffffffff168373ffffffffffffffffffffffffffffffffffffffff1603612845576040517f08c379a000000000000000000000000000000000000000000000000000000000815260040161283c90614a49565b60405180910390fd5b80600560008573ffffffffffffffffffffffffffffffffffffffff1673ffffffffffffffffffffffffffffffffffffffff16815260200190815260200160002060008473ffffffffffffffffffffffffffffffffffffffff1673ffffffffffffffffffffffffffffffffffffffff16815260200190815260200160002060006101000a81548160ff0219169083151502179055508173ffffffffffffffffffffffffffffffffffffffff168373ffffffffffffffffffffffffffffffffffffffff167f17307eab39ab6107e8899845ad3d59bd9653f200f220920489ca2b5937696c318360405161293691906132d6565b60405180910390a3505050565b61294e8484846121ea565b61295a84848484612be6565b612999576040517f08c379a000000000000000000000000000000000000000000000000000000000815260040161299090614adb565b60405180910390fd5b50505050565b606060405180602001604052806000815250905090565b60606129c182611fcb565b60006129cb61299f565b905060008151116129eb5760405180602001604052806000815250612a16565b806129f584612d6d565b604051602001612a069291906144a7565b6040516020818303038152906040525b915050919050565b60008073ffffffffffffffffffffffffffffffffffffffff16612a40836126d4565b73ffffffffffffffffffffffffffffffffffffffff1614159050919050565b6001811115612b7f57600073ffffffffffffffffffffffffffffffffffffffff168473ffffffffffffffffffffffffffffffffffffffff1614612af35780600360008673ffffffffffffffffffffffffffffffffffffffff1673ffffffffffffffffffffffffffffffffffffffff1681526020019081526020016000206000828254612aeb9190614afb565b925050819055505b600073ffffffffffffffffffffffffffffffffffffffff168373ffffffffffffffffffffffffffffffffffffffff1614612b7e5780600360008573ffffffffffffffffffffffffffffffffffffffff1673ffffffffffffffffffffffffffffffffffffffff1681526020019081526020016000206000828254612b769190614259565b925050819055505b5b50505050565b50505050565b612b958383612e3b565b612ba26000848484612be6565b612be1576040517f08c379a0000000000000000000000000000000000000000000000000000000008152600401612bd890614adb565b60405180910390fd5b505050565b6000612c078473ffffffffffffffffffffffffffffffffffffffff16613058565b15612d60578373ffffffffffffffffffffffffffffffffffffffff1663150b7a02612c30612016565b8786866040518563ffffffff1660e01b8152600401612c529493929190614b84565b6020604051808303816000875af1925050508015612c8e57506040513d601f19601f82011682018060405250810190612c8b9190614be5565b60015b612d10573d8060008114612cbe576040519150601f19603f3d011682016040523d82523d6000602084013e612cc3565b606091505b506000815103612d08576040517f08c379a0000000000000000000000000000000000000000000000000000000008152600401612cff90614adb565b60405180910390fd5b805181602001fd5b63150b7a0260e01b7bffffffffffffffffffffffffffffffffffffffffffffffffffffffff1916817bffffffffffffffffffffffffffffffffffffffffffffffffffffffff191614915050612d65565b600190505b949350505050565b606060006001612d7c8461307b565b01905060008167ffffffffffffffff811115612d9b57612d9a61388f565b5b6040519080825280601f01601f191660200182016040528015612dcd5781602001600182028036833780820191505090505b509050600082602001820190505b600115612e30578080600190039150507f3031323334353637383961626364656600000000000000000000000000000000600a86061a8153600a8581612e2457612e23614c12565b5b04945060008503612ddb575b819350505050919050565b600073ffffffffffffffffffffffffffffffffffffffff168273ffffffffffffffffffffffffffffffffffffffff1603612eaa576040517f08c379a0000000000000000000000000000000000000000000000000000000008152600401612ea190614c8d565b60405180910390fd5b612eb381612a1e565b15612ef3576040517f08c379a0000000000000000000000000000000000000000000000000000000008152600401612eea90614cf9565b60405180910390fd5b612f01600083836001612a5f565b612f0a81612a1e565b15612f4a576040517f08c379a0000000000000000000000000000000000000000000000000000000008152600401612f4190614cf9565b60405180910390fd5b6001600360008473ffffffffffffffffffffffffffffffffffffffff1673ffffffffffffffffffffffffffffffffffffffff16815260200190815260200160002060008282540192505081905550816002600083815260200190815260200160002060006101000a81548173ffffffffffffffffffffffffffffffffffffffff021916908373ffffffffffffffffffffffffffffffffffffffff160217905550808273ffffffffffffffffffffffffffffffffffffffff16600073ffffffffffffffffffffffffffffffffffffffff167fddf252ad1be2c89b69c2b068fc378daa952ba7f163c4a11628f55a4df523b3ef60405160405180910390a4613054600083836001612b85565b5050565b6000808273ffffffffffffffffffffffffffffffffffffffff163b119050919050565b600080600090507a184f03e93ff9f4daa797ed6e38ed64bf6a1f01000000000000000083106130d9577a184f03e93ff9f4daa797ed6e38ed64bf6a1f01000000000000000083816130cf576130ce614c12565b5b0492506040810190505b6d04ee2d6d415b85acef81000000008310613116576d04ee2d6d415b85acef8100000000838161310c5761310b614c12565b5b0492506020810190505b662386f26fc10000831061314557662386f26fc10000838161313b5761313a614c12565b5b0492506010810190505b6305f5e100831061316e576305f5e100838161316457613163614c12565b5b0492506008810190505b612710831061319357612710838161318957613188614c12565b5b0492506004810190505b606483106131b657606483816131ac576131ab614c12565b5b0492506002810190505b600a83106131c5576001810190505b80915050919050565b604051806080016040528060008152602001600073ffffffffffffffffffffffffffffffffffffffff168152602001600073ffffffffffffffffffffffffffffffffffffffff168152602001600081525090565b6000604051905090565b600080fd5b600080fd5b60007fffffffff0000000000000000000000000000000000000000000000000000000082169050919050565b61326b81613236565b811461327657600080fd5b50565b60008135905061328881613262565b92915050565b6000602082840312156132a4576132a361322c565b5b60006132b284828501613279565b91505092915050565b60008115159050919050565b6132d0816132bb565b82525050565b60006020820190506132eb60008301846132c7565b92915050565b600081519050919050565b600082825260208201905092915050565b60005b8381101561332b578082015181840152602081019050613310565b60008484015250505050565b6000601f19601f8301169050919050565b6000613353826132f1565b61335d81856132fc565b935061336d81856020860161330d565b61337681613337565b840191505092915050565b6000602082019050818103600083015261339b8184613348565b905092915050565b6000819050919050565b6133b6816133a3565b81146133c157600080fd5b50565b6000813590506133d3816133ad565b92915050565b6000602082840312156133ef576133ee61322c565b5b60006133fd848285016133c4565b91505092915050565b600073ffffffffffffffffffffffffffffffffffffffff82169050919050565b600061343182613406565b9050919050565b61344181613426565b82525050565b600060208201905061345c6000830184613438565b92915050565b61346b81613426565b811461347657600080fd5b50565b60008135905061348881613462565b92915050565b600080604083850312156134a5576134a461322c565b5b60006134b385828601613479565b92505060206134c4858286016133c4565b9150509250929050565b6000806000606084860312156134e7576134e661322c565b5b60006134f586828701613479565b935050602061350686828701613479565b9250506040613517868287016133c4565b9150509250925092565b600080604083850312156135385761353761322c565b5b6000613546858286016133c4565b9250506020613557858286016133c4565b9150509250929050565b600080fd5b600080fd5b600080fd5b60008083601f84011261358657613585613561565b5b8235905067ffffffffffffffff8111156135a3576135a2613566565b5b6020830191508360018202830111156135bf576135be61356b565b5b9250929050565b600080602083850312156135dd576135dc61322c565b5b600083013567ffffffffffffffff8111156135fb576135fa613231565b5b61360785828601613570565b92509250509250929050565b61361c816133a3565b82525050565b60006020820190506136376000830184613613565b92915050565b613646816133a3565b82525050565b61365581613426565b82525050565b608082016000820151613671600085018261363d565b506020820151613684602085018261364c565b506040820151613697604085018261364c565b5060608201516136aa606085018261363d565b50505050565b60006080820190506136c5600083018461365b565b92915050565b6000602082840312156136e1576136e061322c565b5b60006136ef84828501613479565b91505092915050565b600081519050919050565b600082825260208201905092915050565b6000819050602082019050919050565b60808201600082015161373a600085018261363d565b50602082015161374d602085018261364c565b506040820151613760604085018261364c565b506060820151613773606085018261363d565b50505050565b60006137858383613724565b60808301905092915050565b6000602082019050919050565b60006137a9826136f8565b6137b38185613703565b93506137be83613714565b8060005b838110156137ef5781516137d68882613779565b97506137e183613791565b9250506001810190506137c2565b5085935050505092915050565b60006020820190508181036000830152613816818461379e565b905092915050565b613827816132bb565b811461383257600080fd5b50565b6000813590506138448161381e565b92915050565b600080604083850312156138615761386061322c565b5b600061386f85828601613479565b925050602061388085828601613835565b9150509250929050565b600080fd5b7f4e487b7100000000000000000000000000000000000000000000000000000000600052604160045260246000fd5b6138c782613337565b810181811067ffffffffffffffff821117156138e6576138e561388f565b5b80604052505050565b60006138f9613222565b905061390582826138be565b919050565b600067ffffffffffffffff8211156139255761392461388f565b5b61392e82613337565b9050602081019050919050565b82818337600083830152505050565b600061395d6139588461390a565b6138ef565b9050828152602081018484840111156139795761397861388a565b5b61398484828561393b565b509392505050565b600082601f8301126139a1576139a0613561565b5b81356139b184826020860161394a565b91505092915050565b600080600080608085870312156139d4576139d361322c565b5b60006139e287828801613479565b94505060206139f387828801613479565b9350506040613a04878288016133c4565b925050606085013567ffffffffffffffff811115613a2557613a24613231565b5b613a318782880161398c565b91505092959194509250565b60008060408385031215613a5457613a5361322c565b5b6000613a6285828601613479565b9250506020613a7385828601613479565b9150509250929050565b7f4e487b7100000000000000000000000000000000000000000000000000000000600052602260045260246000fd5b60006002820490506001821680613ac457607f821691505b602082108103613ad757613ad6613a7d565b5b50919050565b7f4552433732313a20617070726f76616c20746f2063757272656e74206f776e6560008201527f7200000000000000000000000000000000000000000000000000000000000000602082015250565b6000613b396021836132fc565b9150613b4482613add565b604082019050919050565b60006020820190508181036000830152613b6881613b2c565b9050919050565b7f4552433732313a20617070726f76652063616c6c6572206973206e6f7420746f60008201527f6b656e206f776e6572206f7220617070726f76656420666f7220616c6c000000602082015250565b6000613bcb603d836132fc565b9150613bd682613b6f565b604082019050919050565b60006020820190508181036000830152613bfa81613bbe565b9050919050565b7f496e73756666696369656e742062616c616e636520746f207769746864726177600082015250565b6000613c376020836132fc565b9150613c4282613c01565b602082019050919050565b60006020820190508181036000830152613c6681613c2a565b9050919050565b7f4552433732313a2063616c6c6572206973206e6f7420746f6b656e206f776e6560008201527f72206f7220617070726f76656400000000000000000000000000000000000000602082015250565b6000613cc9602d836132fc565b9150613cd482613c6d565b604082019050919050565b60006020820190508181036000830152613cf881613cbc565b9050919050565b7f496e7075742076616c7565206d757374206265206174206c656173742031207760008201527f6569000000000000000000000000000000000000000000000000000000000000602082015250565b6000613d5b6022836132fc565b9150613d6682613cff565b604082019050919050565b60006020820190508181036000830152613d8a81613d4e565b9050919050565b7f4f6e6c79204e4654206974656d2073656c6c65722063616e2063616c6c20746860008201527f69732066756e6300000000000000000000000000000000000000000000000000602082015250565b6000613ded6027836132fc565b9150613df882613d91565b604082019050919050565b60006020820190508181036000830152613e1c81613de0565b9050919050565b6000604082019050613e386000830185613438565b613e456020830184613613565b9392505050565b600081905092915050565b6000613e638385613e4c565b9350613e7083858461393b565b82840190509392505050565b6000613e89828486613e57565b91508190509392505050565b7f746f6b656e555249206973206578697374730000000000000000000000000000600082015250565b6000613ecb6012836132fc565b9150613ed682613e95565b602082019050919050565b60006020820190508181036000830152613efa81613ebe565b9050919050565b7f4d616b652073757265206574686572206174746163686564203d3d206c69737460008201527f696e672070726963650000000000000000000000000000000000000000000000602082015250565b6000613f5d6029836132fc565b9150613f6882613f01565b604082019050919050565b60006020820190508181036000830152613f8c81613f50565b9050919050565b7f4f6e6c79204e4654206974656d206f776e65722063616e2063616c6c2074686960008201527f732066756e630000000000000000000000000000000000000000000000000000602082015250565b6000613fef6026836132fc565b9150613ffa82613f93565b604082019050919050565b6000602082019050818103600083015261401e81613fe2565b9050919050565b7f4e465420776173206c6973746564000000000000000000000000000000000000600082015250565b600061405b600e836132fc565b915061406682614025565b602082019050919050565b6000602082019050818103600083015261408a8161404e565b9050919050565b7f4552433732313a20696e76616c696420746f6b656e2049440000000000000000600082015250565b60006140c76018836132fc565b91506140d282614091565b602082019050919050565b600060208201905081810360008301526140f6816140ba565b9050919050565b7f546f6b656e20696420696e76616c696400000000000000000000000000000000600082015250565b60006141336010836132fc565b915061413e826140fd565b602082019050919050565b6000602082019050818103600083015261416281614126565b9050919050565b7f4552433732313a2061646472657373207a65726f206973206e6f74206120766160008201527f6c6964206f776e65720000000000000000000000000000000000000000000000602082015250565b60006141c56029836132fc565b91506141d082614169565b604082019050919050565b600060208201905081810360008301526141f4816141b8565b9050919050565b7f4e487b7100000000000000000000000000000000000000000000000000000000600052603260045260246000fd5b7f4e487b7100000000000000000000000000000000000000000000000000000000600052601160045260246000fd5b6000614264826133a3565b915061426f836133a3565b92508282019050808211156142875761428661422a565b5b92915050565b6000614298826133a3565b91507fffffffffffffffffffffffffffffffffffffffffffffffffffffffffffffffff82036142ca576142c961422a565b5b600182019050919050565b7f4e4654206973206e6f74206c697374696e670000000000000000000000000000600082015250565b600061430b6012836132fc565b9150614316826142d5565b602082019050919050565b6000602082019050818103600083015261433a816142fe565b9050919050565b7f4d616b65207375726520627579657220213d206f776e657220262073656c6c6560008201527f7200000000000000000000000000000000000000000000000000000000000000602082015250565b600061439d6021836132fc565b91506143a882614341565b604082019050919050565b600060208201905081810360008301526143cc81614390565b9050919050565b7f4d616b652073757265207375626d69742076616c7565203d3d20707269636500600082015250565b6000614409601f836132fc565b9150614414826143d3565b602082019050919050565b60006020820190508181036000830152614438816143fc565b9050919050565b60006060820190506144546000830186613438565b6144616020830185613438565b61446e6040830184613613565b949350505050565b6000614481826132f1565b61448b8185613e4c565b935061449b81856020860161330d565b80840191505092915050565b60006144b38285614476565b91506144bf8284614476565b91508190509392505050565b7f4f776e61626c653a206e6577206f776e657220697320746865207a65726f206160008201527f6464726573730000000000000000000000000000000000000000000000000000602082015250565b60006145276026836132fc565b9150614532826144cb565b604082019050919050565b600060208201905081810360008301526145568161451a565b9050919050565b7f4f776e61626c653a2063616c6c6572206973206e6f7420746865206f776e6572600082015250565b60006145936020836132fc565b915061459e8261455d565b602082019050919050565b600060208201905081810360008301526145c281614586565b9050919050565b7f4552433732313a207472616e736665722066726f6d20696e636f72726563742060008201527f6f776e6572000000000000000000000000000000000000000000000000000000602082015250565b60006146256025836132fc565b9150614630826145c9565b604082019050919050565b6000602082019050818103600083015261465481614618565b9050919050565b7f4552433732313a207472616e7366657220746f20746865207a65726f2061646460008201527f7265737300000000000000000000000000000000000000000000000000000000602082015250565b60006146b76024836132fc565b91506146c28261465b565b604082019050919050565b600060208201905081810360008301526146e6816146aa565b9050919050565b7f45524337323155524953746f726167653a2055524920736574206f66206e6f6e60008201527f6578697374656e7420746f6b656e000000000000000000000000000000000000602082015250565b6000614749602e836132fc565b9150614754826146ed565b604082019050919050565b600060208201905081810360008301526147788161473c565b9050919050565b60008190508160005260206000209050919050565b60006020601f8301049050919050565b600082821b905092915050565b6000600883026147e17fffffffffffffffffffffffffffffffffffffffffffffffffffffffffffffffff826147a4565b6147eb86836147a4565b95508019841693508086168417925050509392505050565b6000819050919050565b600061482861482361481e846133a3565b614803565b6133a3565b9050919050565b6000819050919050565b6148428361480d565b61485661484e8261482f565b8484546147b1565b825550505050565b600090565b61486b61485e565b614876818484614839565b505050565b5b8181101561489a5761488f600082614863565b60018101905061487c565b5050565b601f8211156148df576148b08161477f565b6148b984614794565b810160208510156148c8578190505b6148dc6148d485614794565b83018261487b565b50505b505050565b600082821c905092915050565b6000614902600019846008026148e4565b1980831691505092915050565b600061491b83836148f1565b9150826002028217905092915050565b614934826132f1565b67ffffffffffffffff81111561494d5761494c61388f565b5b6149578254613aac565b61496282828561489e565b600060209050601f8311600181146149955760008415614983578287015190505b61498d858261490f565b8655506149f5565b601f1984166149a38661477f565b60005b828110156149cb578489015182556001820191506020850194506020810190506149a6565b868310156149e857848901516149e4601f8916826148f1565b8355505b6001600288020188555050505b505050505050565b7f4552433732313a20617070726f766520746f2063616c6c657200000000000000600082015250565b6000614a336019836132fc565b9150614a3e826149fd565b602082019050919050565b60006020820190508181036000830152614a6281614a26565b9050919050565b7f4552433732313a207472616e7366657220746f206e6f6e20455243373231526560008201527f63656976657220696d706c656d656e7465720000000000000000000000000000602082015250565b6000614ac56032836132fc565b9150614ad082614a69565b604082019050919050565b60006020820190508181036000830152614af481614ab8565b9050919050565b6000614b06826133a3565b9150614b11836133a3565b9250828203905081811115614b2957614b2861422a565b5b92915050565b600081519050919050565b600082825260208201905092915050565b6000614b5682614b2f565b614b608185614b3a565b9350614b7081856020860161330d565b614b7981613337565b840191505092915050565b6000608082019050614b996000830187613438565b614ba66020830186613438565b614bb36040830185613613565b8181036060830152614bc58184614b4b565b905095945050505050565b600081519050614bdf81613262565b92915050565b600060208284031215614bfb57614bfa61322c565b5b6000614c0984828501614bd0565b91505092915050565b7f4e487b7100000000000000000000000000000000000000000000000000000000600052601260045260246000fd5b7f4552433732313a206d696e7420746f20746865207a65726f2061646472657373600082015250565b6000614c776020836132fc565b9150614c8282614c41565b602082019050919050565b60006020820190508181036000830152614ca681614c6a565b9050919050565b7f4552433732313a20746f6b656e20616c7265616479206d696e74656400000000600082015250565b6000614ce3601c836132fc565b9150614cee82614cad565b602082019050919050565b60006020820190508181036000830152614d1281614cd6565b905091905056fea2646970667358221220f70f3d173002a6b293433a1f1d24c966140c2566bfb39d71b0b3241d1ae8d47264736f6c63430008110033",
  "linkReferences": {},
  "deployedLinkReferences": {}
}