{
  "_format": "hh-sol-artifact-1",
  "contractName": "NFTMarketplace",
  "sourceName": "contracts/NFTMarketplace.sol",
  "abi": [
    {
      "inputs": [],
      "stateMutability": "nonpayable",
      "type": "constructor"
    },
    {
      "anonymous": false,
      "inputs": [
        {
          "indexed": true,
          "internalType": "address",
          "name": "owner",
          "type": "address"
        },
        {
          "indexed": true,
          "internalType": "address",
          "name": "approved",
          "type": "address"
        },
        {
          "indexed": true,
          "internalType": "uint256",
          "name": "tokenId",
          "type": "uint256"
        }
      ],
      "name": "Approval",
      "type": "event"
    },
    {
      "anonymous": false,
      "inputs": [
        {
          "indexed": true,
          "internalType": "address",
          "name": "owner",
          "type": "address"
        },
        {
          "indexed": true,
          "internalType": "address",
          "name": "operator",
          "type": "address"
        },
        {
          "indexed": false,
          "internalType": "bool",
          "name": "approved",
          "type": "bool"
        }
      ],
      "name": "ApprovalForAll",
      "type": "event"
    },
    {
      "anonymous": false,
      "inputs": [
        {
          "indexed": true,
          "internalType": "uint256",
          "name": "tokenId",
          "type": "uint256"
        },
        {
          "indexed": false,
          "internalType": "address",
          "name": "owner",
          "type": "address"
        }
      ],
      "name": "NftItemCreated",
      "type": "event"
    },
    {
      "anonymous": false,
      "inputs": [
        {
          "indexed": true,
          "internalType": "uint256",
          "name": "tokenId",
          "type": "uint256"
        },
        {
          "indexed": false,
          "internalType": "address",
          "name": "owner",
          "type": "address"
        },
        {
          "indexed": false,
          "internalType": "uint256",
          "name": "price",
          "type": "uint256"
        }
      ],
      "name": "NftItemListed",
      "type": "event"
    },
    {
      "anonymous": false,
      "inputs": [
        {
          "indexed": true,
          "internalType": "uint256",
          "name": "tokenId",
          "type": "uint256"
        },
        {
          "indexed": false,
          "internalType": "address",
          "name": "seller",
          "type": "address"
        },
        {
          "indexed": false,
          "internalType": "address",
          "name": "buyer",
          "type": "address"
        },
        {
          "indexed": false,
          "internalType": "uint256",
          "name": "price",
          "type": "uint256"
        }
      ],
      "name": "NftItemSold",
      "type": "event"
    },
    {
      "anonymous": false,
      "inputs": [
        {
          "indexed": true,
          "internalType": "uint256",
          "name": "tokenId",
          "type": "uint256"
        },
        {
          "indexed": false,
          "internalType": "address",
          "name": "seller",
          "type": "address"
        }
      ],
      "name": "NftItemUnlisted",
      "type": "event"
    },
    {
      "anonymous": false,
      "inputs": [
        {
          "indexed": true,
          "internalType": "uint256",
          "name": "tokenId",
          "type": "uint256"
        },
        {
          "indexed": false,
          "internalType": "address",
          "name": "seller",
          "type": "address"
        },
        {
          "indexed": false,
          "internalType": "uint256",
          "name": "price",
          "type": "uint256"
        }
      ],
      "name": "NftItemUpdatePrice",
      "type": "event"
    },
    {
      "anonymous": false,
      "inputs": [
        {
          "indexed": true,
          "internalType": "address",
          "name": "previousOwner",
          "type": "address"
        },
        {
          "indexed": true,
          "internalType": "address",
          "name": "newOwner",
          "type": "address"
        }
      ],
      "name": "OwnershipTransferred",
      "type": "event"
    },
    {
      "anonymous": false,
      "inputs": [
        {
          "indexed": true,
          "internalType": "address",
          "name": "from",
          "type": "address"
        },
        {
          "indexed": true,
          "internalType": "address",
          "name": "to",
          "type": "address"
        },
        {
          "indexed": true,
          "internalType": "uint256",
          "name": "tokenId",
          "type": "uint256"
        }
      ],
      "name": "Transfer",
      "type": "event"
    },
    {
      "inputs": [
        {
          "internalType": "address",
          "name": "to",
          "type": "address"
        },
        {
          "internalType": "uint256",
          "name": "tokenId",
          "type": "uint256"
        }
      ],
      "name": "approve",
      "outputs": [],
      "stateMutability": "nonpayable",
      "type": "function"
    },
    {
      "inputs": [
        {
          "internalType": "address",
          "name": "owner",
          "type": "address"
        }
      ],
      "name": "balanceOf",
      "outputs": [
        {
          "internalType": "uint256",
          "name": "",
          "type": "uint256"
        }
      ],
      "stateMutability": "view",
      "type": "function"
    },
    {
      "inputs": [
        {
          "internalType": "uint256",
          "name": "tokenId",
          "type": "uint256"
        }
      ],
      "name": "buyNftItem",
      "outputs": [],
      "stateMutability": "payable",
      "type": "function"
    },
    {
      "inputs": [],
      "name": "getAllNFTItem",
      "outputs": [
        {
          "components": [
            {
              "internalType": "uint256",
              "name": "tokenId",
              "type": "uint256"
            },
            {
              "internalType": "address",
              "name": "owner",
              "type": "address"
            },
            {
              "internalType": "address",
              "name": "seller",
              "type": "address"
            },
            {
              "internalType": "uint256",
              "name": "price",
              "type": "uint256"
            }
          ],
          "internalType": "struct NFTMarketplace.NftItem[]",
          "name": "",
          "type": "tuple[]"
        }
      ],
      "stateMutability": "view",
      "type": "function"
    },
    {
      "inputs": [
        {
          "internalType": "uint256",
          "name": "tokenId",
          "type": "uint256"
        }
      ],
      "name": "getApproved",
      "outputs": [
        {
          "internalType": "address",
          "name": "",
          "type": "address"
        }
      ],
      "stateMutability": "view",
      "type": "function"
    },
    {
      "inputs": [],
      "name": "getListingFee",
      "outputs": [
        {
          "internalType": "uint256",
          "name": "",
          "type": "uint256"
        }
      ],
      "stateMutability": "view",
      "type": "function"
    },
    {
      "inputs": [
        {
          "internalType": "uint256",
          "name": "tokenId",
          "type": "uint256"
        }
      ],
      "name": "getNFTItem",
      "outputs": [
        {
          "components": [
            {
              "internalType": "uint256",
              "name": "tokenId",
              "type": "uint256"
            },
            {
              "internalType": "address",
              "name": "owner",
              "type": "address"
            },
            {
              "internalType": "address",
              "name": "seller",
              "type": "address"
            },
            {
              "internalType": "uint256",
              "name": "price",
              "type": "uint256"
            }
          ],
          "internalType": "struct NFTMarketplace.NftItem",
          "name": "",
          "type": "tuple"
        }
      ],
      "stateMutability": "view",
      "type": "function"
    },
    {
      "inputs": [],
      "name": "getTotalSupply",
      "outputs": [
        {
          "internalType": "uint256",
          "name": "",
          "type": "uint256"
        }
      ],
      "stateMutability": "view",
      "type": "function"
    },
    {
      "inputs": [
        {
          "internalType": "address",
          "name": "userAddress",
          "type": "address"
        }
      ],
      "name": "getUserNFT",
      "outputs": [
        {
          "components": [
            {
              "internalType": "uint256",
              "name": "tokenId",
              "type": "uint256"
            },
            {
              "internalType": "address",
              "name": "owner",
              "type": "address"
            },
            {
              "internalType": "address",
              "name": "seller",
              "type": "address"
            },
            {
              "internalType": "uint256",
              "name": "price",
              "type": "uint256"
            }
          ],
          "internalType": "struct NFTMarketplace.NftItem[]",
          "name": "",
          "type": "tuple[]"
        }
      ],
      "stateMutability": "view",
      "type": "function"
    },
    {
      "inputs": [
        {
          "internalType": "address",
          "name": "owner",
          "type": "address"
        },
        {
          "internalType": "address",
          "name": "operator",
          "type": "address"
        }
      ],
      "name": "isApprovedForAll",
      "outputs": [
        {
          "internalType": "bool",
          "name": "",
          "type": "bool"
        }
      ],
      "stateMutability": "view",
      "type": "function"
    },
    {
      "inputs": [
        {
          "internalType": "uint256",
          "name": "tokenId",
          "type": "uint256"
        },
        {
          "internalType": "uint256",
          "name": "price",
          "type": "uint256"
        }
      ],
      "name": "listNftItem",
      "outputs": [],
      "stateMutability": "payable",
      "type": "function"
    },
    {
      "inputs": [
        {
          "internalType": "string",
          "name": "tokenURI",
          "type": "string"
        }
      ],
      "name": "mintToken",
      "outputs": [
        {
          "internalType": "uint256",
          "name": "",
          "type": "uint256"
        }
      ],
      "stateMutability": "nonpayable",
      "type": "function"
    },
    {
      "inputs": [],
      "name": "name",
      "outputs": [
        {
          "internalType": "string",
          "name": "",
          "type": "string"
        }
      ],
      "stateMutability": "view",
      "type": "function"
    },
    {
      "inputs": [],
      "name": "owner",
      "outputs": [
        {
          "internalType": "address",
          "name": "",
          "type": "address"
        }
      ],
      "stateMutability": "view",
      "type": "function"
    },
    {
      "inputs": [
        {
          "internalType": "uint256",
          "name": "tokenId",
          "type": "uint256"
        }
      ],
      "name": "ownerOf",
      "outputs": [
        {
          "internalType": "address",
          "name": "",
          "type": "address"
        }
      ],
      "stateMutability": "view",
      "type": "function"
    },
    {
      "inputs": [],
      "name": "renounceOwnership",
      "outputs": [],
      "stateMutability": "nonpayable",
      "type": "function"
    },
    {
      "inputs": [
        {
          "internalType": "address",
          "name": "from",
          "type": "address"
        },
        {
          "internalType": "address",
          "name": "to",
          "type": "address"
        },
        {
          "internalType": "uint256",
          "name": "tokenId",
          "type": "uint256"
        }
      ],
      "name": "safeTransferFrom",
      "outputs": [],
      "stateMutability": "nonpayable",
      "type": "function"
    },
    {
      "inputs": [
        {
          "internalType": "address",
          "name": "from",
          "type": "address"
        },
        {
          "internalType": "address",
          "name": "to",
          "type": "address"
        },
        {
          "internalType": "uint256",
          "name": "tokenId",
          "type": "uint256"
        },
        {
          "internalType": "bytes",
          "name": "data",
          "type": "bytes"
        }
      ],
      "name": "safeTransferFrom",
      "outputs": [],
      "stateMutability": "nonpayable",
      "type": "function"
    },
    {
      "inputs": [
        {
          "internalType": "address",
          "name": "operator",
          "type": "address"
        },
        {
          "internalType": "bool",
          "name": "approved",
          "type": "bool"
        }
      ],
      "name": "setApprovalForAll",
      "outputs": [],
      "stateMutability": "nonpayable",
      "type": "function"
    },
    {
      "inputs": [
        {
          "internalType": "bytes4",
          "name": "interfaceId",
          "type": "bytes4"
        }
      ],
      "name": "supportsInterface",
      "outputs": [
        {
          "internalType": "bool",
          "name": "",
          "type": "bool"
        }
      ],
      "stateMutability": "view",
      "type": "function"
    },
    {
      "inputs": [],
      "name": "symbol",
      "outputs": [
        {
          "internalType": "string",
          "name": "",
          "type": "string"
        }
      ],
      "stateMutability": "view",
      "type": "function"
    },
    {
      "inputs": [
        {
          "internalType": "uint256",
          "name": "tokenId",
          "type": "uint256"
        }
      ],
      "name": "tokenURI",
      "outputs": [
        {
          "internalType": "string",
          "name": "",
          "type": "string"
        }
      ],
      "stateMutability": "view",
      "type": "function"
    },
    {
      "inputs": [
        {
          "internalType": "address",
          "name": "from",
          "type": "address"
        },
        {
          "internalType": "address",
          "name": "to",
          "type": "address"
        },
        {
          "internalType": "uint256",
          "name": "tokenId",
          "type": "uint256"
        }
      ],
      "name": "transferFrom",
      "outputs": [],
      "stateMutability": "nonpayable",
      "type": "function"
    },
    {
      "inputs": [
        {
          "internalType": "address",
          "name": "newOwner",
          "type": "address"
        }
      ],
      "name": "transferOwnership",
      "outputs": [],
      "stateMutability": "nonpayable",
      "type": "function"
    },
    {
      "inputs": [
        {
          "internalType": "uint256",
          "name": "tokenId",
          "type": "uint256"
        }
      ],
      "name": "unlistNftItem",
      "outputs": [],
      "stateMutability": "nonpayable",
      "type": "function"
    },
    {
      "inputs": [
        {
          "internalType": "uint256",
          "name": "tokenId",
          "type": "uint256"
        },
        {
          "internalType": "uint256",
          "name": "price",
          "type": "uint256"
        }
      ],
      "name": "updateItemPrice",
      "outputs": [],
      "stateMutability": "nonpayable",
      "type": "function"
    },
    {
      "inputs": [
        {
          "internalType": "uint256",
          "name": "_listingFee",
          "type": "uint256"
        }
      ],
      "name": "updateListingFee",
      "outputs": [],
      "stateMutability": "nonpayable",
      "type": "function"
    },
    {
      "inputs": [
        {
          "internalType": "uint256",
          "name": "amount",
          "type": "uint256"
        }
      ],
      "name": "withdrawFunds",
      "outputs": [],
      "stateMutability": "nonpayable",
      "type": "function"
    }
  ],
  "bytecode": "0x60806040526605543df729c0006009553480156200001c57600080fd5b506040518060400160405280601381526020017f4e4654204d657461766572736520546f6b656e000000000000000000000000008152506040518060400160405280600581526020017f4d594e465400000000000000000000000000000000000000000000000000000081525081600090816200009a91906200041d565b508060019081620000ac91906200041d565b505050620000cf620000c3620000d560201b60201c565b620000dd60201b60201c565b62000504565b600033905090565b6000600760009054906101000a900473ffffffffffffffffffffffffffffffffffffffff16905081600760006101000a81548173ffffffffffffffffffffffffffffffffffffffff021916908373ffffffffffffffffffffffffffffffffffffffff1602179055508173ffffffffffffffffffffffffffffffffffffffff168173ffffffffffffffffffffffffffffffffffffffff167f8be0079c531659141344cd1fd0a4f28419497f9722a3daafe3b4186f6b6457e060405160405180910390a35050565b600081519050919050565b7f4e487b7100000000000000000000000000000000000000000000000000000000600052604160045260246000fd5b7f4e487b7100000000000000000000000000000000000000000000000000000000600052602260045260246000fd5b600060028204905060018216806200022557607f821691505b6020821081036200023b576200023a620001dd565b5b50919050565b60008190508160005260206000209050919050565b60006020601f8301049050919050565b600082821b905092915050565b600060088302620002a57fffffffffffffffffffffffffffffffffffffffffffffffffffffffffffffffff8262000266565b620002b1868362000266565b95508019841693508086168417925050509392505050565b6000819050919050565b6000819050919050565b6000620002fe620002f8620002f284620002c9565b620002d3565b620002c9565b9050919050565b6000819050919050565b6200031a83620002dd565b62000332620003298262000305565b84845462000273565b825550505050565b600090565b620003496200033a565b620003568184846200030f565b505050565b5b818110156200037e57620003726000826200033f565b6001810190506200035c565b5050565b601f821115620003cd57620003978162000241565b620003a28462000256565b81016020851015620003b2578190505b620003ca620003c18562000256565b8301826200035b565b50505b505050565b600082821c905092915050565b6000620003f260001984600802620003d2565b1980831691505092915050565b60006200040d8383620003df565b9150826002028217905092915050565b6200042882620001a3565b67ffffffffffffffff811115620004445762000443620001ae565b5b6200045082546200020c565b6200045d82828562000382565b600060209050601f83116001811462000495576000841562000480578287015190505b6200048c8582620003ff565b865550620004fc565b601f198416620004a58662000241565b60005b82811015620004cf57848901518255600182019150602085019450602081019050620004a8565b86831015620004ef5784890151620004eb601f891682620003df565b8355505b6001600288020188555050505b505050505050565b61501780620005146000396000f3fe6080604052600436106101b75760003560e01c80638cc0f321116100ec578063c4e41b221161008a578063e985e9c511610064578063e985e9c514610600578063f2fde38b1461063d578063f79d91ae14610666578063fe59d5541461068f576101b7565b8063c4e41b221461056f578063c87b56dd1461059a578063d8bb6223146105d7576101b7565b8063a22cb465116100c6578063a22cb465146104d6578063b88d4fde146104ff578063b8fe6abe14610528578063bf4a9af314610553576101b7565b80638cc0f321146104555780638da5cb5b1461048057806395d89b41146104ab576101b7565b806333eba49a116101595780636352211e116101335780636352211e146103875780636a3ceff9146103c457806370a0823114610401578063715018a61461043e576101b7565b806333eba49a1461030557806342842e0e1461034257806354e872c81461036b576101b7565b8063095ea7b311610195578063095ea7b314610261578063155dd5ee1461028a57806323b872dd146102b35780632769b96b146102dc576101b7565b806301ffc9a7146101bc57806306fdde03146101f9578063081812fc14610224575b600080fd5b3480156101c857600080fd5b506101e360048036038101906101de9190613556565b6106cc565b6040516101f0919061359e565b60405180910390f35b34801561020557600080fd5b5061020e6107ae565b60405161021b9190613649565b60405180910390f35b34801561023057600080fd5b5061024b600480360381019061024691906136a1565b610840565b604051610258919061370f565b60405180910390f35b34801561026d57600080fd5b5061028860048036038101906102839190613756565b610886565b005b34801561029657600080fd5b506102b160048036038101906102ac91906136a1565b61099d565b005b3480156102bf57600080fd5b506102da60048036038101906102d59190613796565b610a44565b005b3480156102e857600080fd5b5061030360048036038101906102fe91906137e9565b610aa4565b005b34801561031157600080fd5b5061032c6004803603810190610327919061388e565b610bda565b60405161033991906138ea565b60405180910390f35b34801561034e57600080fd5b5061036960048036038101906103649190613796565b610d9e565b005b610385600480360381019061038091906137e9565b610dbe565b005b34801561039357600080fd5b506103ae60048036038101906103a991906136a1565b61105c565b6040516103bb919061370f565b60405180910390f35b3480156103d057600080fd5b506103eb60048036038101906103e691906136a1565b6110e2565b6040516103f89190613978565b60405180910390f35b34801561040d57600080fd5b5061042860048036038101906104239190613993565b61121b565b60405161043591906138ea565b60405180910390f35b34801561044a57600080fd5b506104536112d2565b005b34801561046157600080fd5b5061046a6112e6565b6040516104779190613ac4565b60405180910390f35b34801561048c57600080fd5b506104956114fd565b6040516104a2919061370f565b60405180910390f35b3480156104b757600080fd5b506104c0611527565b6040516104cd9190613649565b60405180910390f35b3480156104e257600080fd5b506104fd60048036038101906104f89190613b12565b6115b9565b005b34801561050b57600080fd5b5061052660048036038101906105219190613c82565b6115cf565b005b34801561053457600080fd5b5061053d611631565b60405161054a91906138ea565b60405180910390f35b61056d600480360381019061056891906136a1565b61163b565b005b34801561057b57600080fd5b50610584611ad2565b60405161059191906138ea565b60405180910390f35b3480156105a657600080fd5b506105c160048036038101906105bc91906136a1565b611ae3565b6040516105ce9190613649565b60405180910390f35b3480156105e357600080fd5b506105fe60048036038101906105f991906136a1565b611bf5565b005b34801561060c57600080fd5b5061062760048036038101906106229190613d05565b611dfe565b604051610634919061359e565b60405180910390f35b34801561064957600080fd5b50610664600480360381019061065f9190613993565b611e92565b005b34801561067257600080fd5b5061068d600480360381019061068891906136a1565b611f15565b005b34801561069b57600080fd5b506106b660048036038101906106b19190613993565b611f6c565b6040516106c39190613ac4565b60405180910390f35b60007f80ac58cd000000000000000000000000000000000000000000000000000000007bffffffffffffffffffffffffffffffffffffffffffffffffffffffff1916827bffffffffffffffffffffffffffffffffffffffffffffffffffffffff1916148061079757507f5b5e139f000000000000000000000000000000000000000000000000000000007bffffffffffffffffffffffffffffffffffffffffffffffffffffffff1916827bffffffffffffffffffffffffffffffffffffffffffffffffffffffff1916145b806107a757506107a682612229565b5b9050919050565b6060600080546107bd90613d74565b80601f01602080910402602001604051908101604052809291908181526020018280546107e990613d74565b80156108365780601f1061080b57610100808354040283529160200191610836565b820191906000526020600020905b81548152906001019060200180831161081957829003601f168201915b5050505050905090565b600061084b82612293565b6004600083815260200190815260200160002060009054906101000a900473ffffffffffffffffffffffffffffffffffffffff169050919050565b60006108918261105c565b90508073ffffffffffffffffffffffffffffffffffffffff168373ffffffffffffffffffffffffffffffffffffffff1603610901576040517f08c379a00000000000000000000000000000000000000000000000000000000081526004016108f890613e17565b60405180910390fd5b8073ffffffffffffffffffffffffffffffffffffffff166109206122de565b73ffffffffffffffffffffffffffffffffffffffff16148061094f575061094e816109496122de565b611dfe565b5b61098e576040517f08c379a000000000000000000000000000000000000000000000000000000000815260040161098590613ea9565b60405180910390fd5b61099883836122e6565b505050565b6109a561239f565b60004790508082106109ec576040517f08c379a00000000000000000000000000000000000000000000000000000000081526004016109e390613f15565b60405180910390fd5b60006109f66114fd565b90508073ffffffffffffffffffffffffffffffffffffffff166108fc849081150290604051600060405180830381858888f19350505050158015610a3e573d6000803e3d6000fd5b50505050565b610a55610a4f6122de565b8261241d565b610a94576040517f08c379a0000000000000000000000000000000000000000000000000000000008152600401610a8b90613fa7565b60405180910390fd5b610a9f8383836124b2565b505050565b8060008111610ae8576040517f08c379a0000000000000000000000000000000000000000000000000000000008152600401610adf90614039565b60405180910390fd5b6000600b600085815260200190815260200160002090503373ffffffffffffffffffffffffffffffffffffffff168160020160009054906101000a900473ffffffffffffffffffffffffffffffffffffffff1673ffffffffffffffffffffffffffffffffffffffff1614610b91576040517f08c379a0000000000000000000000000000000000000000000000000000000008152600401610b88906140cb565b60405180910390fd5b828160030181905550837fdc102d7305d6f43261ab7f3e49a4bc451fdf68b255f7af5b51d68eabe2b7f9fa3385604051610bcc9291906140eb565b60405180910390a250505050565b6000600a8383604051610bee929190614144565b908152602001604051809103902060009054906101000a900460ff1615610c4a576040517f08c379a0000000000000000000000000000000000000000000000000000000008152600401610c41906141a9565b60405180910390fd5b610c5460086127ab565b6000610c6060086127c1565b9050610c6c33826127cf565b610cba8185858080601f016020809104026020016040519081016040528093929190818152602001838380828437600081840152601f19601f820116905080830192505050505050506127ed565b6001600a8585604051610cce929190614144565b908152602001604051809103902060006101000a81548160ff0219169083151502179055506000600c60003373ffffffffffffffffffffffffffffffffffffffff1673ffffffffffffffffffffffffffffffffffffffff168152602001908152602001600020549050600181610d4491906141f8565b905080600c60003373ffffffffffffffffffffffffffffffffffffffff1673ffffffffffffffffffffffffffffffffffffffff16815260200190815260200160002081905550610d938261285a565b819250505092915050565b610db9838383604051806020016040528060008152506115cf565b505050565b8060008111610e02576040517f08c379a0000000000000000000000000000000000000000000000000000000008152600401610df990614039565b60405180910390fd5b6009543414610e46576040517f08c379a0000000000000000000000000000000000000000000000000000000008152600401610e3d9061429e565b60405180910390fd5b6000600b600085815260200190815260200160002090503373ffffffffffffffffffffffffffffffffffffffff168160010160009054906101000a900473ffffffffffffffffffffffffffffffffffffffff1673ffffffffffffffffffffffffffffffffffffffff1614610eef576040517f08c379a0000000000000000000000000000000000000000000000000000000008152600401610ee690614330565b60405180910390fd5b600073ffffffffffffffffffffffffffffffffffffffff168160020160009054906101000a900473ffffffffffffffffffffffffffffffffffffffff1673ffffffffffffffffffffffffffffffffffffffff1614610f82576040517f08c379a0000000000000000000000000000000000000000000000000000000008152600401610f799061439c565b60405180910390fd5b828160030181905550338160020160006101000a81548173ffffffffffffffffffffffffffffffffffffffff021916908373ffffffffffffffffffffffffffffffffffffffff160217905550308160010160006101000a81548173ffffffffffffffffffffffffffffffffffffffff021916908373ffffffffffffffffffffffffffffffffffffffff16021790555061101c333086610a44565b837f2d0b07406646b5adfda45c694983867c52e3ce31d9e136feb83b9f7cc59bdbef338560405161104e9291906140eb565b60405180910390a250505050565b6000806110688361299c565b9050600073ffffffffffffffffffffffffffffffffffffffff168173ffffffffffffffffffffffffffffffffffffffff16036110d9576040517f08c379a00000000000000000000000000000000000000000000000000000000081526004016110d090614408565b60405180910390fd5b80915050919050565b6110ea613496565b6110f460086127c1565b821115611136576040517f08c379a000000000000000000000000000000000000000000000000000000000815260040161112d90614474565b60405180910390fd5b600b6000838152602001908152602001600020604051806080016040529081600082015481526020016001820160009054906101000a900473ffffffffffffffffffffffffffffffffffffffff1673ffffffffffffffffffffffffffffffffffffffff1673ffffffffffffffffffffffffffffffffffffffff1681526020016002820160009054906101000a900473ffffffffffffffffffffffffffffffffffffffff1673ffffffffffffffffffffffffffffffffffffffff1673ffffffffffffffffffffffffffffffffffffffff1681526020016003820154815250509050919050565b60008073ffffffffffffffffffffffffffffffffffffffff168273ffffffffffffffffffffffffffffffffffffffff160361128b576040517f08c379a000000000000000000000000000000000000000000000000000000000815260040161128290614506565b60405180910390fd5b600360008373ffffffffffffffffffffffffffffffffffffffff1673ffffffffffffffffffffffffffffffffffffffff168152602001908152602001600020549050919050565b6112da61239f565b6112e460006129d9565b565b606060006112f460086127c1565b905060006113013061121b565b90506000808267ffffffffffffffff8111156113205761131f613b57565b5b60405190808252806020026020018201604052801561135957816020015b611346613496565b81526020019060019003908161133e5790505b5090506000600190505b8481116114f2573073ffffffffffffffffffffffffffffffffffffffff16600b600083815260200190815260200160002060010160009054906101000a900473ffffffffffffffffffffffffffffffffffffffff1673ffffffffffffffffffffffffffffffffffffffff16036114df57600b6000828152602001908152602001600020604051806080016040529081600082015481526020016001820160009054906101000a900473ffffffffffffffffffffffffffffffffffffffff1673ffffffffffffffffffffffffffffffffffffffff1673ffffffffffffffffffffffffffffffffffffffff1681526020016002820160009054906101000a900473ffffffffffffffffffffffffffffffffffffffff1673ffffffffffffffffffffffffffffffffffffffff1673ffffffffffffffffffffffffffffffffffffffff1681526020016003820154815250508284815181106114c4576114c3614526565b5b60200260200101819052506001836114dc91906141f8565b92505b80806114ea90614555565b915050611363565b508094505050505090565b6000600760009054906101000a900473ffffffffffffffffffffffffffffffffffffffff16905090565b60606001805461153690613d74565b80601f016020809104026020016040519081016040528092919081815260200182805461156290613d74565b80156115af5780601f10611584576101008083540402835291602001916115af565b820191906000526020600020905b81548152906001019060200180831161159257829003601f168201915b5050505050905090565b6115cb6115c46122de565b8383612a9f565b5050565b6115e06115da6122de565b8361241d565b61161f576040517f08c379a000000000000000000000000000000000000000000000000000000000815260040161161690613fa7565b60405180910390fd5b61162b84848484612c0b565b50505050565b6000600954905090565b6000600b600083815260200190815260200160002090503073ffffffffffffffffffffffffffffffffffffffff168160010160009054906101000a900473ffffffffffffffffffffffffffffffffffffffff1673ffffffffffffffffffffffffffffffffffffffff16146116e4576040517f08c379a00000000000000000000000000000000000000000000000000000000081526004016116db906145e9565b60405180910390fd5b3073ffffffffffffffffffffffffffffffffffffffff163373ffffffffffffffffffffffffffffffffffffffff161415801561177057508060020160009054906101000a900473ffffffffffffffffffffffffffffffffffffffff1673ffffffffffffffffffffffffffffffffffffffff163373ffffffffffffffffffffffffffffffffffffffff1614155b6117af576040517f08c379a00000000000000000000000000000000000000000000000000000000081526004016117a69061467b565b60405180910390fd5b806003015434146117f5576040517f08c379a00000000000000000000000000000000000000000000000000000000081526004016117ec906146e7565b60405180910390fd5b6118003033846124b2565b8060020160009054906101000a900473ffffffffffffffffffffffffffffffffffffffff1673ffffffffffffffffffffffffffffffffffffffff166108fc349081150290604051600060405180830381858888f1935050505015801561186a573d6000803e3d6000fd5b506000600c60008360020160009054906101000a900473ffffffffffffffffffffffffffffffffffffffff1673ffffffffffffffffffffffffffffffffffffffff1673ffffffffffffffffffffffffffffffffffffffff1681526020019081526020016000205490506001816118e09190614707565b905080600c60008460020160009054906101000a900473ffffffffffffffffffffffffffffffffffffffff1673ffffffffffffffffffffffffffffffffffffffff1673ffffffffffffffffffffffffffffffffffffffff168152602001908152602001600020819055506000600c60003373ffffffffffffffffffffffffffffffffffffffff1673ffffffffffffffffffffffffffffffffffffffff16815260200190815260200160002054905060018161199b91906141f8565b905080600c60003373ffffffffffffffffffffffffffffffffffffffff1673ffffffffffffffffffffffffffffffffffffffff16815260200190815260200160002081905550837f2d73dd92d35e94355b9cede301254b0005743570b2b2ff7bd6c3a2071c8446f18460020160009054906101000a900473ffffffffffffffffffffffffffffffffffffffff16338660030154604051611a3d9392919061473b565b60405180910390a2338360010160006101000a81548173ffffffffffffffffffffffffffffffffffffffff021916908373ffffffffffffffffffffffffffffffffffffffff16021790555060008360020160006101000a81548173ffffffffffffffffffffffffffffffffffffffff021916908373ffffffffffffffffffffffffffffffffffffffff16021790555050505050565b6000611ade60086127c1565b905090565b6060611aee82612293565b6000600660008481526020019081526020016000208054611b0e90613d74565b80601f0160208091040260200160405190810160405280929190818152602001828054611b3a90613d74565b8015611b875780601f10611b5c57610100808354040283529160200191611b87565b820191906000526020600020905b815481529060010190602001808311611b6a57829003601f168201915b505050505090506000611b98612c67565b90506000815103611bad578192505050611bf0565b600082511115611be2578082604051602001611bca9291906147a3565b60405160208183030381529060405292505050611bf0565b611beb84612c7e565b925050505b919050565b6000600b600083815260200190815260200160002090503373ffffffffffffffffffffffffffffffffffffffff168160020160009054906101000a900473ffffffffffffffffffffffffffffffffffffffff1673ffffffffffffffffffffffffffffffffffffffff1614611c9e576040517f08c379a0000000000000000000000000000000000000000000000000000000008152600401611c95906140cb565b60405180910390fd5b3073ffffffffffffffffffffffffffffffffffffffff168160010160009054906101000a900473ffffffffffffffffffffffffffffffffffffffff1673ffffffffffffffffffffffffffffffffffffffff1614611d30576040517f08c379a0000000000000000000000000000000000000000000000000000000008152600401611d27906145e9565b60405180910390fd5b338160010160006101000a81548173ffffffffffffffffffffffffffffffffffffffff021916908373ffffffffffffffffffffffffffffffffffffffff16021790555060008160020160006101000a81548173ffffffffffffffffffffffffffffffffffffffff021916908373ffffffffffffffffffffffffffffffffffffffff160217905550611dc23033846124b2565b817fb97032b600d39f783b6f5068e583b806e0c63ccf30ef5e9e90f7c4ff87d14bc233604051611df2919061370f565b60405180910390a25050565b6000600560008473ffffffffffffffffffffffffffffffffffffffff1673ffffffffffffffffffffffffffffffffffffffff16815260200190815260200160002060008373ffffffffffffffffffffffffffffffffffffffff1673ffffffffffffffffffffffffffffffffffffffff16815260200190815260200160002060009054906101000a900460ff16905092915050565b611e9a61239f565b600073ffffffffffffffffffffffffffffffffffffffff168173ffffffffffffffffffffffffffffffffffffffff1603611f09576040517f08c379a0000000000000000000000000000000000000000000000000000000008152600401611f0090614839565b60405180910390fd5b611f12816129d9565b50565b611f1d61239f565b8060008111611f61576040517f08c379a0000000000000000000000000000000000000000000000000000000008152600401611f5890614039565b60405180910390fd5b816009819055505050565b60606000611f7a60086127c1565b90506000600c60008573ffffffffffffffffffffffffffffffffffffffff1673ffffffffffffffffffffffffffffffffffffffff1681526020019081526020016000205490506000808267ffffffffffffffff811115611fdd57611fdc613b57565b5b60405190808252806020026020018201604052801561201657816020015b612003613496565b815260200190600190039081611ffb5790505b5090506000600190505b84811161221c578673ffffffffffffffffffffffffffffffffffffffff16600b600083815260200190815260200160002060010160009054906101000a900473ffffffffffffffffffffffffffffffffffffffff1673ffffffffffffffffffffffffffffffffffffffff1614806120f857508673ffffffffffffffffffffffffffffffffffffffff16600b600083815260200190815260200160002060020160009054906101000a900473ffffffffffffffffffffffffffffffffffffffff1673ffffffffffffffffffffffffffffffffffffffff16145b1561220957600b6000828152602001908152602001600020604051806080016040529081600082015481526020016001820160009054906101000a900473ffffffffffffffffffffffffffffffffffffffff1673ffffffffffffffffffffffffffffffffffffffff1673ffffffffffffffffffffffffffffffffffffffff1681526020016002820160009054906101000a900473ffffffffffffffffffffffffffffffffffffffff1673ffffffffffffffffffffffffffffffffffffffff1673ffffffffffffffffffffffffffffffffffffffff1681526020016003820154815250508284815181106121ee576121ed614526565b5b602002602001018190525060018361220691906141f8565b92505b808061221490614555565b915050612020565b5080945050505050919050565b60007f01ffc9a7000000000000000000000000000000000000000000000000000000007bffffffffffffffffffffffffffffffffffffffffffffffffffffffff1916827bffffffffffffffffffffffffffffffffffffffffffffffffffffffff1916149050919050565b61229c81612ce6565b6122db576040517f08c379a00000000000000000000000000000000000000000000000000000000081526004016122d290614408565b60405180910390fd5b50565b600033905090565b816004600083815260200190815260200160002060006101000a81548173ffffffffffffffffffffffffffffffffffffffff021916908373ffffffffffffffffffffffffffffffffffffffff160217905550808273ffffffffffffffffffffffffffffffffffffffff166123598361105c565b73ffffffffffffffffffffffffffffffffffffffff167f8c5be1e5ebec7d5bd14f71427d1e84f3dd0314c0f7b2291e5b200ac8c7c3b92560405160405180910390a45050565b6123a76122de565b73ffffffffffffffffffffffffffffffffffffffff166123c56114fd565b73ffffffffffffffffffffffffffffffffffffffff161461241b576040517f08c379a0000000000000000000000000000000000000000000000000000000008152600401612412906148a5565b60405180910390fd5b565b6000806124298361105c565b90508073ffffffffffffffffffffffffffffffffffffffff168473ffffffffffffffffffffffffffffffffffffffff16148061246b575061246a8185611dfe565b5b806124a957508373ffffffffffffffffffffffffffffffffffffffff1661249184610840565b73ffffffffffffffffffffffffffffffffffffffff16145b91505092915050565b8273ffffffffffffffffffffffffffffffffffffffff166124d28261105c565b73ffffffffffffffffffffffffffffffffffffffff1614612528576040517f08c379a000000000000000000000000000000000000000000000000000000000815260040161251f90614937565b60405180910390fd5b600073ffffffffffffffffffffffffffffffffffffffff168273ffffffffffffffffffffffffffffffffffffffff1603612597576040517f08c379a000000000000000000000000000000000000000000000000000000000815260040161258e906149c9565b60405180910390fd5b6125a48383836001612d27565b8273ffffffffffffffffffffffffffffffffffffffff166125c48261105c565b73ffffffffffffffffffffffffffffffffffffffff161461261a576040517f08c379a000000000000000000000000000000000000000000000000000000000815260040161261190614937565b60405180910390fd5b6004600082815260200190815260200160002060006101000a81549073ffffffffffffffffffffffffffffffffffffffff02191690556001600360008573ffffffffffffffffffffffffffffffffffffffff1673ffffffffffffffffffffffffffffffffffffffff168152602001908152602001600020600082825403925050819055506001600360008473ffffffffffffffffffffffffffffffffffffffff1673ffffffffffffffffffffffffffffffffffffffff16815260200190815260200160002060008282540192505081905550816002600083815260200190815260200160002060006101000a81548173ffffffffffffffffffffffffffffffffffffffff021916908373ffffffffffffffffffffffffffffffffffffffff160217905550808273ffffffffffffffffffffffffffffffffffffffff168473ffffffffffffffffffffffffffffffffffffffff167fddf252ad1be2c89b69c2b068fc378daa952ba7f163c4a11628f55a4df523b3ef60405160405180910390a46127a68383836001612e4d565b505050565b6001816000016000828254019250508190555050565b600081600001549050919050565b6127e9828260405180602001604052806000815250612e53565b5050565b6127f682612ce6565b612835576040517f08c379a000000000000000000000000000000000000000000000000000000000815260040161282c90614a5b565b60405180910390fd5b806006600084815260200190815260200160002090816128559190614c27565b505050565b60405180608001604052808281526020013373ffffffffffffffffffffffffffffffffffffffff168152602001600073ffffffffffffffffffffffffffffffffffffffff1681526020016000815250600b60008381526020019081526020016000206000820151816000015560208201518160010160006101000a81548173ffffffffffffffffffffffffffffffffffffffff021916908373ffffffffffffffffffffffffffffffffffffffff16021790555060408201518160020160006101000a81548173ffffffffffffffffffffffffffffffffffffffff021916908373ffffffffffffffffffffffffffffffffffffffff16021790555060608201518160030155905050807f93beb01ee4f5d2f89d0a0d55db47459601413c9ef0b552599f3ed68f27f82c7933604051612991919061370f565b60405180910390a250565b60006002600083815260200190815260200160002060009054906101000a900473ffffffffffffffffffffffffffffffffffffffff169050919050565b6000600760009054906101000a900473ffffffffffffffffffffffffffffffffffffffff16905081600760006101000a81548173ffffffffffffffffffffffffffffffffffffffff021916908373ffffffffffffffffffffffffffffffffffffffff1602179055508173ffffffffffffffffffffffffffffffffffffffff168173ffffffffffffffffffffffffffffffffffffffff167f8be0079c531659141344cd1fd0a4f28419497f9722a3daafe3b4186f6b6457e060405160405180910390a35050565b8173ffffffffffffffffffffffffffffffffffffffff168373ffffffffffffffffffffffffffffffffffffffff1603612b0d576040517f08c379a0000000000000000000000000000000000000000000000000000000008152600401612b0490614d45565b60405180910390fd5b80600560008573ffffffffffffffffffffffffffffffffffffffff1673ffffffffffffffffffffffffffffffffffffffff16815260200190815260200160002060008473ffffffffffffffffffffffffffffffffffffffff1673ffffffffffffffffffffffffffffffffffffffff16815260200190815260200160002060006101000a81548160ff0219169083151502179055508173ffffffffffffffffffffffffffffffffffffffff168373ffffffffffffffffffffffffffffffffffffffff167f17307eab39ab6107e8899845ad3d59bd9653f200f220920489ca2b5937696c3183604051612bfe919061359e565b60405180910390a3505050565b612c168484846124b2565b612c2284848484612eae565b612c61576040517f08c379a0000000000000000000000000000000000000000000000000000000008152600401612c5890614dd7565b60405180910390fd5b50505050565b606060405180602001604052806000815250905090565b6060612c8982612293565b6000612c93612c67565b90506000815111612cb35760405180602001604052806000815250612cde565b80612cbd84613035565b604051602001612cce9291906147a3565b6040516020818303038152906040525b915050919050565b60008073ffffffffffffffffffffffffffffffffffffffff16612d088361299c565b73ffffffffffffffffffffffffffffffffffffffff1614159050919050565b6001811115612e4757600073ffffffffffffffffffffffffffffffffffffffff168473ffffffffffffffffffffffffffffffffffffffff1614612dbb5780600360008673ffffffffffffffffffffffffffffffffffffffff1673ffffffffffffffffffffffffffffffffffffffff1681526020019081526020016000206000828254612db39190614707565b925050819055505b600073ffffffffffffffffffffffffffffffffffffffff168373ffffffffffffffffffffffffffffffffffffffff1614612e465780600360008573ffffffffffffffffffffffffffffffffffffffff1673ffffffffffffffffffffffffffffffffffffffff1681526020019081526020016000206000828254612e3e91906141f8565b925050819055505b5b50505050565b50505050565b612e5d8383613103565b612e6a6000848484612eae565b612ea9576040517f08c379a0000000000000000000000000000000000000000000000000000000008152600401612ea090614dd7565b60405180910390fd5b505050565b6000612ecf8473ffffffffffffffffffffffffffffffffffffffff16613320565b15613028578373ffffffffffffffffffffffffffffffffffffffff1663150b7a02612ef86122de565b8786866040518563ffffffff1660e01b8152600401612f1a9493929190614e4c565b6020604051808303816000875af1925050508015612f5657506040513d601f19601f82011682018060405250810190612f539190614ead565b60015b612fd8573d8060008114612f86576040519150601f19603f3d011682016040523d82523d6000602084013e612f8b565b606091505b506000815103612fd0576040517f08c379a0000000000000000000000000000000000000000000000000000000008152600401612fc790614dd7565b60405180910390fd5b805181602001fd5b63150b7a0260e01b7bffffffffffffffffffffffffffffffffffffffffffffffffffffffff1916817bffffffffffffffffffffffffffffffffffffffffffffffffffffffff19161491505061302d565b600190505b949350505050565b60606000600161304484613343565b01905060008167ffffffffffffffff81111561306357613062613b57565b5b6040519080825280601f01601f1916602001820160405280156130955781602001600182028036833780820191505090505b509050600082602001820190505b6001156130f8578080600190039150507f3031323334353637383961626364656600000000000000000000000000000000600a86061a8153600a85816130ec576130eb614eda565b5b049450600085036130a3575b819350505050919050565b600073ffffffffffffffffffffffffffffffffffffffff168273ffffffffffffffffffffffffffffffffffffffff1603613172576040517f08c379a000000000000000000000000000000000000000000000000000000000815260040161316990614f55565b60405180910390fd5b61317b81612ce6565b156131bb576040517f08c379a00000000000000000000000000000000000000000000000000000000081526004016131b290614fc1565b60405180910390fd5b6131c9600083836001612d27565b6131d281612ce6565b15613212576040517f08c379a000000000000000000000000000000000000000000000000000000000815260040161320990614fc1565b60405180910390fd5b6001600360008473ffffffffffffffffffffffffffffffffffffffff1673ffffffffffffffffffffffffffffffffffffffff16815260200190815260200160002060008282540192505081905550816002600083815260200190815260200160002060006101000a81548173ffffffffffffffffffffffffffffffffffffffff021916908373ffffffffffffffffffffffffffffffffffffffff160217905550808273ffffffffffffffffffffffffffffffffffffffff16600073ffffffffffffffffffffffffffffffffffffffff167fddf252ad1be2c89b69c2b068fc378daa952ba7f163c4a11628f55a4df523b3ef60405160405180910390a461331c600083836001612e4d565b5050565b6000808273ffffffffffffffffffffffffffffffffffffffff163b119050919050565b600080600090507a184f03e93ff9f4daa797ed6e38ed64bf6a1f01000000000000000083106133a1577a184f03e93ff9f4daa797ed6e38ed64bf6a1f010000000000000000838161339757613396614eda565b5b0492506040810190505b6d04ee2d6d415b85acef810000000083106133de576d04ee2d6d415b85acef810000000083816133d4576133d3614eda565b5b0492506020810190505b662386f26fc10000831061340d57662386f26fc10000838161340357613402614eda565b5b0492506010810190505b6305f5e1008310613436576305f5e100838161342c5761342b614eda565b5b0492506008810190505b612710831061345b57612710838161345157613450614eda565b5b0492506004810190505b6064831061347e576064838161347457613473614eda565b5b0492506002810190505b600a831061348d576001810190505b80915050919050565b604051806080016040528060008152602001600073ffffffffffffffffffffffffffffffffffffffff168152602001600073ffffffffffffffffffffffffffffffffffffffff168152602001600081525090565b6000604051905090565b600080fd5b600080fd5b60007fffffffff0000000000000000000000000000000000000000000000000000000082169050919050565b613533816134fe565b811461353e57600080fd5b50565b6000813590506135508161352a565b92915050565b60006020828403121561356c5761356b6134f4565b5b600061357a84828501613541565b91505092915050565b60008115159050919050565b61359881613583565b82525050565b60006020820190506135b3600083018461358f565b92915050565b600081519050919050565b600082825260208201905092915050565b60005b838110156135f35780820151818401526020810190506135d8565b60008484015250505050565b6000601f19601f8301169050919050565b600061361b826135b9565b61362581856135c4565b93506136358185602086016135d5565b61363e816135ff565b840191505092915050565b600060208201905081810360008301526136638184613610565b905092915050565b6000819050919050565b61367e8161366b565b811461368957600080fd5b50565b60008135905061369b81613675565b92915050565b6000602082840312156136b7576136b66134f4565b5b60006136c58482850161368c565b91505092915050565b600073ffffffffffffffffffffffffffffffffffffffff82169050919050565b60006136f9826136ce565b9050919050565b613709816136ee565b82525050565b60006020820190506137246000830184613700565b92915050565b613733816136ee565b811461373e57600080fd5b50565b6000813590506137508161372a565b92915050565b6000806040838503121561376d5761376c6134f4565b5b600061377b85828601613741565b925050602061378c8582860161368c565b9150509250929050565b6000806000606084860312156137af576137ae6134f4565b5b60006137bd86828701613741565b93505060206137ce86828701613741565b92505060406137df8682870161368c565b9150509250925092565b60008060408385031215613800576137ff6134f4565b5b600061380e8582860161368c565b925050602061381f8582860161368c565b9150509250929050565b600080fd5b600080fd5b600080fd5b60008083601f84011261384e5761384d613829565b5b8235905067ffffffffffffffff81111561386b5761386a61382e565b5b60208301915083600182028301111561388757613886613833565b5b9250929050565b600080602083850312156138a5576138a46134f4565b5b600083013567ffffffffffffffff8111156138c3576138c26134f9565b5b6138cf85828601613838565b92509250509250929050565b6138e48161366b565b82525050565b60006020820190506138ff60008301846138db565b92915050565b61390e8161366b565b82525050565b61391d816136ee565b82525050565b6080820160008201516139396000850182613905565b50602082015161394c6020850182613914565b50604082015161395f6040850182613914565b5060608201516139726060850182613905565b50505050565b600060808201905061398d6000830184613923565b92915050565b6000602082840312156139a9576139a86134f4565b5b60006139b784828501613741565b91505092915050565b600081519050919050565b600082825260208201905092915050565b6000819050602082019050919050565b608082016000820151613a026000850182613905565b506020820151613a156020850182613914565b506040820151613a286040850182613914565b506060820151613a3b6060850182613905565b50505050565b6000613a4d83836139ec565b60808301905092915050565b6000602082019050919050565b6000613a71826139c0565b613a7b81856139cb565b9350613a86836139dc565b8060005b83811015613ab7578151613a9e8882613a41565b9750613aa983613a59565b925050600181019050613a8a565b5085935050505092915050565b60006020820190508181036000830152613ade8184613a66565b905092915050565b613aef81613583565b8114613afa57600080fd5b50565b600081359050613b0c81613ae6565b92915050565b60008060408385031215613b2957613b286134f4565b5b6000613b3785828601613741565b9250506020613b4885828601613afd565b9150509250929050565b600080fd5b7f4e487b7100000000000000000000000000000000000000000000000000000000600052604160045260246000fd5b613b8f826135ff565b810181811067ffffffffffffffff82111715613bae57613bad613b57565b5b80604052505050565b6000613bc16134ea565b9050613bcd8282613b86565b919050565b600067ffffffffffffffff821115613bed57613bec613b57565b5b613bf6826135ff565b9050602081019050919050565b82818337600083830152505050565b6000613c25613c2084613bd2565b613bb7565b905082815260208101848484011115613c4157613c40613b52565b5b613c4c848285613c03565b509392505050565b600082601f830112613c6957613c68613829565b5b8135613c79848260208601613c12565b91505092915050565b60008060008060808587031215613c9c57613c9b6134f4565b5b6000613caa87828801613741565b9450506020613cbb87828801613741565b9350506040613ccc8782880161368c565b925050606085013567ffffffffffffffff811115613ced57613cec6134f9565b5b613cf987828801613c54565b91505092959194509250565b60008060408385031215613d1c57613d1b6134f4565b5b6000613d2a85828601613741565b9250506020613d3b85828601613741565b9150509250929050565b7f4e487b7100000000000000000000000000000000000000000000000000000000600052602260045260246000fd5b60006002820490506001821680613d8c57607f821691505b602082108103613d9f57613d9e613d45565b5b50919050565b7f4552433732313a20617070726f76616c20746f2063757272656e74206f776e6560008201527f7200000000000000000000000000000000000000000000000000000000000000602082015250565b6000613e016021836135c4565b9150613e0c82613da5565b604082019050919050565b60006020820190508181036000830152613e3081613df4565b9050919050565b7f4552433732313a20617070726f76652063616c6c6572206973206e6f7420746f60008201527f6b656e206f776e6572206f7220617070726f76656420666f7220616c6c000000602082015250565b6000613e93603d836135c4565b9150613e9e82613e37565b604082019050919050565b60006020820190508181036000830152613ec281613e86565b9050919050565b7f496e73756666696369656e742062616c616e636520746f207769746864726177600082015250565b6000613eff6020836135c4565b9150613f0a82613ec9565b602082019050919050565b60006020820190508181036000830152613f2e81613ef2565b9050919050565b7f4552433732313a2063616c6c6572206973206e6f7420746f6b656e206f776e6560008201527f72206f7220617070726f76656400000000000000000000000000000000000000602082015250565b6000613f91602d836135c4565b9150613f9c82613f35565b604082019050919050565b60006020820190508181036000830152613fc081613f84565b9050919050565b7f496e7075742076616c7565206d757374206265206174206c656173742031207760008201527f6569000000000000000000000000000000000000000000000000000000000000602082015250565b60006140236022836135c4565b915061402e82613fc7565b604082019050919050565b6000602082019050818103600083015261405281614016565b9050919050565b7f4f6e6c79204e4654206974656d2073656c6c65722063616e2063616c6c20746860008201527f69732066756e6300000000000000000000000000000000000000000000000000602082015250565b60006140b56027836135c4565b91506140c082614059565b604082019050919050565b600060208201905081810360008301526140e4816140a8565b9050919050565b60006040820190506141006000830185613700565b61410d60208301846138db565b9392505050565b600081905092915050565b600061412b8385614114565b9350614138838584613c03565b82840190509392505050565b600061415182848661411f565b91508190509392505050565b7f746f6b656e555249206973206578697374730000000000000000000000000000600082015250565b60006141936012836135c4565b915061419e8261415d565b602082019050919050565b600060208201905081810360008301526141c281614186565b9050919050565b7f4e487b7100000000000000000000000000000000000000000000000000000000600052601160045260246000fd5b60006142038261366b565b915061420e8361366b565b9250828201905080821115614226576142256141c9565b5b92915050565b7f4d616b652073757265206574686572206174746163686564203d3d206c69737460008201527f696e672070726963650000000000000000000000000000000000000000000000602082015250565b60006142886029836135c4565b91506142938261422c565b604082019050919050565b600060208201905081810360008301526142b78161427b565b9050919050565b7f4f6e6c79204e4654206974656d206f776e65722063616e2063616c6c2074686960008201527f732066756e630000000000000000000000000000000000000000000000000000602082015250565b600061431a6026836135c4565b9150614325826142be565b604082019050919050565b600060208201905081810360008301526143498161430d565b9050919050565b7f4e465420776173206c6973746564000000000000000000000000000000000000600082015250565b6000614386600e836135c4565b915061439182614350565b602082019050919050565b600060208201905081810360008301526143b581614379565b9050919050565b7f4552433732313a20696e76616c696420746f6b656e2049440000000000000000600082015250565b60006143f26018836135c4565b91506143fd826143bc565b602082019050919050565b60006020820190508181036000830152614421816143e5565b9050919050565b7f546f6b656e20696420696e76616c696400000000000000000000000000000000600082015250565b600061445e6010836135c4565b915061446982614428565b602082019050919050565b6000602082019050818103600083015261448d81614451565b9050919050565b7f4552433732313a2061646472657373207a65726f206973206e6f74206120766160008201527f6c6964206f776e65720000000000000000000000000000000000000000000000602082015250565b60006144f06029836135c4565b91506144fb82614494565b604082019050919050565b6000602082019050818103600083015261451f816144e3565b9050919050565b7f4e487b7100000000000000000000000000000000000000000000000000000000600052603260045260246000fd5b60006145608261366b565b91507fffffffffffffffffffffffffffffffffffffffffffffffffffffffffffffffff8203614592576145916141c9565b5b600182019050919050565b7f4e4654206973206e6f74206c697374696e670000000000000000000000000000600082015250565b60006145d36012836135c4565b91506145de8261459d565b602082019050919050565b60006020820190508181036000830152614602816145c6565b9050919050565b7f4d616b65207375726520627579657220213d206f776e657220262073656c6c6560008201527f7200000000000000000000000000000000000000000000000000000000000000602082015250565b60006146656021836135c4565b915061467082614609565b604082019050919050565b6000602082019050818103600083015261469481614658565b9050919050565b7f4d616b652073757265207375626d69742076616c7565203d3d20707269636500600082015250565b60006146d1601f836135c4565b91506146dc8261469b565b602082019050919050565b60006020820190508181036000830152614700816146c4565b9050919050565b60006147128261366b565b915061471d8361366b565b9250828203905081811115614735576147346141c9565b5b92915050565b60006060820190506147506000830186613700565b61475d6020830185613700565b61476a60408301846138db565b949350505050565b600061477d826135b9565b6147878185614114565b93506147978185602086016135d5565b80840191505092915050565b60006147af8285614772565b91506147bb8284614772565b91508190509392505050565b7f4f776e61626c653a206e6577206f776e657220697320746865207a65726f206160008201527f6464726573730000000000000000000000000000000000000000000000000000602082015250565b60006148236026836135c4565b915061482e826147c7565b604082019050919050565b6000602082019050818103600083015261485281614816565b9050919050565b7f4f776e61626c653a2063616c6c6572206973206e6f7420746865206f776e6572600082015250565b600061488f6020836135c4565b915061489a82614859565b602082019050919050565b600060208201905081810360008301526148be81614882565b9050919050565b7f4552433732313a207472616e736665722066726f6d20696e636f72726563742060008201527f6f776e6572000000000000000000000000000000000000000000000000000000602082015250565b60006149216025836135c4565b915061492c826148c5565b604082019050919050565b6000602082019050818103600083015261495081614914565b9050919050565b7f4552433732313a207472616e7366657220746f20746865207a65726f2061646460008201527f7265737300000000000000000000000000000000000000000000000000000000602082015250565b60006149b36024836135c4565b91506149be82614957565b604082019050919050565b600060208201905081810360008301526149e2816149a6565b9050919050565b7f45524337323155524953746f726167653a2055524920736574206f66206e6f6e60008201527f6578697374656e7420746f6b656e000000000000000000000000000000000000602082015250565b6000614a45602e836135c4565b9150614a50826149e9565b604082019050919050565b60006020820190508181036000830152614a7481614a38565b9050919050565b60008190508160005260206000209050919050565b60006020601f8301049050919050565b600082821b905092915050565b600060088302614add7fffffffffffffffffffffffffffffffffffffffffffffffffffffffffffffffff82614aa0565b614ae78683614aa0565b95508019841693508086168417925050509392505050565b6000819050919050565b6000614b24614b1f614b1a8461366b565b614aff565b61366b565b9050919050565b6000819050919050565b614b3e83614b09565b614b52614b4a82614b2b565b848454614aad565b825550505050565b600090565b614b67614b5a565b614b72818484614b35565b505050565b5b81811015614b9657614b8b600082614b5f565b600181019050614b78565b5050565b601f821115614bdb57614bac81614a7b565b614bb584614a90565b81016020851015614bc4578190505b614bd8614bd085614a90565b830182614b77565b50505b505050565b600082821c905092915050565b6000614bfe60001984600802614be0565b1980831691505092915050565b6000614c178383614bed565b9150826002028217905092915050565b614c30826135b9565b67ffffffffffffffff811115614c4957614c48613b57565b5b614c538254613d74565b614c5e828285614b9a565b600060209050601f831160018114614c915760008415614c7f578287015190505b614c898582614c0b565b865550614cf1565b601f198416614c9f86614a7b565b60005b82811015614cc757848901518255600182019150602085019450602081019050614ca2565b86831015614ce45784890151614ce0601f891682614bed565b8355505b6001600288020188555050505b505050505050565b7f4552433732313a20617070726f766520746f2063616c6c657200000000000000600082015250565b6000614d2f6019836135c4565b9150614d3a82614cf9565b602082019050919050565b60006020820190508181036000830152614d5e81614d22565b9050919050565b7f4552433732313a207472616e7366657220746f206e6f6e20455243373231526560008201527f63656976657220696d706c656d656e7465720000000000000000000000000000602082015250565b6000614dc16032836135c4565b9150614dcc82614d65565b604082019050919050565b60006020820190508181036000830152614df081614db4565b9050919050565b600081519050919050565b600082825260208201905092915050565b6000614e1e82614df7565b614e288185614e02565b9350614e388185602086016135d5565b614e41816135ff565b840191505092915050565b6000608082019050614e616000830187613700565b614e6e6020830186613700565b614e7b60408301856138db565b8181036060830152614e8d8184614e13565b905095945050505050565b600081519050614ea78161352a565b92915050565b600060208284031215614ec357614ec26134f4565b5b6000614ed184828501614e98565b91505092915050565b7f4e487b7100000000000000000000000000000000000000000000000000000000600052601260045260246000fd5b7f4552433732313a206d696e7420746f20746865207a65726f2061646472657373600082015250565b6000614f3f6020836135c4565b9150614f4a82614f09565b602082019050919050565b60006020820190508181036000830152614f6e81614f32565b9050919050565b7f4552433732313a20746f6b656e20616c7265616479206d696e74656400000000600082015250565b6000614fab601c836135c4565b9150614fb682614f75565b602082019050919050565b60006020820190508181036000830152614fda81614f9e565b905091905056fea2646970667358221220fb1194e7d39dfcf7ae46a7212d81ccf1a54f00b1da43aef987277278be4ee24f64736f6c63430008110033",
  "linkReferences": {},
  "deployedLinkReferences": {}
}